{
	"contracts/RentalContract.sol": {
		"RentalContract": {
			"abi": [
				{
					"inputs": [
						{
							"internalType": "uint256",
							"name": "_rentalId",
							"type": "uint256"
						},
						{
							"internalType": "string",
							"name": "_rentalAddress",
							"type": "string"
						},
						{
							"internalType": "string",
							"name": "_propertyType",
							"type": "string"
						}
					],
					"name": "AddOwner",
					"outputs": [],
					"stateMutability": "nonpayable",
					"type": "function"
				},
				{
					"inputs": [
						{
							"internalType": "uint256",
							"name": "_rentalId",
							"type": "uint256"
						}
					],
					"name": "cancelContract",
					"outputs": [],
					"stateMutability": "nonpayable",
					"type": "function"
				},
				{
					"inputs": [
						{
							"internalType": "address",
							"name": "_tenantAddress",
							"type": "address"
						},
						{
							"internalType": "uint256",
							"name": "_rentalId",
							"type": "uint256"
						},
						{
							"internalType": "uint256",
							"name": "_startYear",
							"type": "uint256"
						},
						{
							"internalType": "uint256",
							"name": "_endYear",
							"type": "uint256"
						}
					],
					"name": "createRentalContract",
					"outputs": [],
					"stateMutability": "nonpayable",
					"type": "function"
				},
				{
					"inputs": [
						{
							"internalType": "uint256",
							"name": "_rentalId",
							"type": "uint256"
						}
					],
					"name": "getRentalContract",
					"outputs": [
						{
							"internalType": "uint256",
							"name": "rentalId",
							"type": "uint256"
						},
						{
							"internalType": "address",
							"name": "owner",
							"type": "address"
						},
						{
							"internalType": "string",
							"name": "rentalAddress",
							"type": "string"
						},
						{
							"internalType": "enum RentalContract.PropertyType",
							"name": "propertyType",
							"type": "uint8"
						},
						{
							"internalType": "address",
							"name": "tenantAddress",
							"type": "address"
						},
						{
							"internalType": "uint256",
							"name": "startYear",
							"type": "uint256"
						},
						{
							"internalType": "uint256",
							"name": "endYear",
							"type": "uint256"
						},
						{
							"internalType": "bool",
							"name": "isActive",
							"type": "bool"
						}
					],
					"stateMutability": "view",
					"type": "function"
				},
				{
					"inputs": [],
					"name": "ownerRentalCount",
					"outputs": [
						{
							"internalType": "uint256",
							"name": "",
							"type": "uint256"
						}
					],
					"stateMutability": "view",
					"type": "function"
				},
				{
					"inputs": [],
					"name": "ownerRentals",
					"outputs": [
						{
							"components": [
								{
									"internalType": "uint256",
									"name": "rentalId",
									"type": "uint256"
								},
								{
									"internalType": "address",
									"name": "owner",
									"type": "address"
								},
								{
									"internalType": "string",
									"name": "rentalAddress",
									"type": "string"
								},
								{
									"internalType": "enum RentalContract.PropertyType",
									"name": "propertyType",
									"type": "uint8"
								}
							],
							"internalType": "struct RentalContract.Rental[]",
							"name": "",
							"type": "tuple[]"
						}
					],
					"stateMutability": "view",
					"type": "function"
				}
			],
			"devdoc": {
				"kind": "dev",
				"methods": {},
				"version": 1
			},
			"evm": {
				"assembly": "    /* \"contracts/RentalContract.sol\":69:4548  contract RentalContract {... */\n  mstore(0x40, 0x80)\n  callvalue\n  dup1\n  iszero\n  tag_1\n  jumpi\n  0x00\n  dup1\n  revert\ntag_1:\n  pop\n  dataSize(sub_0)\n  dup1\n  dataOffset(sub_0)\n  0x00\n  codecopy\n  0x00\n  return\nstop\n\nsub_0: assembly {\n        /* \"contracts/RentalContract.sol\":69:4548  contract RentalContract {... */\n      mstore(0x40, 0x80)\n      callvalue\n      dup1\n      iszero\n      tag_1\n      jumpi\n      0x00\n      dup1\n      revert\n    tag_1:\n      pop\n      jumpi(tag_2, lt(calldatasize, 0x04))\n      shr(0xe0, calldataload(0x00))\n      dup1\n      0x104b7a0a\n      eq\n      tag_3\n      jumpi\n      dup1\n      0x28047450\n      eq\n      tag_4\n      jumpi\n      dup1\n      0x2a1eb941\n      eq\n      tag_5\n      jumpi\n      dup1\n      0x4a479823\n      eq\n      tag_6\n      jumpi\n      dup1\n      0xbee68d43\n      eq\n      tag_7\n      jumpi\n      dup1\n      0xf23b3a2c\n      eq\n      tag_8\n      jumpi\n    tag_2:\n      0x00\n      dup1\n      revert\n        /* \"contracts/RentalContract.sol\":1659:1776  function ownerRentalCount() onlyOwner public view returns (uint256) {... */\n    tag_3:\n      tag_9\n      tag_10\n      jump\t// in\n    tag_9:\n      mload(0x40)\n      tag_11\n      swap2\n      swap1\n      tag_12\n      jump\t// in\n    tag_11:\n      mload(0x40)\n      dup1\n      swap2\n      sub\n      swap1\n      return\n        /* \"contracts/RentalContract.sol\":3911:4437  function cancelContract(uint256 _rentalId) public onlyOwner{... */\n    tag_4:\n      tag_13\n      0x04\n      dup1\n      calldatasize\n      sub\n      dup2\n      add\n      swap1\n      tag_14\n      swap2\n      swap1\n      tag_15\n      jump\t// in\n    tag_14:\n      tag_16\n      jump\t// in\n    tag_13:\n      stop\n        /* \"contracts/RentalContract.sol\":683:1653  function AddOwner(uint256 _rentalId,string memory _rentalAddress,string memory _propertyType) public {... */\n    tag_5:\n      tag_17\n      0x04\n      dup1\n      calldatasize\n      sub\n      dup2\n      add\n      swap1\n      tag_18\n      swap2\n      swap1\n      tag_19\n      jump\t// in\n    tag_18:\n      tag_20\n      jump\t// in\n    tag_17:\n      stop\n        /* \"contracts/RentalContract.sol\":4443:4545  function ownerRentals() public view returns(Rental[] memory){... */\n    tag_6:\n      tag_21\n      tag_22\n      jump\t// in\n    tag_21:\n      mload(0x40)\n      tag_23\n      swap2\n      swap1\n      tag_24\n      jump\t// in\n    tag_23:\n      mload(0x40)\n      dup1\n      swap2\n      sub\n      swap1\n      return\n        /* \"contracts/RentalContract.sol\":2673:3905  function getRentalContract(uint256 _rentalId) public view returns(... */\n    tag_7:\n      tag_25\n      0x04\n      dup1\n      calldatasize\n      sub\n      dup2\n      add\n      swap1\n      tag_26\n      swap2\n      swap1\n      tag_15\n      jump\t// in\n    tag_26:\n      tag_27\n      jump\t// in\n    tag_25:\n      mload(0x40)\n      tag_28\n      swap9\n      swap8\n      swap7\n      swap6\n      swap5\n      swap4\n      swap3\n      swap2\n      swap1\n      tag_29\n      jump\t// in\n    tag_28:\n      mload(0x40)\n      dup1\n      swap2\n      sub\n      swap1\n      return\n        /* \"contracts/RentalContract.sol\":1787:2667  function createRentalContract(... */\n    tag_8:\n      tag_30\n      0x04\n      dup1\n      calldatasize\n      sub\n      dup2\n      add\n      swap1\n      tag_31\n      swap2\n      swap1\n      tag_32\n      jump\t// in\n    tag_31:\n      tag_33\n      jump\t// in\n    tag_30:\n      stop\n        /* \"contracts/RentalContract.sol\":1659:1776  function ownerRentalCount() onlyOwner public view returns (uint256) {... */\n    tag_10:\n        /* \"contracts/RentalContract.sol\":1718:1725  uint256 */\n      0x00\n        /* \"contracts/RentalContract.sol\":622:623  0 */\n      dup1\n        /* \"contracts/RentalContract.sol\":594:600  owners */\n      0x01\n        /* \"contracts/RentalContract.sol\":594:612  owners[msg.sender] */\n      0x00\n        /* \"contracts/RentalContract.sol\":601:611  msg.sender */\n      caller\n        /* \"contracts/RentalContract.sol\":594:612  owners[msg.sender] */\n      0xffffffffffffffffffffffffffffffffffffffff\n      and\n      0xffffffffffffffffffffffffffffffffffffffff\n      and\n      dup2\n      mstore\n      0x20\n      add\n      swap1\n      dup2\n      mstore\n      0x20\n      add\n      0x00\n      keccak256\n        /* \"contracts/RentalContract.sol\":594:619  owners[msg.sender].length */\n      dup1\n      sload\n      swap1\n      pop\n        /* \"contracts/RentalContract.sol\":594:623  owners[msg.sender].length > 0 */\n      gt\n        /* \"contracts/RentalContract.sol\":586:659  require(owners[msg.sender].length > 0,\"Sadece Mekan sahibi kullanabilir\") */\n      tag_35\n      jumpi\n      mload(0x40)\n      0x08c379a000000000000000000000000000000000000000000000000000000000\n      dup2\n      mstore\n      0x04\n      add\n      tag_36\n      swap1\n      tag_37\n      jump\t// in\n    tag_36:\n      mload(0x40)\n      dup1\n      swap2\n      sub\n      swap1\n      revert\n    tag_35:\n        /* \"contracts/RentalContract.sol\":1744:1750  owners */\n      0x01\n        /* \"contracts/RentalContract.sol\":1744:1762  owners[msg.sender] */\n      0x00\n        /* \"contracts/RentalContract.sol\":1751:1761  msg.sender */\n      caller\n        /* \"contracts/RentalContract.sol\":1744:1762  owners[msg.sender] */\n      0xffffffffffffffffffffffffffffffffffffffff\n      and\n      0xffffffffffffffffffffffffffffffffffffffff\n      and\n      dup2\n      mstore\n      0x20\n      add\n      swap1\n      dup2\n      mstore\n      0x20\n      add\n      0x00\n      keccak256\n        /* \"contracts/RentalContract.sol\":1744:1769  owners[msg.sender].length */\n      dup1\n      sload\n      swap1\n      pop\n        /* \"contracts/RentalContract.sol\":1737:1769  return owners[msg.sender].length */\n      swap1\n      pop\n        /* \"contracts/RentalContract.sol\":1659:1776  function ownerRentalCount() onlyOwner public view returns (uint256) {... */\n      swap1\n      jump\t// out\n        /* \"contracts/RentalContract.sol\":3911:4437  function cancelContract(uint256 _rentalId) public onlyOwner{... */\n    tag_16:\n        /* \"contracts/RentalContract.sol\":622:623  0 */\n      0x00\n        /* \"contracts/RentalContract.sol\":594:600  owners */\n      0x01\n        /* \"contracts/RentalContract.sol\":594:612  owners[msg.sender] */\n      0x00\n        /* \"contracts/RentalContract.sol\":601:611  msg.sender */\n      caller\n        /* \"contracts/RentalContract.sol\":594:612  owners[msg.sender] */\n      0xffffffffffffffffffffffffffffffffffffffff\n      and\n      0xffffffffffffffffffffffffffffffffffffffff\n      and\n      dup2\n      mstore\n      0x20\n      add\n      swap1\n      dup2\n      mstore\n      0x20\n      add\n      0x00\n      keccak256\n        /* \"contracts/RentalContract.sol\":594:619  owners[msg.sender].length */\n      dup1\n      sload\n      swap1\n      pop\n        /* \"contracts/RentalContract.sol\":594:623  owners[msg.sender].length > 0 */\n      gt\n        /* \"contracts/RentalContract.sol\":586:659  require(owners[msg.sender].length > 0,\"Sadece Mekan sahibi kullanabilir\") */\n      tag_40\n      jumpi\n      mload(0x40)\n      0x08c379a000000000000000000000000000000000000000000000000000000000\n      dup2\n      mstore\n      0x04\n      add\n      tag_41\n      swap1\n      tag_37\n      jump\t// in\n    tag_41:\n      mload(0x40)\n      dup1\n      swap2\n      sub\n      swap1\n      revert\n    tag_40:\n        /* \"contracts/RentalContract.sol\":3980:4019  ContractInformation memory contractInfo */\n      tag_43\n      tag_44\n      jump\t// in\n    tag_43:\n        /* \"contracts/RentalContract.sol\":4034:4043  uint256 i */\n      0x00\n        /* \"contracts/RentalContract.sol\":4029:4329  for (uint256 i = 0; i < contractInfos[msg.sender].length; i++) {... */\n    tag_45:\n        /* \"contracts/RentalContract.sol\":4053:4066  contractInfos */\n      0x00\n        /* \"contracts/RentalContract.sol\":4053:4078  contractInfos[msg.sender] */\n      dup1\n        /* \"contracts/RentalContract.sol\":4067:4077  msg.sender */\n      caller\n        /* \"contracts/RentalContract.sol\":4053:4078  contractInfos[msg.sender] */\n      0xffffffffffffffffffffffffffffffffffffffff\n      and\n      0xffffffffffffffffffffffffffffffffffffffff\n      and\n      dup2\n      mstore\n      0x20\n      add\n      swap1\n      dup2\n      mstore\n      0x20\n      add\n      0x00\n      keccak256\n        /* \"contracts/RentalContract.sol\":4053:4085  contractInfos[msg.sender].length */\n      dup1\n      sload\n      swap1\n      pop\n        /* \"contracts/RentalContract.sol\":4049:4050  i */\n      dup2\n        /* \"contracts/RentalContract.sol\":4049:4085  i < contractInfos[msg.sender].length */\n      lt\n        /* \"contracts/RentalContract.sol\":4029:4329  for (uint256 i = 0; i < contractInfos[msg.sender].length; i++) {... */\n      iszero\n      tag_46\n      jumpi\n        /* \"contracts/RentalContract.sol\":4156:4165  _rentalId */\n      dup3\n        /* \"contracts/RentalContract.sol\":4110:4123  contractInfos */\n      0x00\n        /* \"contracts/RentalContract.sol\":4110:4135  contractInfos[msg.sender] */\n      dup1\n        /* \"contracts/RentalContract.sol\":4124:4134  msg.sender */\n      caller\n        /* \"contracts/RentalContract.sol\":4110:4135  contractInfos[msg.sender] */\n      0xffffffffffffffffffffffffffffffffffffffff\n      and\n      0xffffffffffffffffffffffffffffffffffffffff\n      and\n      dup2\n      mstore\n      0x20\n      add\n      swap1\n      dup2\n      mstore\n      0x20\n      add\n      0x00\n      keccak256\n        /* \"contracts/RentalContract.sol\":4136:4137  i */\n      dup3\n        /* \"contracts/RentalContract.sol\":4110:4138  contractInfos[msg.sender][i] */\n      dup2\n      sload\n      dup2\n      lt\n      tag_48\n      jumpi\n      tag_49\n      tag_50\n      jump\t// in\n    tag_49:\n    tag_48:\n      swap1\n      0x00\n      mstore\n      keccak256(0x00, 0x20)\n      swap1\n      0x08\n      mul\n      add\n        /* \"contracts/RentalContract.sol\":4110:4143  contractInfos[msg.sender][i].base */\n      0x00\n      add\n        /* \"contracts/RentalContract.sol\":4110:4152  contractInfos[msg.sender][i].base.rentalId */\n      0x00\n      add\n      sload\n        /* \"contracts/RentalContract.sol\":4110:4165  contractInfos[msg.sender][i].base.rentalId == _rentalId */\n      sub\n        /* \"contracts/RentalContract.sol\":4106:4319  if (contractInfos[msg.sender][i].base.rentalId == _rentalId) {... */\n      tag_52\n      jumpi\n        /* \"contracts/RentalContract.sol\":4200:4213  contractInfos */\n      0x00\n        /* \"contracts/RentalContract.sol\":4200:4225  contractInfos[msg.sender] */\n      dup1\n        /* \"contracts/RentalContract.sol\":4214:4224  msg.sender */\n      caller\n        /* \"contracts/RentalContract.sol\":4200:4225  contractInfos[msg.sender] */\n      0xffffffffffffffffffffffffffffffffffffffff\n      and\n      0xffffffffffffffffffffffffffffffffffffffff\n      and\n      dup2\n      mstore\n      0x20\n      add\n      swap1\n      dup2\n      mstore\n      0x20\n      add\n      0x00\n      keccak256\n        /* \"contracts/RentalContract.sol\":4226:4227  i */\n      dup2\n        /* \"contracts/RentalContract.sol\":4200:4228  contractInfos[msg.sender][i] */\n      dup2\n      sload\n      dup2\n      lt\n      tag_53\n      jumpi\n      tag_54\n      tag_50\n      jump\t// in\n    tag_54:\n    tag_53:\n      swap1\n      0x00\n      mstore\n      keccak256(0x00, 0x20)\n      swap1\n      0x08\n      mul\n      add\n        /* \"contracts/RentalContract.sol\":4185:4228  contractInfo = contractInfos[msg.sender][i] */\n      mload(0x40)\n      dup1\n      0xa0\n      add\n      0x40\n      mstore\n      swap1\n      dup2\n      0x00\n      dup3\n      add\n      mload(0x40)\n      dup1\n      0x80\n      add\n      0x40\n      mstore\n      swap1\n      dup2\n      0x00\n      dup3\n      add\n      sload\n      dup2\n      mstore\n      0x20\n      add\n      0x01\n      dup3\n      add\n      0x00\n      swap1\n      sload\n      swap1\n      0x0100\n      exp\n      swap1\n      div\n      0xffffffffffffffffffffffffffffffffffffffff\n      and\n      0xffffffffffffffffffffffffffffffffffffffff\n      and\n      0xffffffffffffffffffffffffffffffffffffffff\n      and\n      dup2\n      mstore\n      0x20\n      add\n      0x02\n      dup3\n      add\n      dup1\n      sload\n      tag_56\n      swap1\n      tag_57\n      jump\t// in\n    tag_56:\n      dup1\n      0x1f\n      add\n      0x20\n      dup1\n      swap2\n      div\n      mul\n      0x20\n      add\n      mload(0x40)\n      swap1\n      dup2\n      add\n      0x40\n      mstore\n      dup1\n      swap3\n      swap2\n      swap1\n      dup2\n      dup2\n      mstore\n      0x20\n      add\n      dup3\n      dup1\n      sload\n      tag_58\n      swap1\n      tag_57\n      jump\t// in\n    tag_58:\n      dup1\n      iszero\n      tag_59\n      jumpi\n      dup1\n      0x1f\n      lt\n      tag_60\n      jumpi\n      0x0100\n      dup1\n      dup4\n      sload\n      div\n      mul\n      dup4\n      mstore\n      swap2\n      0x20\n      add\n      swap2\n      jump(tag_59)\n    tag_60:\n      dup3\n      add\n      swap2\n      swap1\n      0x00\n      mstore\n      keccak256(0x00, 0x20)\n      swap1\n    tag_61:\n      dup2\n      sload\n      dup2\n      mstore\n      swap1\n      0x01\n      add\n      swap1\n      0x20\n      add\n      dup1\n      dup4\n      gt\n      tag_61\n      jumpi\n      dup3\n      swap1\n      sub\n      0x1f\n      and\n      dup3\n      add\n      swap2\n    tag_59:\n      pop\n      pop\n      pop\n      pop\n      pop\n      dup2\n      mstore\n      0x20\n      add\n      0x03\n      dup3\n      add\n      0x00\n      swap1\n      sload\n      swap1\n      0x0100\n      exp\n      swap1\n      div\n      0xff\n      and\n      0x01\n      dup2\n      gt\n      iszero\n      tag_62\n      jumpi\n      tag_63\n      tag_64\n      jump\t// in\n    tag_63:\n    tag_62:\n      0x01\n      dup2\n      gt\n      iszero\n      tag_65\n      jumpi\n      tag_66\n      tag_64\n      jump\t// in\n    tag_66:\n    tag_65:\n      dup2\n      mstore\n      pop\n      pop\n      dup2\n      mstore\n      0x20\n      add\n      0x04\n      dup3\n      add\n      0x00\n      swap1\n      sload\n      swap1\n      0x0100\n      exp\n      swap1\n      div\n      0xffffffffffffffffffffffffffffffffffffffff\n      and\n      0xffffffffffffffffffffffffffffffffffffffff\n      and\n      0xffffffffffffffffffffffffffffffffffffffff\n      and\n      dup2\n      mstore\n      0x20\n      add\n      0x05\n      dup3\n      add\n      sload\n      dup2\n      mstore\n      0x20\n      add\n      0x06\n      dup3\n      add\n      sload\n      dup2\n      mstore\n      0x20\n      add\n      0x07\n      dup3\n      add\n      0x00\n      swap1\n      sload\n      swap1\n      0x0100\n      exp\n      swap1\n      div\n      0xff\n      and\n      iszero\n      iszero\n      iszero\n      iszero\n      dup2\n      mstore\n      pop\n      pop\n      swap2\n      pop\n        /* \"contracts/RentalContract.sol\":4253:4266  contractInfos */\n      0x00\n        /* \"contracts/RentalContract.sol\":4253:4278  contractInfos[msg.sender] */\n      dup1\n        /* \"contracts/RentalContract.sol\":4267:4277  msg.sender */\n      caller\n        /* \"contracts/RentalContract.sol\":4253:4278  contractInfos[msg.sender] */\n      0xffffffffffffffffffffffffffffffffffffffff\n      and\n      0xffffffffffffffffffffffffffffffffffffffff\n      and\n      dup2\n      mstore\n      0x20\n      add\n      swap1\n      dup2\n      mstore\n      0x20\n      add\n      0x00\n      keccak256\n        /* \"contracts/RentalContract.sol\":4279:4280  i */\n      dup2\n        /* \"contracts/RentalContract.sol\":4253:4281  contractInfos[msg.sender][i] */\n      dup2\n      sload\n      dup2\n      lt\n      tag_67\n      jumpi\n      tag_68\n      tag_50\n      jump\t// in\n    tag_68:\n    tag_67:\n      swap1\n      0x00\n      mstore\n      keccak256(0x00, 0x20)\n      swap1\n      0x08\n      mul\n      add\n      0x00\n        /* \"contracts/RentalContract.sol\":4246:4281  delete contractInfos[msg.sender][i] */\n      dup1\n      dup3\n      add\n      0x00\n      dup1\n      dup3\n      add\n      0x00\n      swap1\n      sstore\n      0x01\n      dup3\n      add\n      exp(0x0100, 0x00)\n      dup2\n      sload\n      swap1\n      0xffffffffffffffffffffffffffffffffffffffff\n      mul\n      not\n      and\n      swap1\n      sstore\n      0x02\n      dup3\n      add\n      0x00\n      tag_70\n      swap2\n      swap1\n      tag_71\n      jump\t// in\n    tag_70:\n      0x03\n      dup3\n      add\n      exp(0x0100, 0x00)\n      dup2\n      sload\n      swap1\n      0xff\n      mul\n      not\n      and\n      swap1\n      sstore\n      pop\n      pop\n      0x04\n      dup3\n      add\n      exp(0x0100, 0x00)\n      dup2\n      sload\n      swap1\n      0xffffffffffffffffffffffffffffffffffffffff\n      mul\n      not\n      and\n      swap1\n      sstore\n      0x05\n      dup3\n      add\n      0x00\n      swap1\n      sstore\n      0x06\n      dup3\n      add\n      0x00\n      swap1\n      sstore\n      0x07\n      dup3\n      add\n      exp(0x0100, 0x00)\n      dup2\n      sload\n      swap1\n      0xff\n      mul\n      not\n      and\n      swap1\n      sstore\n      pop\n      pop\n        /* \"contracts/RentalContract.sol\":4299:4304  break */\n      jump(tag_46)\n        /* \"contracts/RentalContract.sol\":4106:4319  if (contractInfos[msg.sender][i].base.rentalId == _rentalId) {... */\n    tag_52:\n        /* \"contracts/RentalContract.sol\":4087:4090  i++ */\n      dup1\n      dup1\n      tag_72\n      swap1\n      tag_73\n      jump\t// in\n    tag_72:\n      swap2\n      pop\n      pop\n        /* \"contracts/RentalContract.sol\":4029:4329  for (uint256 i = 0; i < contractInfos[msg.sender].length; i++) {... */\n      jump(tag_45)\n    tag_46:\n      pop\n        /* \"contracts/RentalContract.sol\":4376:4385  _rentalId */\n      dup2\n        /* \"contracts/RentalContract.sol\":4346:4358  contractInfo */\n      dup2\n        /* \"contracts/RentalContract.sol\":4346:4363  contractInfo.base */\n      0x00\n      add\n      mload\n        /* \"contracts/RentalContract.sol\":4346:4372  contractInfo.base.rentalId */\n      0x00\n      add\n      mload\n        /* \"contracts/RentalContract.sol\":4346:4385  contractInfo.base.rentalId == _rentalId */\n      eq\n        /* \"contracts/RentalContract.sol\":4338:4421  require(contractInfo.base.rentalId == _rentalId,unicode\"Rental Id geçerli değil\") */\n      tag_74\n      jumpi\n      mload(0x40)\n      0x08c379a000000000000000000000000000000000000000000000000000000000\n      dup2\n      mstore\n      0x04\n      add\n      tag_75\n      swap1\n      tag_76\n      jump\t// in\n    tag_75:\n      mload(0x40)\n      dup1\n      swap2\n      sub\n      swap1\n      revert\n    tag_74:\n        /* \"contracts/RentalContract.sol\":3970:4437  {... */\n      pop\n        /* \"contracts/RentalContract.sol\":3911:4437  function cancelContract(uint256 _rentalId) public onlyOwner{... */\n      pop\n      jump\t// out\n        /* \"contracts/RentalContract.sol\":683:1653  function AddOwner(uint256 _rentalId,string memory _rentalAddress,string memory _propertyType) public {... */\n    tag_20:\n        /* \"contracts/RentalContract.sol\":794:812  PropertyType ptype */\n      0x00\n        /* \"contracts/RentalContract.sol\":882:906  abi.encodePacked(\"home\") */\n      add(0x20, mload(0x40))\n      tag_78\n      swap1\n      tag_79\n      jump\t// in\n    tag_78:\n      mload(0x40)\n      0x20\n      dup2\n      dup4\n      sub\n      sub\n      dup2\n      mstore\n      swap1\n      0x40\n      mstore\n        /* \"contracts/RentalContract.sol\":872:907  keccak256(abi.encodePacked(\"home\")) */\n      dup1\n      mload\n      swap1\n      0x20\n      add\n      keccak256\n        /* \"contracts/RentalContract.sol\":853:866  _propertyType */\n      dup3\n        /* \"contracts/RentalContract.sol\":836:867  abi.encodePacked(_propertyType) */\n      add(0x20, mload(0x40))\n      tag_80\n      swap2\n      swap1\n      tag_81\n      jump\t// in\n    tag_80:\n      mload(0x40)\n      0x20\n      dup2\n      dup4\n      sub\n      sub\n      dup2\n      mstore\n      swap1\n      0x40\n      mstore\n        /* \"contracts/RentalContract.sol\":826:868  keccak256(abi.encodePacked(_propertyType)) */\n      dup1\n      mload\n      swap1\n      0x20\n      add\n      keccak256\n        /* \"contracts/RentalContract.sol\":826:907  keccak256(abi.encodePacked(_propertyType)) == keccak256(abi.encodePacked(\"home\")) */\n      sub\n        /* \"contracts/RentalContract.sol\":822:1186  if((keccak256(abi.encodePacked(_propertyType)) == keccak256(abi.encodePacked(\"home\")))){... */\n      tag_82\n      jumpi\n        /* \"contracts/RentalContract.sol\":931:948  PropertyType.HOME */\n      0x00\n        /* \"contracts/RentalContract.sol\":923:948  ptype = PropertyType.HOME */\n      swap1\n      pop\n        /* \"contracts/RentalContract.sol\":822:1186  if((keccak256(abi.encodePacked(_propertyType)) == keccak256(abi.encodePacked(\"home\")))){... */\n      jump(tag_83)\n    tag_82:\n        /* \"contracts/RentalContract.sol\":1024:1048  abi.encodePacked(\"shop\") */\n      add(0x20, mload(0x40))\n      tag_84\n      swap1\n      tag_85\n      jump\t// in\n    tag_84:\n      mload(0x40)\n      0x20\n      dup2\n      dup4\n      sub\n      sub\n      dup2\n      mstore\n      swap1\n      0x40\n      mstore\n        /* \"contracts/RentalContract.sol\":1014:1049  keccak256(abi.encodePacked(\"shop\")) */\n      dup1\n      mload\n      swap1\n      0x20\n      add\n      keccak256\n        /* \"contracts/RentalContract.sol\":995:1008  _propertyType */\n      dup3\n        /* \"contracts/RentalContract.sol\":978:1009  abi.encodePacked(_propertyType) */\n      add(0x20, mload(0x40))\n      tag_86\n      swap2\n      swap1\n      tag_81\n      jump\t// in\n    tag_86:\n      mload(0x40)\n      0x20\n      dup2\n      dup4\n      sub\n      sub\n      dup2\n      mstore\n      swap1\n      0x40\n      mstore\n        /* \"contracts/RentalContract.sol\":968:1010  keccak256(abi.encodePacked(_propertyType)) */\n      dup1\n      mload\n      swap1\n      0x20\n      add\n      keccak256\n        /* \"contracts/RentalContract.sol\":968:1049  keccak256(abi.encodePacked(_propertyType)) == keccak256(abi.encodePacked(\"shop\")) */\n      sub\n        /* \"contracts/RentalContract.sol\":964:1186  if((keccak256(abi.encodePacked(_propertyType)) == keccak256(abi.encodePacked(\"shop\")))){... */\n      tag_87\n      jumpi\n        /* \"contracts/RentalContract.sol\":1073:1090  PropertyType.SHOP */\n      0x01\n        /* \"contracts/RentalContract.sol\":1065:1090  ptype = PropertyType.SHOP */\n      swap1\n      pop\n        /* \"contracts/RentalContract.sol\":964:1186  if((keccak256(abi.encodePacked(_propertyType)) == keccak256(abi.encodePacked(\"shop\")))){... */\n      jump(tag_88)\n    tag_87:\n        /* \"contracts/RentalContract.sol\":1119:1175  revert(\"Property tipini home veya shop olarak giriniz.\") */\n      mload(0x40)\n      0x08c379a000000000000000000000000000000000000000000000000000000000\n      dup2\n      mstore\n      0x04\n      add\n      tag_89\n      swap1\n      tag_90\n      jump\t// in\n    tag_89:\n      mload(0x40)\n      dup1\n      swap2\n      sub\n      swap1\n      revert\n        /* \"contracts/RentalContract.sol\":964:1186  if((keccak256(abi.encodePacked(_propertyType)) == keccak256(abi.encodePacked(\"shop\")))){... */\n    tag_88:\n        /* \"contracts/RentalContract.sol\":822:1186  if((keccak256(abi.encodePacked(_propertyType)) == keccak256(abi.encodePacked(\"home\")))){... */\n    tag_83:\n        /* \"contracts/RentalContract.sol\":1200:1209  uint256 i */\n      0x00\n        /* \"contracts/RentalContract.sol\":1195:1398  for (uint256 i = 0; i < owners[msg.sender].length; i++) {... */\n    tag_91:\n        /* \"contracts/RentalContract.sol\":1219:1225  owners */\n      0x01\n        /* \"contracts/RentalContract.sol\":1219:1237  owners[msg.sender] */\n      0x00\n        /* \"contracts/RentalContract.sol\":1226:1236  msg.sender */\n      caller\n        /* \"contracts/RentalContract.sol\":1219:1237  owners[msg.sender] */\n      0xffffffffffffffffffffffffffffffffffffffff\n      and\n      0xffffffffffffffffffffffffffffffffffffffff\n      and\n      dup2\n      mstore\n      0x20\n      add\n      swap1\n      dup2\n      mstore\n      0x20\n      add\n      0x00\n      keccak256\n        /* \"contracts/RentalContract.sol\":1219:1244  owners[msg.sender].length */\n      dup1\n      sload\n      swap1\n      pop\n        /* \"contracts/RentalContract.sol\":1215:1216  i */\n      dup2\n        /* \"contracts/RentalContract.sol\":1215:1244  i < owners[msg.sender].length */\n      lt\n        /* \"contracts/RentalContract.sol\":1195:1398  for (uint256 i = 0; i < owners[msg.sender].length; i++) {... */\n      iszero\n      tag_92\n      jumpi\n        /* \"contracts/RentalContract.sol\":1303:1312  _rentalId */\n      dup5\n        /* \"contracts/RentalContract.sol\":1269:1275  owners */\n      0x01\n        /* \"contracts/RentalContract.sol\":1269:1287  owners[msg.sender] */\n      0x00\n        /* \"contracts/RentalContract.sol\":1276:1286  msg.sender */\n      caller\n        /* \"contracts/RentalContract.sol\":1269:1287  owners[msg.sender] */\n      0xffffffffffffffffffffffffffffffffffffffff\n      and\n      0xffffffffffffffffffffffffffffffffffffffff\n      and\n      dup2\n      mstore\n      0x20\n      add\n      swap1\n      dup2\n      mstore\n      0x20\n      add\n      0x00\n      keccak256\n        /* \"contracts/RentalContract.sol\":1288:1289  i */\n      dup3\n        /* \"contracts/RentalContract.sol\":1269:1290  owners[msg.sender][i] */\n      dup2\n      sload\n      dup2\n      lt\n      tag_94\n      jumpi\n      tag_95\n      tag_50\n      jump\t// in\n    tag_95:\n    tag_94:\n      swap1\n      0x00\n      mstore\n      keccak256(0x00, 0x20)\n      swap1\n      0x04\n      mul\n      add\n        /* \"contracts/RentalContract.sol\":1269:1299  owners[msg.sender][i].rentalId */\n      0x00\n      add\n      sload\n        /* \"contracts/RentalContract.sol\":1269:1312  owners[msg.sender][i].rentalId == _rentalId */\n      sub\n        /* \"contracts/RentalContract.sol\":1265:1388  if (owners[msg.sender][i].rentalId == _rentalId) {... */\n      tag_97\n      jumpi\n        /* \"contracts/RentalContract.sol\":1332:1373  revert(unicode\"Rental Id kullanılıyor\") */\n      mload(0x40)\n      0x08c379a000000000000000000000000000000000000000000000000000000000\n      dup2\n      mstore\n      0x04\n      add\n      tag_98\n      swap1\n      tag_99\n      jump\t// in\n    tag_98:\n      mload(0x40)\n      dup1\n      swap2\n      sub\n      swap1\n      revert\n        /* \"contracts/RentalContract.sol\":1265:1388  if (owners[msg.sender][i].rentalId == _rentalId) {... */\n    tag_97:\n        /* \"contracts/RentalContract.sol\":1246:1249  i++ */\n      dup1\n      dup1\n      tag_100\n      swap1\n      tag_73\n      jump\t// in\n    tag_100:\n      swap2\n      pop\n      pop\n        /* \"contracts/RentalContract.sol\":1195:1398  for (uint256 i = 0; i < owners[msg.sender].length; i++) {... */\n      jump(tag_91)\n    tag_92:\n      pop\n        /* \"contracts/RentalContract.sol\":1420:1442  Rental memory newOwner */\n      0x00\n        /* \"contracts/RentalContract.sol\":1445:1603  Rental({... */\n      mload(0x40)\n      dup1\n      0x80\n      add\n      0x40\n      mstore\n      dup1\n        /* \"contracts/RentalContract.sol\":1476:1485  _rentalId */\n      dup7\n        /* \"contracts/RentalContract.sol\":1445:1603  Rental({... */\n      dup2\n      mstore\n      0x20\n      add\n        /* \"contracts/RentalContract.sol\":1506:1516  msg.sender */\n      caller\n        /* \"contracts/RentalContract.sol\":1445:1603  Rental({... */\n      0xffffffffffffffffffffffffffffffffffffffff\n      and\n      dup2\n      mstore\n      0x20\n      add\n        /* \"contracts/RentalContract.sol\":1545:1559  _rentalAddress */\n      dup6\n        /* \"contracts/RentalContract.sol\":1445:1603  Rental({... */\n      dup2\n      mstore\n      0x20\n      add\n        /* \"contracts/RentalContract.sol\":1587:1592  ptype */\n      dup4\n        /* \"contracts/RentalContract.sol\":1445:1603  Rental({... */\n      0x01\n      dup2\n      gt\n      iszero\n      tag_101\n      jumpi\n      tag_102\n      tag_64\n      jump\t// in\n    tag_102:\n    tag_101:\n      dup2\n      mstore\n      pop\n        /* \"contracts/RentalContract.sol\":1420:1603  Rental memory newOwner = Rental({... */\n      swap1\n      pop\n        /* \"contracts/RentalContract.sol\":1613:1619  owners */\n      0x01\n        /* \"contracts/RentalContract.sol\":1613:1631  owners[msg.sender] */\n      0x00\n        /* \"contracts/RentalContract.sol\":1620:1630  msg.sender */\n      caller\n        /* \"contracts/RentalContract.sol\":1613:1631  owners[msg.sender] */\n      0xffffffffffffffffffffffffffffffffffffffff\n      and\n      0xffffffffffffffffffffffffffffffffffffffff\n      and\n      dup2\n      mstore\n      0x20\n      add\n      swap1\n      dup2\n      mstore\n      0x20\n      add\n      0x00\n      keccak256\n        /* \"contracts/RentalContract.sol\":1637:1645  newOwner */\n      dup2\n        /* \"contracts/RentalContract.sol\":1613:1646  owners[msg.sender].push(newOwner) */\n      swap1\n      dup1\n      0x01\n      dup2\n      sload\n      add\n      dup1\n      dup3\n      sstore\n      dup1\n      swap2\n      pop\n      pop\n      0x01\n      swap1\n      sub\n      swap1\n      0x00\n      mstore\n      keccak256(0x00, 0x20)\n      swap1\n      0x04\n      mul\n      add\n      0x00\n      swap1\n      swap2\n      swap1\n      swap2\n      swap1\n      swap2\n      pop\n      0x00\n      dup3\n      add\n      mload\n      dup2\n      0x00\n      add\n      sstore\n      0x20\n      dup3\n      add\n      mload\n      dup2\n      0x01\n      add\n      exp(0x0100, 0x00)\n      dup2\n      sload\n      dup2\n      0xffffffffffffffffffffffffffffffffffffffff\n      mul\n      not\n      and\n      swap1\n      dup4\n      0xffffffffffffffffffffffffffffffffffffffff\n      and\n      mul\n      or\n      swap1\n      sstore\n      pop\n      0x40\n      dup3\n      add\n      mload\n      dup2\n      0x02\n      add\n      swap1\n      dup2\n      tag_104\n      swap2\n      swap1\n      tag_105\n      jump\t// in\n    tag_104:\n      pop\n      0x60\n      dup3\n      add\n      mload\n      dup2\n      0x03\n      add\n      exp(0x0100, 0x00)\n      dup2\n      sload\n      dup2\n      0xff\n      mul\n      not\n      and\n      swap1\n      dup4\n      0x01\n      dup2\n      gt\n      iszero\n      tag_106\n      jumpi\n      tag_107\n      tag_64\n      jump\t// in\n    tag_107:\n    tag_106:\n      mul\n      or\n      swap1\n      sstore\n      pop\n      pop\n      pop\n        /* \"contracts/RentalContract.sol\":784:1653  {... */\n      pop\n      pop\n        /* \"contracts/RentalContract.sol\":683:1653  function AddOwner(uint256 _rentalId,string memory _rentalAddress,string memory _propertyType) public {... */\n      pop\n      pop\n      pop\n      jump\t// out\n        /* \"contracts/RentalContract.sol\":4443:4545  function ownerRentals() public view returns(Rental[] memory){... */\n    tag_22:\n        /* \"contracts/RentalContract.sol\":4487:4502  Rental[] memory */\n      0x60\n        /* \"contracts/RentalContract.sol\":4520:4526  owners */\n      0x01\n        /* \"contracts/RentalContract.sol\":4520:4538  owners[msg.sender] */\n      0x00\n        /* \"contracts/RentalContract.sol\":4527:4537  msg.sender */\n      caller\n        /* \"contracts/RentalContract.sol\":4520:4538  owners[msg.sender] */\n      0xffffffffffffffffffffffffffffffffffffffff\n      and\n      0xffffffffffffffffffffffffffffffffffffffff\n      and\n      dup2\n      mstore\n      0x20\n      add\n      swap1\n      dup2\n      mstore\n      0x20\n      add\n      0x00\n      keccak256\n        /* \"contracts/RentalContract.sol\":4513:4538  return owners[msg.sender] */\n      dup1\n      sload\n      dup1\n      0x20\n      mul\n      0x20\n      add\n      mload(0x40)\n      swap1\n      dup2\n      add\n      0x40\n      mstore\n      dup1\n      swap3\n      swap2\n      swap1\n      dup2\n      dup2\n      mstore\n      0x20\n      add\n      0x00\n      swap1\n    tag_109:\n      dup3\n      dup3\n      lt\n      iszero\n      tag_110\n      jumpi\n      dup4\n      dup3\n      swap1\n      0x00\n      mstore\n      keccak256(0x00, 0x20)\n      swap1\n      0x04\n      mul\n      add\n      mload(0x40)\n      dup1\n      0x80\n      add\n      0x40\n      mstore\n      swap1\n      dup2\n      0x00\n      dup3\n      add\n      sload\n      dup2\n      mstore\n      0x20\n      add\n      0x01\n      dup3\n      add\n      0x00\n      swap1\n      sload\n      swap1\n      0x0100\n      exp\n      swap1\n      div\n      0xffffffffffffffffffffffffffffffffffffffff\n      and\n      0xffffffffffffffffffffffffffffffffffffffff\n      and\n      0xffffffffffffffffffffffffffffffffffffffff\n      and\n      dup2\n      mstore\n      0x20\n      add\n      0x02\n      dup3\n      add\n      dup1\n      sload\n      tag_112\n      swap1\n      tag_57\n      jump\t// in\n    tag_112:\n      dup1\n      0x1f\n      add\n      0x20\n      dup1\n      swap2\n      div\n      mul\n      0x20\n      add\n      mload(0x40)\n      swap1\n      dup2\n      add\n      0x40\n      mstore\n      dup1\n      swap3\n      swap2\n      swap1\n      dup2\n      dup2\n      mstore\n      0x20\n      add\n      dup3\n      dup1\n      sload\n      tag_113\n      swap1\n      tag_57\n      jump\t// in\n    tag_113:\n      dup1\n      iszero\n      tag_114\n      jumpi\n      dup1\n      0x1f\n      lt\n      tag_115\n      jumpi\n      0x0100\n      dup1\n      dup4\n      sload\n      div\n      mul\n      dup4\n      mstore\n      swap2\n      0x20\n      add\n      swap2\n      jump(tag_114)\n    tag_115:\n      dup3\n      add\n      swap2\n      swap1\n      0x00\n      mstore\n      keccak256(0x00, 0x20)\n      swap1\n    tag_116:\n      dup2\n      sload\n      dup2\n      mstore\n      swap1\n      0x01\n      add\n      swap1\n      0x20\n      add\n      dup1\n      dup4\n      gt\n      tag_116\n      jumpi\n      dup3\n      swap1\n      sub\n      0x1f\n      and\n      dup3\n      add\n      swap2\n    tag_114:\n      pop\n      pop\n      pop\n      pop\n      pop\n      dup2\n      mstore\n      0x20\n      add\n      0x03\n      dup3\n      add\n      0x00\n      swap1\n      sload\n      swap1\n      0x0100\n      exp\n      swap1\n      div\n      0xff\n      and\n      0x01\n      dup2\n      gt\n      iszero\n      tag_117\n      jumpi\n      tag_118\n      tag_64\n      jump\t// in\n    tag_118:\n    tag_117:\n      0x01\n      dup2\n      gt\n      iszero\n      tag_119\n      jumpi\n      tag_120\n      tag_64\n      jump\t// in\n    tag_120:\n    tag_119:\n      dup2\n      mstore\n      pop\n      pop\n      dup2\n      mstore\n      0x20\n      add\n      swap1\n      0x01\n      add\n      swap1\n      jump(tag_109)\n    tag_110:\n      pop\n      pop\n      pop\n      pop\n      swap1\n      pop\n        /* \"contracts/RentalContract.sol\":4443:4545  function ownerRentals() public view returns(Rental[] memory){... */\n      swap1\n      jump\t// out\n        /* \"contracts/RentalContract.sol\":2673:3905  function getRentalContract(uint256 _rentalId) public view returns(... */\n    tag_27:\n        /* \"contracts/RentalContract.sol\":2748:2764  uint256 rentalId */\n      0x00\n        /* \"contracts/RentalContract.sol\":2774:2787  address owner */\n      dup1\n        /* \"contracts/RentalContract.sol\":2797:2824  string memory rentalAddress */\n      0x60\n        /* \"contracts/RentalContract.sol\":2834:2859  PropertyType propertyType */\n      0x00\n        /* \"contracts/RentalContract.sol\":2869:2890  address tenantAddress */\n      dup1\n        /* \"contracts/RentalContract.sol\":2900:2917  uint256 startYear */\n      0x00\n        /* \"contracts/RentalContract.sol\":2927:2942  uint256 endYear */\n      dup1\n        /* \"contracts/RentalContract.sol\":2952:2965  bool isActive */\n      0x00\n        /* \"contracts/RentalContract.sol\":2974:2994  Rental memory rental */\n      tag_122\n      tag_123\n      jump\t// in\n    tag_122:\n        /* \"contracts/RentalContract.sol\":3005:3014  uint256 i */\n      0x00\n        /* \"contracts/RentalContract.sol\":3000:3195  for (uint256 i = 0; i < owners[msg.sender].length; i++) {... */\n    tag_124:\n        /* \"contracts/RentalContract.sol\":3024:3030  owners */\n      0x01\n        /* \"contracts/RentalContract.sol\":3024:3042  owners[msg.sender] */\n      0x00\n        /* \"contracts/RentalContract.sol\":3031:3041  msg.sender */\n      caller\n        /* \"contracts/RentalContract.sol\":3024:3042  owners[msg.sender] */\n      0xffffffffffffffffffffffffffffffffffffffff\n      and\n      0xffffffffffffffffffffffffffffffffffffffff\n      and\n      dup2\n      mstore\n      0x20\n      add\n      swap1\n      dup2\n      mstore\n      0x20\n      add\n      0x00\n      keccak256\n        /* \"contracts/RentalContract.sol\":3024:3049  owners[msg.sender].length */\n      dup1\n      sload\n      swap1\n      pop\n        /* \"contracts/RentalContract.sol\":3020:3021  i */\n      dup2\n        /* \"contracts/RentalContract.sol\":3020:3049  i < owners[msg.sender].length */\n      lt\n        /* \"contracts/RentalContract.sol\":3000:3195  for (uint256 i = 0; i < owners[msg.sender].length; i++) {... */\n      iszero\n      tag_125\n      jumpi\n        /* \"contracts/RentalContract.sol\":3104:3113  _rentalId */\n      dup11\n        /* \"contracts/RentalContract.sol\":3070:3076  owners */\n      0x01\n        /* \"contracts/RentalContract.sol\":3070:3088  owners[msg.sender] */\n      0x00\n        /* \"contracts/RentalContract.sol\":3077:3087  msg.sender */\n      caller\n        /* \"contracts/RentalContract.sol\":3070:3088  owners[msg.sender] */\n      0xffffffffffffffffffffffffffffffffffffffff\n      and\n      0xffffffffffffffffffffffffffffffffffffffff\n      and\n      dup2\n      mstore\n      0x20\n      add\n      swap1\n      dup2\n      mstore\n      0x20\n      add\n      0x00\n      keccak256\n        /* \"contracts/RentalContract.sol\":3089:3090  i */\n      dup3\n        /* \"contracts/RentalContract.sol\":3070:3091  owners[msg.sender][i] */\n      dup2\n      sload\n      dup2\n      lt\n      tag_127\n      jumpi\n      tag_128\n      tag_50\n      jump\t// in\n    tag_128:\n    tag_127:\n      swap1\n      0x00\n      mstore\n      keccak256(0x00, 0x20)\n      swap1\n      0x04\n      mul\n      add\n        /* \"contracts/RentalContract.sol\":3070:3100  owners[msg.sender][i].rentalId */\n      0x00\n      add\n      sload\n        /* \"contracts/RentalContract.sol\":3070:3113  owners[msg.sender][i].rentalId == _rentalId */\n      sub\n        /* \"contracts/RentalContract.sol\":3066:3189  if (owners[msg.sender][i].rentalId == _rentalId) {... */\n      tag_130\n      jumpi\n        /* \"contracts/RentalContract.sol\":3138:3144  owners */\n      0x01\n        /* \"contracts/RentalContract.sol\":3138:3156  owners[msg.sender] */\n      0x00\n        /* \"contracts/RentalContract.sol\":3145:3155  msg.sender */\n      caller\n        /* \"contracts/RentalContract.sol\":3138:3156  owners[msg.sender] */\n      0xffffffffffffffffffffffffffffffffffffffff\n      and\n      0xffffffffffffffffffffffffffffffffffffffff\n      and\n      dup2\n      mstore\n      0x20\n      add\n      swap1\n      dup2\n      mstore\n      0x20\n      add\n      0x00\n      keccak256\n        /* \"contracts/RentalContract.sol\":3157:3158  i */\n      dup2\n        /* \"contracts/RentalContract.sol\":3138:3159  owners[msg.sender][i] */\n      dup2\n      sload\n      dup2\n      lt\n      tag_131\n      jumpi\n      tag_132\n      tag_50\n      jump\t// in\n    tag_132:\n    tag_131:\n      swap1\n      0x00\n      mstore\n      keccak256(0x00, 0x20)\n      swap1\n      0x04\n      mul\n      add\n        /* \"contracts/RentalContract.sol\":3129:3159  rental = owners[msg.sender][i] */\n      mload(0x40)\n      dup1\n      0x80\n      add\n      0x40\n      mstore\n      swap1\n      dup2\n      0x00\n      dup3\n      add\n      sload\n      dup2\n      mstore\n      0x20\n      add\n      0x01\n      dup3\n      add\n      0x00\n      swap1\n      sload\n      swap1\n      0x0100\n      exp\n      swap1\n      div\n      0xffffffffffffffffffffffffffffffffffffffff\n      and\n      0xffffffffffffffffffffffffffffffffffffffff\n      and\n      0xffffffffffffffffffffffffffffffffffffffff\n      and\n      dup2\n      mstore\n      0x20\n      add\n      0x02\n      dup3\n      add\n      dup1\n      sload\n      tag_134\n      swap1\n      tag_57\n      jump\t// in\n    tag_134:\n      dup1\n      0x1f\n      add\n      0x20\n      dup1\n      swap2\n      div\n      mul\n      0x20\n      add\n      mload(0x40)\n      swap1\n      dup2\n      add\n      0x40\n      mstore\n      dup1\n      swap3\n      swap2\n      swap1\n      dup2\n      dup2\n      mstore\n      0x20\n      add\n      dup3\n      dup1\n      sload\n      tag_135\n      swap1\n      tag_57\n      jump\t// in\n    tag_135:\n      dup1\n      iszero\n      tag_136\n      jumpi\n      dup1\n      0x1f\n      lt\n      tag_137\n      jumpi\n      0x0100\n      dup1\n      dup4\n      sload\n      div\n      mul\n      dup4\n      mstore\n      swap2\n      0x20\n      add\n      swap2\n      jump(tag_136)\n    tag_137:\n      dup3\n      add\n      swap2\n      swap1\n      0x00\n      mstore\n      keccak256(0x00, 0x20)\n      swap1\n    tag_138:\n      dup2\n      sload\n      dup2\n      mstore\n      swap1\n      0x01\n      add\n      swap1\n      0x20\n      add\n      dup1\n      dup4\n      gt\n      tag_138\n      jumpi\n      dup3\n      swap1\n      sub\n      0x1f\n      and\n      dup3\n      add\n      swap2\n    tag_136:\n      pop\n      pop\n      pop\n      pop\n      pop\n      dup2\n      mstore\n      0x20\n      add\n      0x03\n      dup3\n      add\n      0x00\n      swap1\n      sload\n      swap1\n      0x0100\n      exp\n      swap1\n      div\n      0xff\n      and\n      0x01\n      dup2\n      gt\n      iszero\n      tag_139\n      jumpi\n      tag_140\n      tag_64\n      jump\t// in\n    tag_140:\n    tag_139:\n      0x01\n      dup2\n      gt\n      iszero\n      tag_141\n      jumpi\n      tag_142\n      tag_64\n      jump\t// in\n    tag_142:\n    tag_141:\n      dup2\n      mstore\n      pop\n      pop\n      swap2\n      pop\n        /* \"contracts/RentalContract.sol\":3173:3178  break */\n      jump(tag_125)\n        /* \"contracts/RentalContract.sol\":3066:3189  if (owners[msg.sender][i].rentalId == _rentalId) {... */\n    tag_130:\n        /* \"contracts/RentalContract.sol\":3051:3054  i++ */\n      dup1\n      dup1\n      tag_143\n      swap1\n      tag_73\n      jump\t// in\n    tag_143:\n      swap2\n      pop\n      pop\n        /* \"contracts/RentalContract.sol\":3000:3195  for (uint256 i = 0; i < owners[msg.sender].length; i++) {... */\n      jump(tag_124)\n    tag_125:\n      pop\n        /* \"contracts/RentalContract.sol\":3227:3236  _rentalId */\n      dup10\n        /* \"contracts/RentalContract.sol\":3208:3214  rental */\n      dup2\n        /* \"contracts/RentalContract.sol\":3208:3223  rental.rentalId */\n      0x00\n      add\n      mload\n        /* \"contracts/RentalContract.sol\":3208:3236  rental.rentalId == _rentalId */\n      eq\n        /* \"contracts/RentalContract.sol\":3200:3272  require(rental.rentalId == _rentalId,unicode\"Rental Id geçerli değil\") */\n      tag_144\n      jumpi\n      mload(0x40)\n      0x08c379a000000000000000000000000000000000000000000000000000000000\n      dup2\n      mstore\n      0x04\n      add\n      tag_145\n      swap1\n      tag_76\n      jump\t// in\n    tag_145:\n      mload(0x40)\n      dup1\n      swap2\n      sub\n      swap1\n      revert\n    tag_144:\n        /* \"contracts/RentalContract.sol\":3279:3318  ContractInformation memory contractInfo */\n      tag_146\n      tag_44\n      jump\t// in\n    tag_146:\n        /* \"contracts/RentalContract.sol\":3329:3338  uint256 i */\n      0x00\n        /* \"contracts/RentalContract.sol\":3324:3557  for (uint256 i = 0; i < contractInfos[msg.sender].length; i++) {... */\n    tag_147:\n        /* \"contracts/RentalContract.sol\":3348:3361  contractInfos */\n      0x00\n        /* \"contracts/RentalContract.sol\":3348:3373  contractInfos[msg.sender] */\n      dup1\n        /* \"contracts/RentalContract.sol\":3362:3372  msg.sender */\n      caller\n        /* \"contracts/RentalContract.sol\":3348:3373  contractInfos[msg.sender] */\n      0xffffffffffffffffffffffffffffffffffffffff\n      and\n      0xffffffffffffffffffffffffffffffffffffffff\n      and\n      dup2\n      mstore\n      0x20\n      add\n      swap1\n      dup2\n      mstore\n      0x20\n      add\n      0x00\n      keccak256\n        /* \"contracts/RentalContract.sol\":3348:3380  contractInfos[msg.sender].length */\n      dup1\n      sload\n      swap1\n      pop\n        /* \"contracts/RentalContract.sol\":3344:3345  i */\n      dup2\n        /* \"contracts/RentalContract.sol\":3344:3380  i < contractInfos[msg.sender].length */\n      lt\n        /* \"contracts/RentalContract.sol\":3324:3557  for (uint256 i = 0; i < contractInfos[msg.sender].length; i++) {... */\n      iszero\n      tag_148\n      jumpi\n        /* \"contracts/RentalContract.sol\":3447:3453  rental */\n      dup3\n        /* \"contracts/RentalContract.sol\":3447:3462  rental.rentalId */\n      0x00\n      add\n      mload\n        /* \"contracts/RentalContract.sol\":3401:3414  contractInfos */\n      0x00\n        /* \"contracts/RentalContract.sol\":3401:3426  contractInfos[msg.sender] */\n      dup1\n        /* \"contracts/RentalContract.sol\":3415:3425  msg.sender */\n      caller\n        /* \"contracts/RentalContract.sol\":3401:3426  contractInfos[msg.sender] */\n      0xffffffffffffffffffffffffffffffffffffffff\n      and\n      0xffffffffffffffffffffffffffffffffffffffff\n      and\n      dup2\n      mstore\n      0x20\n      add\n      swap1\n      dup2\n      mstore\n      0x20\n      add\n      0x00\n      keccak256\n        /* \"contracts/RentalContract.sol\":3427:3428  i */\n      dup3\n        /* \"contracts/RentalContract.sol\":3401:3429  contractInfos[msg.sender][i] */\n      dup2\n      sload\n      dup2\n      lt\n      tag_150\n      jumpi\n      tag_151\n      tag_50\n      jump\t// in\n    tag_151:\n    tag_150:\n      swap1\n      0x00\n      mstore\n      keccak256(0x00, 0x20)\n      swap1\n      0x08\n      mul\n      add\n        /* \"contracts/RentalContract.sol\":3401:3434  contractInfos[msg.sender][i].base */\n      0x00\n      add\n        /* \"contracts/RentalContract.sol\":3401:3443  contractInfos[msg.sender][i].base.rentalId */\n      0x00\n      add\n      sload\n        /* \"contracts/RentalContract.sol\":3401:3462  contractInfos[msg.sender][i].base.rentalId == rental.rentalId */\n      sub\n        /* \"contracts/RentalContract.sol\":3397:3551  if (contractInfos[msg.sender][i].base.rentalId == rental.rentalId) {... */\n      tag_153\n      jumpi\n        /* \"contracts/RentalContract.sol\":3493:3506  contractInfos */\n      0x00\n        /* \"contracts/RentalContract.sol\":3493:3518  contractInfos[msg.sender] */\n      dup1\n        /* \"contracts/RentalContract.sol\":3507:3517  msg.sender */\n      caller\n        /* \"contracts/RentalContract.sol\":3493:3518  contractInfos[msg.sender] */\n      0xffffffffffffffffffffffffffffffffffffffff\n      and\n      0xffffffffffffffffffffffffffffffffffffffff\n      and\n      dup2\n      mstore\n      0x20\n      add\n      swap1\n      dup2\n      mstore\n      0x20\n      add\n      0x00\n      keccak256\n        /* \"contracts/RentalContract.sol\":3519:3520  i */\n      dup2\n        /* \"contracts/RentalContract.sol\":3493:3521  contractInfos[msg.sender][i] */\n      dup2\n      sload\n      dup2\n      lt\n      tag_154\n      jumpi\n      tag_155\n      tag_50\n      jump\t// in\n    tag_155:\n    tag_154:\n      swap1\n      0x00\n      mstore\n      keccak256(0x00, 0x20)\n      swap1\n      0x08\n      mul\n      add\n        /* \"contracts/RentalContract.sol\":3478:3521  contractInfo = contractInfos[msg.sender][i] */\n      mload(0x40)\n      dup1\n      0xa0\n      add\n      0x40\n      mstore\n      swap1\n      dup2\n      0x00\n      dup3\n      add\n      mload(0x40)\n      dup1\n      0x80\n      add\n      0x40\n      mstore\n      swap1\n      dup2\n      0x00\n      dup3\n      add\n      sload\n      dup2\n      mstore\n      0x20\n      add\n      0x01\n      dup3\n      add\n      0x00\n      swap1\n      sload\n      swap1\n      0x0100\n      exp\n      swap1\n      div\n      0xffffffffffffffffffffffffffffffffffffffff\n      and\n      0xffffffffffffffffffffffffffffffffffffffff\n      and\n      0xffffffffffffffffffffffffffffffffffffffff\n      and\n      dup2\n      mstore\n      0x20\n      add\n      0x02\n      dup3\n      add\n      dup1\n      sload\n      tag_157\n      swap1\n      tag_57\n      jump\t// in\n    tag_157:\n      dup1\n      0x1f\n      add\n      0x20\n      dup1\n      swap2\n      div\n      mul\n      0x20\n      add\n      mload(0x40)\n      swap1\n      dup2\n      add\n      0x40\n      mstore\n      dup1\n      swap3\n      swap2\n      swap1\n      dup2\n      dup2\n      mstore\n      0x20\n      add\n      dup3\n      dup1\n      sload\n      tag_158\n      swap1\n      tag_57\n      jump\t// in\n    tag_158:\n      dup1\n      iszero\n      tag_159\n      jumpi\n      dup1\n      0x1f\n      lt\n      tag_160\n      jumpi\n      0x0100\n      dup1\n      dup4\n      sload\n      div\n      mul\n      dup4\n      mstore\n      swap2\n      0x20\n      add\n      swap2\n      jump(tag_159)\n    tag_160:\n      dup3\n      add\n      swap2\n      swap1\n      0x00\n      mstore\n      keccak256(0x00, 0x20)\n      swap1\n    tag_161:\n      dup2\n      sload\n      dup2\n      mstore\n      swap1\n      0x01\n      add\n      swap1\n      0x20\n      add\n      dup1\n      dup4\n      gt\n      tag_161\n      jumpi\n      dup3\n      swap1\n      sub\n      0x1f\n      and\n      dup3\n      add\n      swap2\n    tag_159:\n      pop\n      pop\n      pop\n      pop\n      pop\n      dup2\n      mstore\n      0x20\n      add\n      0x03\n      dup3\n      add\n      0x00\n      swap1\n      sload\n      swap1\n      0x0100\n      exp\n      swap1\n      div\n      0xff\n      and\n      0x01\n      dup2\n      gt\n      iszero\n      tag_162\n      jumpi\n      tag_163\n      tag_64\n      jump\t// in\n    tag_163:\n    tag_162:\n      0x01\n      dup2\n      gt\n      iszero\n      tag_164\n      jumpi\n      tag_165\n      tag_64\n      jump\t// in\n    tag_165:\n    tag_164:\n      dup2\n      mstore\n      pop\n      pop\n      dup2\n      mstore\n      0x20\n      add\n      0x04\n      dup3\n      add\n      0x00\n      swap1\n      sload\n      swap1\n      0x0100\n      exp\n      swap1\n      div\n      0xffffffffffffffffffffffffffffffffffffffff\n      and\n      0xffffffffffffffffffffffffffffffffffffffff\n      and\n      0xffffffffffffffffffffffffffffffffffffffff\n      and\n      dup2\n      mstore\n      0x20\n      add\n      0x05\n      dup3\n      add\n      sload\n      dup2\n      mstore\n      0x20\n      add\n      0x06\n      dup3\n      add\n      sload\n      dup2\n      mstore\n      0x20\n      add\n      0x07\n      dup3\n      add\n      0x00\n      swap1\n      sload\n      swap1\n      0x0100\n      exp\n      swap1\n      div\n      0xff\n      and\n      iszero\n      iszero\n      iszero\n      iszero\n      dup2\n      mstore\n      pop\n      pop\n      swap2\n      pop\n        /* \"contracts/RentalContract.sol\":3535:3540  break */\n      jump(tag_148)\n        /* \"contracts/RentalContract.sol\":3397:3551  if (contractInfos[msg.sender][i].base.rentalId == rental.rentalId) {... */\n    tag_153:\n        /* \"contracts/RentalContract.sol\":3382:3385  i++ */\n      dup1\n      dup1\n      tag_166\n      swap1\n      tag_73\n      jump\t// in\n    tag_166:\n      swap2\n      pop\n      pop\n        /* \"contracts/RentalContract.sol\":3324:3557  for (uint256 i = 0; i < contractInfos[msg.sender].length; i++) {... */\n      jump(tag_147)\n    tag_148:\n      pop\n        /* \"contracts/RentalContract.sol\":3608:3609  0 */\n      0x00\n        /* \"contracts/RentalContract.sol\":3570:3610  contractInfo.tenantAddress != address(0) */\n      0xffffffffffffffffffffffffffffffffffffffff\n      and\n        /* \"contracts/RentalContract.sol\":3570:3582  contractInfo */\n      dup2\n        /* \"contracts/RentalContract.sol\":3570:3596  contractInfo.tenantAddress */\n      0x20\n      add\n      mload\n        /* \"contracts/RentalContract.sol\":3570:3610  contractInfo.tenantAddress != address(0) */\n      0xffffffffffffffffffffffffffffffffffffffff\n      and\n      sub\n        /* \"contracts/RentalContract.sol\":3562:3643  require(contractInfo.tenantAddress != address(0),unicode\"Sözleşme bulunamadı\") */\n      tag_167\n      jumpi\n      mload(0x40)\n      0x08c379a000000000000000000000000000000000000000000000000000000000\n      dup2\n      mstore\n      0x04\n      add\n      tag_168\n      swap1\n      tag_169\n      jump\t// in\n    tag_168:\n      mload(0x40)\n      dup1\n      swap2\n      sub\n      swap1\n      revert\n    tag_167:\n        /* \"contracts/RentalContract.sol\":3667:3673  rental */\n      dup2\n        /* \"contracts/RentalContract.sol\":3667:3682  rental.rentalId */\n      0x00\n      add\n      mload\n        /* \"contracts/RentalContract.sol\":3692:3698  rental */\n      dup3\n        /* \"contracts/RentalContract.sol\":3692:3704  rental.owner */\n      0x20\n      add\n      mload\n        /* \"contracts/RentalContract.sol\":3714:3720  rental */\n      dup4\n        /* \"contracts/RentalContract.sol\":3714:3734  rental.rentalAddress */\n      0x40\n      add\n      mload\n        /* \"contracts/RentalContract.sol\":3744:3750  rental */\n      dup5\n        /* \"contracts/RentalContract.sol\":3744:3763  rental.propertyType */\n      0x60\n      add\n      mload\n        /* \"contracts/RentalContract.sol\":3773:3785  contractInfo */\n      dup5\n        /* \"contracts/RentalContract.sol\":3773:3799  contractInfo.tenantAddress */\n      0x20\n      add\n      mload\n        /* \"contracts/RentalContract.sol\":3809:3821  contractInfo */\n      dup6\n        /* \"contracts/RentalContract.sol\":3809:3831  contractInfo.startYear */\n      0x40\n      add\n      mload\n        /* \"contracts/RentalContract.sol\":3841:3853  contractInfo */\n      dup7\n        /* \"contracts/RentalContract.sol\":3841:3861  contractInfo.endYear */\n      0x60\n      add\n      mload\n        /* \"contracts/RentalContract.sol\":3871:3883  contractInfo */\n      dup8\n        /* \"contracts/RentalContract.sol\":3871:3892  contractInfo.isActive */\n      0x80\n      add\n      mload\n        /* \"contracts/RentalContract.sol\":3650:3898  return (... */\n      swap10\n      pop\n      swap10\n      pop\n      swap10\n      pop\n      swap10\n      pop\n      swap10\n      pop\n      swap10\n      pop\n      swap10\n      pop\n      swap10\n      pop\n      pop\n      pop\n        /* \"contracts/RentalContract.sol\":2673:3905  function getRentalContract(uint256 _rentalId) public view returns(... */\n      swap2\n      swap4\n      swap6\n      swap8\n      pop\n      swap2\n      swap4\n      swap6\n      swap8\n      jump\t// out\n        /* \"contracts/RentalContract.sol\":1787:2667  function createRentalContract(... */\n    tag_33:\n        /* \"contracts/RentalContract.sol\":622:623  0 */\n      0x00\n        /* \"contracts/RentalContract.sol\":594:600  owners */\n      0x01\n        /* \"contracts/RentalContract.sol\":594:612  owners[msg.sender] */\n      0x00\n        /* \"contracts/RentalContract.sol\":601:611  msg.sender */\n      caller\n        /* \"contracts/RentalContract.sol\":594:612  owners[msg.sender] */\n      0xffffffffffffffffffffffffffffffffffffffff\n      and\n      0xffffffffffffffffffffffffffffffffffffffff\n      and\n      dup2\n      mstore\n      0x20\n      add\n      swap1\n      dup2\n      mstore\n      0x20\n      add\n      0x00\n      keccak256\n        /* \"contracts/RentalContract.sol\":594:619  owners[msg.sender].length */\n      dup1\n      sload\n      swap1\n      pop\n        /* \"contracts/RentalContract.sol\":594:623  owners[msg.sender].length > 0 */\n      gt\n        /* \"contracts/RentalContract.sol\":586:659  require(owners[msg.sender].length > 0,\"Sadece Mekan sahibi kullanabilir\") */\n      tag_171\n      jumpi\n      mload(0x40)\n      0x08c379a000000000000000000000000000000000000000000000000000000000\n      dup2\n      mstore\n      0x04\n      add\n      tag_172\n      swap1\n      tag_37\n      jump\t// in\n    tag_172:\n      mload(0x40)\n      dup1\n      swap2\n      sub\n      swap1\n      revert\n    tag_171:\n        /* \"contracts/RentalContract.sol\":1971:1991  Rental memory rental */\n      tag_174\n      tag_123\n      jump\t// in\n    tag_174:\n        /* \"contracts/RentalContract.sol\":2010:2019  uint256 i */\n      0x00\n        /* \"contracts/RentalContract.sol\":2005:2240  for (uint256 i = 0; i < owners[msg.sender].length; i++) {... */\n    tag_175:\n        /* \"contracts/RentalContract.sol\":2029:2035  owners */\n      0x01\n        /* \"contracts/RentalContract.sol\":2029:2047  owners[msg.sender] */\n      0x00\n        /* \"contracts/RentalContract.sol\":2036:2046  msg.sender */\n      caller\n        /* \"contracts/RentalContract.sol\":2029:2047  owners[msg.sender] */\n      0xffffffffffffffffffffffffffffffffffffffff\n      and\n      0xffffffffffffffffffffffffffffffffffffffff\n      and\n      dup2\n      mstore\n      0x20\n      add\n      swap1\n      dup2\n      mstore\n      0x20\n      add\n      0x00\n      keccak256\n        /* \"contracts/RentalContract.sol\":2029:2054  owners[msg.sender].length */\n      dup1\n      sload\n      swap1\n      pop\n        /* \"contracts/RentalContract.sol\":2025:2026  i */\n      dup2\n        /* \"contracts/RentalContract.sol\":2025:2054  i < owners[msg.sender].length */\n      lt\n        /* \"contracts/RentalContract.sol\":2005:2240  for (uint256 i = 0; i < owners[msg.sender].length; i++) {... */\n      iszero\n      tag_176\n      jumpi\n        /* \"contracts/RentalContract.sol\":2117:2126  _rentalId */\n      dup5\n        /* \"contracts/RentalContract.sol\":2083:2089  owners */\n      0x01\n        /* \"contracts/RentalContract.sol\":2083:2101  owners[msg.sender] */\n      0x00\n        /* \"contracts/RentalContract.sol\":2090:2100  msg.sender */\n      caller\n        /* \"contracts/RentalContract.sol\":2083:2101  owners[msg.sender] */\n      0xffffffffffffffffffffffffffffffffffffffff\n      and\n      0xffffffffffffffffffffffffffffffffffffffff\n      and\n      dup2\n      mstore\n      0x20\n      add\n      swap1\n      dup2\n      mstore\n      0x20\n      add\n      0x00\n      keccak256\n        /* \"contracts/RentalContract.sol\":2102:2103  i */\n      dup3\n        /* \"contracts/RentalContract.sol\":2083:2104  owners[msg.sender][i] */\n      dup2\n      sload\n      dup2\n      lt\n      tag_178\n      jumpi\n      tag_179\n      tag_50\n      jump\t// in\n    tag_179:\n    tag_178:\n      swap1\n      0x00\n      mstore\n      keccak256(0x00, 0x20)\n      swap1\n      0x04\n      mul\n      add\n        /* \"contracts/RentalContract.sol\":2083:2113  owners[msg.sender][i].rentalId */\n      0x00\n      add\n      sload\n        /* \"contracts/RentalContract.sol\":2083:2126  owners[msg.sender][i].rentalId == _rentalId */\n      sub\n        /* \"contracts/RentalContract.sol\":2079:2226  if (owners[msg.sender][i].rentalId == _rentalId) {... */\n      tag_181\n      jumpi\n        /* \"contracts/RentalContract.sol\":2159:2165  owners */\n      0x01\n        /* \"contracts/RentalContract.sol\":2159:2177  owners[msg.sender] */\n      0x00\n        /* \"contracts/RentalContract.sol\":2166:2176  msg.sender */\n      caller\n        /* \"contracts/RentalContract.sol\":2159:2177  owners[msg.sender] */\n      0xffffffffffffffffffffffffffffffffffffffff\n      and\n      0xffffffffffffffffffffffffffffffffffffffff\n      and\n      dup2\n      mstore\n      0x20\n      add\n      swap1\n      dup2\n      mstore\n      0x20\n      add\n      0x00\n      keccak256\n        /* \"contracts/RentalContract.sol\":2178:2179  i */\n      dup2\n        /* \"contracts/RentalContract.sol\":2159:2180  owners[msg.sender][i] */\n      dup2\n      sload\n      dup2\n      lt\n      tag_182\n      jumpi\n      tag_183\n      tag_50\n      jump\t// in\n    tag_183:\n    tag_182:\n      swap1\n      0x00\n      mstore\n      keccak256(0x00, 0x20)\n      swap1\n      0x04\n      mul\n      add\n        /* \"contracts/RentalContract.sol\":2150:2180  rental = owners[msg.sender][i] */\n      mload(0x40)\n      dup1\n      0x80\n      add\n      0x40\n      mstore\n      swap1\n      dup2\n      0x00\n      dup3\n      add\n      sload\n      dup2\n      mstore\n      0x20\n      add\n      0x01\n      dup3\n      add\n      0x00\n      swap1\n      sload\n      swap1\n      0x0100\n      exp\n      swap1\n      div\n      0xffffffffffffffffffffffffffffffffffffffff\n      and\n      0xffffffffffffffffffffffffffffffffffffffff\n      and\n      0xffffffffffffffffffffffffffffffffffffffff\n      and\n      dup2\n      mstore\n      0x20\n      add\n      0x02\n      dup3\n      add\n      dup1\n      sload\n      tag_185\n      swap1\n      tag_57\n      jump\t// in\n    tag_185:\n      dup1\n      0x1f\n      add\n      0x20\n      dup1\n      swap2\n      div\n      mul\n      0x20\n      add\n      mload(0x40)\n      swap1\n      dup2\n      add\n      0x40\n      mstore\n      dup1\n      swap3\n      swap2\n      swap1\n      dup2\n      dup2\n      mstore\n      0x20\n      add\n      dup3\n      dup1\n      sload\n      tag_186\n      swap1\n      tag_57\n      jump\t// in\n    tag_186:\n      dup1\n      iszero\n      tag_187\n      jumpi\n      dup1\n      0x1f\n      lt\n      tag_188\n      jumpi\n      0x0100\n      dup1\n      dup4\n      sload\n      div\n      mul\n      dup4\n      mstore\n      swap2\n      0x20\n      add\n      swap2\n      jump(tag_187)\n    tag_188:\n      dup3\n      add\n      swap2\n      swap1\n      0x00\n      mstore\n      keccak256(0x00, 0x20)\n      swap1\n    tag_189:\n      dup2\n      sload\n      dup2\n      mstore\n      swap1\n      0x01\n      add\n      swap1\n      0x20\n      add\n      dup1\n      dup4\n      gt\n      tag_189\n      jumpi\n      dup3\n      swap1\n      sub\n      0x1f\n      and\n      dup3\n      add\n      swap2\n    tag_187:\n      pop\n      pop\n      pop\n      pop\n      pop\n      dup2\n      mstore\n      0x20\n      add\n      0x03\n      dup3\n      add\n      0x00\n      swap1\n      sload\n      swap1\n      0x0100\n      exp\n      swap1\n      div\n      0xff\n      and\n      0x01\n      dup2\n      gt\n      iszero\n      tag_190\n      jumpi\n      tag_191\n      tag_64\n      jump\t// in\n    tag_191:\n    tag_190:\n      0x01\n      dup2\n      gt\n      iszero\n      tag_192\n      jumpi\n      tag_193\n      tag_64\n      jump\t// in\n    tag_193:\n    tag_192:\n      dup2\n      mstore\n      pop\n      pop\n      swap2\n      pop\n        /* \"contracts/RentalContract.sol\":2202:2207  break */\n      jump(tag_176)\n        /* \"contracts/RentalContract.sol\":2079:2226  if (owners[msg.sender][i].rentalId == _rentalId) {... */\n    tag_181:\n        /* \"contracts/RentalContract.sol\":2056:2059  i++ */\n      dup1\n      dup1\n      tag_194\n      swap1\n      tag_73\n      jump\t// in\n    tag_194:\n      swap2\n      pop\n      pop\n        /* \"contracts/RentalContract.sol\":2005:2240  for (uint256 i = 0; i < owners[msg.sender].length; i++) {... */\n      jump(tag_175)\n    tag_176:\n      pop\n        /* \"contracts/RentalContract.sol\":2280:2289  _rentalId */\n      dup4\n        /* \"contracts/RentalContract.sol\":2261:2267  rental */\n      dup2\n        /* \"contracts/RentalContract.sol\":2261:2276  rental.rentalId */\n      0x00\n      add\n      mload\n        /* \"contracts/RentalContract.sol\":2261:2289  rental.rentalId == _rentalId */\n      eq\n        /* \"contracts/RentalContract.sol\":2253:2324  require(rental.rentalId == _rentalId,unicode\"Kiralık yer bulunamadı\") */\n      tag_195\n      jumpi\n      mload(0x40)\n      0x08c379a000000000000000000000000000000000000000000000000000000000\n      dup2\n      mstore\n      0x04\n      add\n      tag_196\n      swap1\n      tag_197\n      jump\t// in\n    tag_196:\n      mload(0x40)\n      dup1\n      swap2\n      sub\n      swap1\n      revert\n    tag_195:\n        /* \"contracts/RentalContract.sol\":2339:2377  ContractInformation memory newContract */\n      0x00\n        /* \"contracts/RentalContract.sol\":2380:2598  ContractInformation({... */\n      mload(0x40)\n      dup1\n      0xa0\n      add\n      0x40\n      mstore\n      dup1\n        /* \"contracts/RentalContract.sol\":2424:2430  rental */\n      dup4\n        /* \"contracts/RentalContract.sol\":2380:2598  ContractInformation({... */\n      dup2\n      mstore\n      0x20\n      add\n        /* \"contracts/RentalContract.sol\":2463:2477  _tenantAddress */\n      dup8\n        /* \"contracts/RentalContract.sol\":2380:2598  ContractInformation({... */\n      0xffffffffffffffffffffffffffffffffffffffff\n      and\n      dup2\n      mstore\n      0x20\n      add\n        /* \"contracts/RentalContract.sol\":2506:2516  _startYear */\n      dup6\n        /* \"contracts/RentalContract.sol\":2380:2598  ContractInformation({... */\n      dup2\n      mstore\n      0x20\n      add\n        /* \"contracts/RentalContract.sol\":2543:2551  _endYear */\n      dup5\n        /* \"contracts/RentalContract.sol\":2380:2598  ContractInformation({... */\n      dup2\n      mstore\n      0x20\n      add\n        /* \"contracts/RentalContract.sol\":2579:2583  true */\n      0x01\n        /* \"contracts/RentalContract.sol\":2380:2598  ContractInformation({... */\n      iszero\n      iszero\n      dup2\n      mstore\n      pop\n        /* \"contracts/RentalContract.sol\":2339:2598  ContractInformation memory newContract = ContractInformation({... */\n      swap1\n      pop\n        /* \"contracts/RentalContract.sol\":2613:2626  contractInfos */\n      0x00\n        /* \"contracts/RentalContract.sol\":2613:2638  contractInfos[msg.sender] */\n      dup1\n        /* \"contracts/RentalContract.sol\":2627:2637  msg.sender */\n      caller\n        /* \"contracts/RentalContract.sol\":2613:2638  contractInfos[msg.sender] */\n      0xffffffffffffffffffffffffffffffffffffffff\n      and\n      0xffffffffffffffffffffffffffffffffffffffff\n      and\n      dup2\n      mstore\n      0x20\n      add\n      swap1\n      dup2\n      mstore\n      0x20\n      add\n      0x00\n      keccak256\n        /* \"contracts/RentalContract.sol\":2644:2655  newContract */\n      dup2\n        /* \"contracts/RentalContract.sol\":2613:2656  contractInfos[msg.sender].push(newContract) */\n      swap1\n      dup1\n      0x01\n      dup2\n      sload\n      add\n      dup1\n      dup3\n      sstore\n      dup1\n      swap2\n      pop\n      pop\n      0x01\n      swap1\n      sub\n      swap1\n      0x00\n      mstore\n      keccak256(0x00, 0x20)\n      swap1\n      0x08\n      mul\n      add\n      0x00\n      swap1\n      swap2\n      swap1\n      swap2\n      swap1\n      swap2\n      pop\n      0x00\n      dup3\n      add\n      mload\n      dup2\n      0x00\n      add\n      0x00\n      dup3\n      add\n      mload\n      dup2\n      0x00\n      add\n      sstore\n      0x20\n      dup3\n      add\n      mload\n      dup2\n      0x01\n      add\n      exp(0x0100, 0x00)\n      dup2\n      sload\n      dup2\n      0xffffffffffffffffffffffffffffffffffffffff\n      mul\n      not\n      and\n      swap1\n      dup4\n      0xffffffffffffffffffffffffffffffffffffffff\n      and\n      mul\n      or\n      swap1\n      sstore\n      pop\n      0x40\n      dup3\n      add\n      mload\n      dup2\n      0x02\n      add\n      swap1\n      dup2\n      tag_199\n      swap2\n      swap1\n      tag_105\n      jump\t// in\n    tag_199:\n      pop\n      0x60\n      dup3\n      add\n      mload\n      dup2\n      0x03\n      add\n      exp(0x0100, 0x00)\n      dup2\n      sload\n      dup2\n      0xff\n      mul\n      not\n      and\n      swap1\n      dup4\n      0x01\n      dup2\n      gt\n      iszero\n      tag_200\n      jumpi\n      tag_201\n      tag_64\n      jump\t// in\n    tag_201:\n    tag_200:\n      mul\n      or\n      swap1\n      sstore\n      pop\n      pop\n      pop\n      0x20\n      dup3\n      add\n      mload\n      dup2\n      0x04\n      add\n      exp(0x0100, 0x00)\n      dup2\n      sload\n      dup2\n      0xffffffffffffffffffffffffffffffffffffffff\n      mul\n      not\n      and\n      swap1\n      dup4\n      0xffffffffffffffffffffffffffffffffffffffff\n      and\n      mul\n      or\n      swap1\n      sstore\n      pop\n      0x40\n      dup3\n      add\n      mload\n      dup2\n      0x05\n      add\n      sstore\n      0x60\n      dup3\n      add\n      mload\n      dup2\n      0x06\n      add\n      sstore\n      0x80\n      dup3\n      add\n      mload\n      dup2\n      0x07\n      add\n      exp(0x0100, 0x00)\n      dup2\n      sload\n      dup2\n      0xff\n      mul\n      not\n      and\n      swap1\n      dup4\n      iszero\n      iszero\n      mul\n      or\n      swap1\n      sstore\n      pop\n      pop\n      pop\n        /* \"contracts/RentalContract.sol\":1957:2667  {... */\n      pop\n      pop\n        /* \"contracts/RentalContract.sol\":1787:2667  function createRentalContract(... */\n      pop\n      pop\n      pop\n      pop\n      jump\t// out\n    tag_44:\n      mload(0x40)\n      dup1\n      0xa0\n      add\n      0x40\n      mstore\n      dup1\n      tag_202\n      tag_123\n      jump\t// in\n    tag_202:\n      dup2\n      mstore\n      0x20\n      add\n      and(0xffffffffffffffffffffffffffffffffffffffff, 0x00)\n      dup2\n      mstore\n      0x20\n      add\n      0x00\n      dup2\n      mstore\n      0x20\n      add\n      0x00\n      dup2\n      mstore\n      0x20\n      add\n      iszero(iszero(0x00))\n      dup2\n      mstore\n      pop\n      swap1\n      jump\t// out\n    tag_71:\n      pop\n      dup1\n      sload\n      tag_203\n      swap1\n      tag_57\n      jump\t// in\n    tag_203:\n      0x00\n      dup3\n      sstore\n      dup1\n      0x1f\n      lt\n      tag_205\n      jumpi\n      pop\n      jump(tag_204)\n    tag_205:\n      0x1f\n      add\n      0x20\n      swap1\n      div\n      swap1\n      0x00\n      mstore\n      keccak256(0x00, 0x20)\n      swap1\n      dup2\n      add\n      swap1\n      tag_206\n      swap2\n      swap1\n      tag_207\n      jump\t// in\n    tag_206:\n    tag_204:\n      pop\n      jump\t// out\n    tag_123:\n      mload(0x40)\n      dup1\n      0x80\n      add\n      0x40\n      mstore\n      dup1\n      0x00\n      dup2\n      mstore\n      0x20\n      add\n      and(0xffffffffffffffffffffffffffffffffffffffff, 0x00)\n      dup2\n      mstore\n      0x20\n      add\n      0x60\n      dup2\n      mstore\n      0x20\n      add\n      0x00\n      0x01\n      dup2\n      gt\n      iszero\n      tag_208\n      jumpi\n      tag_209\n      tag_64\n      jump\t// in\n    tag_209:\n    tag_208:\n      dup2\n      mstore\n      pop\n      swap1\n      jump\t// out\n    tag_207:\n    tag_210:\n      dup1\n      dup3\n      gt\n      iszero\n      tag_211\n      jumpi\n      0x00\n      dup2\n      0x00\n      swap1\n      sstore\n      pop\n      0x01\n      add\n      jump(tag_210)\n    tag_211:\n      pop\n      swap1\n      jump\t// out\n        /* \"#utility.yul\":7:84   */\n    tag_212:\n        /* \"#utility.yul\":44:51   */\n      0x00\n        /* \"#utility.yul\":73:78   */\n      dup2\n        /* \"#utility.yul\":62:78   */\n      swap1\n      pop\n        /* \"#utility.yul\":7:84   */\n      swap2\n      swap1\n      pop\n      jump\t// out\n        /* \"#utility.yul\":90:208   */\n    tag_213:\n        /* \"#utility.yul\":177:201   */\n      tag_294\n        /* \"#utility.yul\":195:200   */\n      dup2\n        /* \"#utility.yul\":177:201   */\n      tag_212\n      jump\t// in\n    tag_294:\n        /* \"#utility.yul\":172:175   */\n      dup3\n        /* \"#utility.yul\":165:202   */\n      mstore\n        /* \"#utility.yul\":90:208   */\n      pop\n      pop\n      jump\t// out\n        /* \"#utility.yul\":214:436   */\n    tag_12:\n        /* \"#utility.yul\":307:311   */\n      0x00\n        /* \"#utility.yul\":345:347   */\n      0x20\n        /* \"#utility.yul\":334:343   */\n      dup3\n        /* \"#utility.yul\":330:348   */\n      add\n        /* \"#utility.yul\":322:348   */\n      swap1\n      pop\n        /* \"#utility.yul\":358:429   */\n      tag_296\n        /* \"#utility.yul\":426:427   */\n      0x00\n        /* \"#utility.yul\":415:424   */\n      dup4\n        /* \"#utility.yul\":411:428   */\n      add\n        /* \"#utility.yul\":402:408   */\n      dup5\n        /* \"#utility.yul\":358:429   */\n      tag_213\n      jump\t// in\n    tag_296:\n        /* \"#utility.yul\":214:436   */\n      swap3\n      swap2\n      pop\n      pop\n      jump\t// out\n        /* \"#utility.yul\":442:517   */\n    tag_214:\n        /* \"#utility.yul\":475:481   */\n      0x00\n        /* \"#utility.yul\":508:510   */\n      0x40\n        /* \"#utility.yul\":502:511   */\n      mload\n        /* \"#utility.yul\":492:511   */\n      swap1\n      pop\n        /* \"#utility.yul\":442:517   */\n      swap1\n      jump\t// out\n        /* \"#utility.yul\":523:640   */\n    tag_215:\n        /* \"#utility.yul\":632:633   */\n      0x00\n        /* \"#utility.yul\":629:630   */\n      dup1\n        /* \"#utility.yul\":622:634   */\n      revert\n        /* \"#utility.yul\":646:763   */\n    tag_216:\n        /* \"#utility.yul\":755:756   */\n      0x00\n        /* \"#utility.yul\":752:753   */\n      dup1\n        /* \"#utility.yul\":745:757   */\n      revert\n        /* \"#utility.yul\":769:891   */\n    tag_217:\n        /* \"#utility.yul\":842:866   */\n      tag_301\n        /* \"#utility.yul\":860:865   */\n      dup2\n        /* \"#utility.yul\":842:866   */\n      tag_212\n      jump\t// in\n    tag_301:\n        /* \"#utility.yul\":835:840   */\n      dup2\n        /* \"#utility.yul\":832:867   */\n      eq\n        /* \"#utility.yul\":822:885   */\n      tag_302\n      jumpi\n        /* \"#utility.yul\":881:882   */\n      0x00\n        /* \"#utility.yul\":878:879   */\n      dup1\n        /* \"#utility.yul\":871:883   */\n      revert\n        /* \"#utility.yul\":822:885   */\n    tag_302:\n        /* \"#utility.yul\":769:891   */\n      pop\n      jump\t// out\n        /* \"#utility.yul\":897:1036   */\n    tag_218:\n        /* \"#utility.yul\":943:948   */\n      0x00\n        /* \"#utility.yul\":981:987   */\n      dup2\n        /* \"#utility.yul\":968:988   */\n      calldataload\n        /* \"#utility.yul\":959:988   */\n      swap1\n      pop\n        /* \"#utility.yul\":997:1030   */\n      tag_304\n        /* \"#utility.yul\":1024:1029   */\n      dup2\n        /* \"#utility.yul\":997:1030   */\n      tag_217\n      jump\t// in\n    tag_304:\n        /* \"#utility.yul\":897:1036   */\n      swap3\n      swap2\n      pop\n      pop\n      jump\t// out\n        /* \"#utility.yul\":1042:1371   */\n    tag_15:\n        /* \"#utility.yul\":1101:1107   */\n      0x00\n        /* \"#utility.yul\":1150:1152   */\n      0x20\n        /* \"#utility.yul\":1138:1147   */\n      dup3\n        /* \"#utility.yul\":1129:1136   */\n      dup5\n        /* \"#utility.yul\":1125:1148   */\n      sub\n        /* \"#utility.yul\":1121:1153   */\n      slt\n        /* \"#utility.yul\":1118:1237   */\n      iszero\n      tag_306\n      jumpi\n        /* \"#utility.yul\":1156:1235   */\n      tag_307\n      tag_215\n      jump\t// in\n    tag_307:\n        /* \"#utility.yul\":1118:1237   */\n    tag_306:\n        /* \"#utility.yul\":1276:1277   */\n      0x00\n        /* \"#utility.yul\":1301:1354   */\n      tag_308\n        /* \"#utility.yul\":1346:1353   */\n      dup5\n        /* \"#utility.yul\":1337:1343   */\n      dup3\n        /* \"#utility.yul\":1326:1335   */\n      dup6\n        /* \"#utility.yul\":1322:1344   */\n      add\n        /* \"#utility.yul\":1301:1354   */\n      tag_218\n      jump\t// in\n    tag_308:\n        /* \"#utility.yul\":1291:1354   */\n      swap2\n      pop\n        /* \"#utility.yul\":1247:1364   */\n      pop\n        /* \"#utility.yul\":1042:1371   */\n      swap3\n      swap2\n      pop\n      pop\n      jump\t// out\n        /* \"#utility.yul\":1377:1494   */\n    tag_219:\n        /* \"#utility.yul\":1486:1487   */\n      0x00\n        /* \"#utility.yul\":1483:1484   */\n      dup1\n        /* \"#utility.yul\":1476:1488   */\n      revert\n        /* \"#utility.yul\":1500:1617   */\n    tag_220:\n        /* \"#utility.yul\":1609:1610   */\n      0x00\n        /* \"#utility.yul\":1606:1607   */\n      dup1\n        /* \"#utility.yul\":1599:1611   */\n      revert\n        /* \"#utility.yul\":1623:1725   */\n    tag_221:\n        /* \"#utility.yul\":1664:1670   */\n      0x00\n        /* \"#utility.yul\":1715:1717   */\n      0x1f\n        /* \"#utility.yul\":1711:1718   */\n      not\n        /* \"#utility.yul\":1706:1708   */\n      0x1f\n        /* \"#utility.yul\":1699:1704   */\n      dup4\n        /* \"#utility.yul\":1695:1709   */\n      add\n        /* \"#utility.yul\":1691:1719   */\n      and\n        /* \"#utility.yul\":1681:1719   */\n      swap1\n      pop\n        /* \"#utility.yul\":1623:1725   */\n      swap2\n      swap1\n      pop\n      jump\t// out\n        /* \"#utility.yul\":1731:1911   */\n    tag_222:\n        /* \"#utility.yul\":1779:1856   */\n      0x4e487b7100000000000000000000000000000000000000000000000000000000\n        /* \"#utility.yul\":1776:1777   */\n      0x00\n        /* \"#utility.yul\":1769:1857   */\n      mstore\n        /* \"#utility.yul\":1876:1880   */\n      0x41\n        /* \"#utility.yul\":1873:1874   */\n      0x04\n        /* \"#utility.yul\":1866:1881   */\n      mstore\n        /* \"#utility.yul\":1900:1904   */\n      0x24\n        /* \"#utility.yul\":1897:1898   */\n      0x00\n        /* \"#utility.yul\":1890:1905   */\n      revert\n        /* \"#utility.yul\":1917:2198   */\n    tag_223:\n        /* \"#utility.yul\":2000:2027   */\n      tag_314\n        /* \"#utility.yul\":2022:2026   */\n      dup3\n        /* \"#utility.yul\":2000:2027   */\n      tag_221\n      jump\t// in\n    tag_314:\n        /* \"#utility.yul\":1992:1998   */\n      dup2\n        /* \"#utility.yul\":1988:2028   */\n      add\n        /* \"#utility.yul\":2130:2136   */\n      dup2\n        /* \"#utility.yul\":2118:2128   */\n      dup2\n        /* \"#utility.yul\":2115:2137   */\n      lt\n        /* \"#utility.yul\":2094:2112   */\n      0xffffffffffffffff\n        /* \"#utility.yul\":2082:2092   */\n      dup3\n        /* \"#utility.yul\":2079:2113   */\n      gt\n        /* \"#utility.yul\":2076:2138   */\n      or\n        /* \"#utility.yul\":2073:2161   */\n      iszero\n      tag_315\n      jumpi\n        /* \"#utility.yul\":2141:2159   */\n      tag_316\n      tag_222\n      jump\t// in\n    tag_316:\n        /* \"#utility.yul\":2073:2161   */\n    tag_315:\n        /* \"#utility.yul\":2181:2191   */\n      dup1\n        /* \"#utility.yul\":2177:2179   */\n      0x40\n        /* \"#utility.yul\":2170:2192   */\n      mstore\n        /* \"#utility.yul\":1960:2198   */\n      pop\n        /* \"#utility.yul\":1917:2198   */\n      pop\n      pop\n      jump\t// out\n        /* \"#utility.yul\":2204:2333   */\n    tag_224:\n        /* \"#utility.yul\":2238:2244   */\n      0x00\n        /* \"#utility.yul\":2265:2285   */\n      tag_318\n      tag_214\n      jump\t// in\n    tag_318:\n        /* \"#utility.yul\":2255:2285   */\n      swap1\n      pop\n        /* \"#utility.yul\":2294:2327   */\n      tag_319\n        /* \"#utility.yul\":2322:2326   */\n      dup3\n        /* \"#utility.yul\":2314:2320   */\n      dup3\n        /* \"#utility.yul\":2294:2327   */\n      tag_223\n      jump\t// in\n    tag_319:\n        /* \"#utility.yul\":2204:2333   */\n      swap2\n      swap1\n      pop\n      jump\t// out\n        /* \"#utility.yul\":2339:2647   */\n    tag_225:\n        /* \"#utility.yul\":2401:2405   */\n      0x00\n        /* \"#utility.yul\":2491:2509   */\n      0xffffffffffffffff\n        /* \"#utility.yul\":2483:2489   */\n      dup3\n        /* \"#utility.yul\":2480:2510   */\n      gt\n        /* \"#utility.yul\":2477:2533   */\n      iszero\n      tag_321\n      jumpi\n        /* \"#utility.yul\":2513:2531   */\n      tag_322\n      tag_222\n      jump\t// in\n    tag_322:\n        /* \"#utility.yul\":2477:2533   */\n    tag_321:\n        /* \"#utility.yul\":2551:2580   */\n      tag_323\n        /* \"#utility.yul\":2573:2579   */\n      dup3\n        /* \"#utility.yul\":2551:2580   */\n      tag_221\n      jump\t// in\n    tag_323:\n        /* \"#utility.yul\":2543:2580   */\n      swap1\n      pop\n        /* \"#utility.yul\":2635:2639   */\n      0x20\n        /* \"#utility.yul\":2629:2633   */\n      dup2\n        /* \"#utility.yul\":2625:2640   */\n      add\n        /* \"#utility.yul\":2617:2640   */\n      swap1\n      pop\n        /* \"#utility.yul\":2339:2647   */\n      swap2\n      swap1\n      pop\n      jump\t// out\n        /* \"#utility.yul\":2653:2799   */\n    tag_226:\n        /* \"#utility.yul\":2750:2756   */\n      dup3\n        /* \"#utility.yul\":2745:2748   */\n      dup2\n        /* \"#utility.yul\":2740:2743   */\n      dup4\n        /* \"#utility.yul\":2727:2757   */\n      calldatacopy\n        /* \"#utility.yul\":2791:2792   */\n      0x00\n        /* \"#utility.yul\":2782:2788   */\n      dup4\n        /* \"#utility.yul\":2777:2780   */\n      dup4\n        /* \"#utility.yul\":2773:2789   */\n      add\n        /* \"#utility.yul\":2766:2793   */\n      mstore\n        /* \"#utility.yul\":2653:2799   */\n      pop\n      pop\n      pop\n      jump\t// out\n        /* \"#utility.yul\":2805:3230   */\n    tag_227:\n        /* \"#utility.yul\":2883:2888   */\n      0x00\n        /* \"#utility.yul\":2908:2974   */\n      tag_326\n        /* \"#utility.yul\":2924:2973   */\n      tag_327\n        /* \"#utility.yul\":2966:2972   */\n      dup5\n        /* \"#utility.yul\":2924:2973   */\n      tag_225\n      jump\t// in\n    tag_327:\n        /* \"#utility.yul\":2908:2974   */\n      tag_224\n      jump\t// in\n    tag_326:\n        /* \"#utility.yul\":2899:2974   */\n      swap1\n      pop\n        /* \"#utility.yul\":2997:3003   */\n      dup3\n        /* \"#utility.yul\":2990:2995   */\n      dup2\n        /* \"#utility.yul\":2983:3004   */\n      mstore\n        /* \"#utility.yul\":3035:3039   */\n      0x20\n        /* \"#utility.yul\":3028:3033   */\n      dup2\n        /* \"#utility.yul\":3024:3040   */\n      add\n        /* \"#utility.yul\":3073:3076   */\n      dup5\n        /* \"#utility.yul\":3064:3070   */\n      dup5\n        /* \"#utility.yul\":3059:3062   */\n      dup5\n        /* \"#utility.yul\":3055:3071   */\n      add\n        /* \"#utility.yul\":3052:3077   */\n      gt\n        /* \"#utility.yul\":3049:3161   */\n      iszero\n      tag_328\n      jumpi\n        /* \"#utility.yul\":3080:3159   */\n      tag_329\n      tag_220\n      jump\t// in\n    tag_329:\n        /* \"#utility.yul\":3049:3161   */\n    tag_328:\n        /* \"#utility.yul\":3170:3224   */\n      tag_330\n        /* \"#utility.yul\":3217:3223   */\n      dup5\n        /* \"#utility.yul\":3212:3215   */\n      dup3\n        /* \"#utility.yul\":3207:3210   */\n      dup6\n        /* \"#utility.yul\":3170:3224   */\n      tag_226\n      jump\t// in\n    tag_330:\n        /* \"#utility.yul\":2889:3230   */\n      pop\n        /* \"#utility.yul\":2805:3230   */\n      swap4\n      swap3\n      pop\n      pop\n      pop\n      jump\t// out\n        /* \"#utility.yul\":3250:3590   */\n    tag_228:\n        /* \"#utility.yul\":3306:3311   */\n      0x00\n        /* \"#utility.yul\":3355:3358   */\n      dup3\n        /* \"#utility.yul\":3348:3352   */\n      0x1f\n        /* \"#utility.yul\":3340:3346   */\n      dup4\n        /* \"#utility.yul\":3336:3353   */\n      add\n        /* \"#utility.yul\":3332:3359   */\n      slt\n        /* \"#utility.yul\":3322:3444   */\n      tag_332\n      jumpi\n        /* \"#utility.yul\":3363:3442   */\n      tag_333\n      tag_219\n      jump\t// in\n    tag_333:\n        /* \"#utility.yul\":3322:3444   */\n    tag_332:\n        /* \"#utility.yul\":3480:3486   */\n      dup2\n        /* \"#utility.yul\":3467:3487   */\n      calldataload\n        /* \"#utility.yul\":3505:3584   */\n      tag_334\n        /* \"#utility.yul\":3580:3583   */\n      dup5\n        /* \"#utility.yul\":3572:3578   */\n      dup3\n        /* \"#utility.yul\":3565:3569   */\n      0x20\n        /* \"#utility.yul\":3557:3563   */\n      dup7\n        /* \"#utility.yul\":3553:3570   */\n      add\n        /* \"#utility.yul\":3505:3584   */\n      tag_227\n      jump\t// in\n    tag_334:\n        /* \"#utility.yul\":3496:3584   */\n      swap2\n      pop\n        /* \"#utility.yul\":3312:3590   */\n      pop\n        /* \"#utility.yul\":3250:3590   */\n      swap3\n      swap2\n      pop\n      pop\n      jump\t// out\n        /* \"#utility.yul\":3596:4575   */\n    tag_19:\n        /* \"#utility.yul\":3693:3699   */\n      0x00\n        /* \"#utility.yul\":3701:3707   */\n      dup1\n        /* \"#utility.yul\":3709:3715   */\n      0x00\n        /* \"#utility.yul\":3758:3760   */\n      0x60\n        /* \"#utility.yul\":3746:3755   */\n      dup5\n        /* \"#utility.yul\":3737:3744   */\n      dup7\n        /* \"#utility.yul\":3733:3756   */\n      sub\n        /* \"#utility.yul\":3729:3761   */\n      slt\n        /* \"#utility.yul\":3726:3845   */\n      iszero\n      tag_336\n      jumpi\n        /* \"#utility.yul\":3764:3843   */\n      tag_337\n      tag_215\n      jump\t// in\n    tag_337:\n        /* \"#utility.yul\":3726:3845   */\n    tag_336:\n        /* \"#utility.yul\":3884:3885   */\n      0x00\n        /* \"#utility.yul\":3909:3962   */\n      tag_338\n        /* \"#utility.yul\":3954:3961   */\n      dup7\n        /* \"#utility.yul\":3945:3951   */\n      dup3\n        /* \"#utility.yul\":3934:3943   */\n      dup8\n        /* \"#utility.yul\":3930:3952   */\n      add\n        /* \"#utility.yul\":3909:3962   */\n      tag_218\n      jump\t// in\n    tag_338:\n        /* \"#utility.yul\":3899:3962   */\n      swap4\n      pop\n        /* \"#utility.yul\":3855:3972   */\n      pop\n        /* \"#utility.yul\":4039:4041   */\n      0x20\n        /* \"#utility.yul\":4028:4037   */\n      dup5\n        /* \"#utility.yul\":4024:4042   */\n      add\n        /* \"#utility.yul\":4011:4043   */\n      calldataload\n        /* \"#utility.yul\":4070:4088   */\n      0xffffffffffffffff\n        /* \"#utility.yul\":4062:4068   */\n      dup2\n        /* \"#utility.yul\":4059:4089   */\n      gt\n        /* \"#utility.yul\":4056:4173   */\n      iszero\n      tag_339\n      jumpi\n        /* \"#utility.yul\":4092:4171   */\n      tag_340\n      tag_216\n      jump\t// in\n    tag_340:\n        /* \"#utility.yul\":4056:4173   */\n    tag_339:\n        /* \"#utility.yul\":4197:4260   */\n      tag_341\n        /* \"#utility.yul\":4252:4259   */\n      dup7\n        /* \"#utility.yul\":4243:4249   */\n      dup3\n        /* \"#utility.yul\":4232:4241   */\n      dup8\n        /* \"#utility.yul\":4228:4250   */\n      add\n        /* \"#utility.yul\":4197:4260   */\n      tag_228\n      jump\t// in\n    tag_341:\n        /* \"#utility.yul\":4187:4260   */\n      swap3\n      pop\n        /* \"#utility.yul\":3982:4270   */\n      pop\n        /* \"#utility.yul\":4337:4339   */\n      0x40\n        /* \"#utility.yul\":4326:4335   */\n      dup5\n        /* \"#utility.yul\":4322:4340   */\n      add\n        /* \"#utility.yul\":4309:4341   */\n      calldataload\n        /* \"#utility.yul\":4368:4386   */\n      0xffffffffffffffff\n        /* \"#utility.yul\":4360:4366   */\n      dup2\n        /* \"#utility.yul\":4357:4387   */\n      gt\n        /* \"#utility.yul\":4354:4471   */\n      iszero\n      tag_342\n      jumpi\n        /* \"#utility.yul\":4390:4469   */\n      tag_343\n      tag_216\n      jump\t// in\n    tag_343:\n        /* \"#utility.yul\":4354:4471   */\n    tag_342:\n        /* \"#utility.yul\":4495:4558   */\n      tag_344\n        /* \"#utility.yul\":4550:4557   */\n      dup7\n        /* \"#utility.yul\":4541:4547   */\n      dup3\n        /* \"#utility.yul\":4530:4539   */\n      dup8\n        /* \"#utility.yul\":4526:4548   */\n      add\n        /* \"#utility.yul\":4495:4558   */\n      tag_228\n      jump\t// in\n    tag_344:\n        /* \"#utility.yul\":4485:4558   */\n      swap2\n      pop\n        /* \"#utility.yul\":4280:4568   */\n      pop\n        /* \"#utility.yul\":3596:4575   */\n      swap3\n      pop\n      swap3\n      pop\n      swap3\n      jump\t// out\n        /* \"#utility.yul\":4581:4717   */\n    tag_229:\n        /* \"#utility.yul\":4670:4676   */\n      0x00\n        /* \"#utility.yul\":4704:4709   */\n      dup2\n        /* \"#utility.yul\":4698:4710   */\n      mload\n        /* \"#utility.yul\":4688:4710   */\n      swap1\n      pop\n        /* \"#utility.yul\":4581:4717   */\n      swap2\n      swap1\n      pop\n      jump\t// out\n        /* \"#utility.yul\":4723:4929   */\n    tag_230:\n        /* \"#utility.yul\":4844:4855   */\n      0x00\n        /* \"#utility.yul\":4878:4884   */\n      dup3\n        /* \"#utility.yul\":4873:4876   */\n      dup3\n        /* \"#utility.yul\":4866:4885   */\n      mstore\n        /* \"#utility.yul\":4918:4922   */\n      0x20\n        /* \"#utility.yul\":4913:4916   */\n      dup3\n        /* \"#utility.yul\":4909:4923   */\n      add\n        /* \"#utility.yul\":4894:4923   */\n      swap1\n      pop\n        /* \"#utility.yul\":4723:4929   */\n      swap3\n      swap2\n      pop\n      pop\n      jump\t// out\n        /* \"#utility.yul\":4935:5089   */\n    tag_231:\n        /* \"#utility.yul\":5024:5028   */\n      0x00\n        /* \"#utility.yul\":5047:5050   */\n      dup2\n        /* \"#utility.yul\":5039:5050   */\n      swap1\n      pop\n        /* \"#utility.yul\":5077:5081   */\n      0x20\n        /* \"#utility.yul\":5072:5075   */\n      dup3\n        /* \"#utility.yul\":5068:5082   */\n      add\n        /* \"#utility.yul\":5060:5082   */\n      swap1\n      pop\n        /* \"#utility.yul\":4935:5089   */\n      swap2\n      swap1\n      pop\n      jump\t// out\n        /* \"#utility.yul\":5095:5203   */\n    tag_232:\n        /* \"#utility.yul\":5172:5196   */\n      tag_349\n        /* \"#utility.yul\":5190:5195   */\n      dup2\n        /* \"#utility.yul\":5172:5196   */\n      tag_212\n      jump\t// in\n    tag_349:\n        /* \"#utility.yul\":5167:5170   */\n      dup3\n        /* \"#utility.yul\":5160:5197   */\n      mstore\n        /* \"#utility.yul\":5095:5203   */\n      pop\n      pop\n      jump\t// out\n        /* \"#utility.yul\":5209:5335   */\n    tag_233:\n        /* \"#utility.yul\":5246:5253   */\n      0x00\n        /* \"#utility.yul\":5286:5328   */\n      0xffffffffffffffffffffffffffffffffffffffff\n        /* \"#utility.yul\":5279:5284   */\n      dup3\n        /* \"#utility.yul\":5275:5329   */\n      and\n        /* \"#utility.yul\":5264:5329   */\n      swap1\n      pop\n        /* \"#utility.yul\":5209:5335   */\n      swap2\n      swap1\n      pop\n      jump\t// out\n        /* \"#utility.yul\":5341:5437   */\n    tag_234:\n        /* \"#utility.yul\":5378:5385   */\n      0x00\n        /* \"#utility.yul\":5407:5431   */\n      tag_352\n        /* \"#utility.yul\":5425:5430   */\n      dup3\n        /* \"#utility.yul\":5407:5431   */\n      tag_233\n      jump\t// in\n    tag_352:\n        /* \"#utility.yul\":5396:5431   */\n      swap1\n      pop\n        /* \"#utility.yul\":5341:5437   */\n      swap2\n      swap1\n      pop\n      jump\t// out\n        /* \"#utility.yul\":5443:5551   */\n    tag_235:\n        /* \"#utility.yul\":5520:5544   */\n      tag_354\n        /* \"#utility.yul\":5538:5543   */\n      dup2\n        /* \"#utility.yul\":5520:5544   */\n      tag_234\n      jump\t// in\n    tag_354:\n        /* \"#utility.yul\":5515:5518   */\n      dup3\n        /* \"#utility.yul\":5508:5545   */\n      mstore\n        /* \"#utility.yul\":5443:5551   */\n      pop\n      pop\n      jump\t// out\n        /* \"#utility.yul\":5557:5656   */\n    tag_236:\n        /* \"#utility.yul\":5609:5615   */\n      0x00\n        /* \"#utility.yul\":5643:5648   */\n      dup2\n        /* \"#utility.yul\":5637:5649   */\n      mload\n        /* \"#utility.yul\":5627:5649   */\n      swap1\n      pop\n        /* \"#utility.yul\":5557:5656   */\n      swap2\n      swap1\n      pop\n      jump\t// out\n        /* \"#utility.yul\":5662:5821   */\n    tag_237:\n        /* \"#utility.yul\":5736:5747   */\n      0x00\n        /* \"#utility.yul\":5770:5776   */\n      dup3\n        /* \"#utility.yul\":5765:5768   */\n      dup3\n        /* \"#utility.yul\":5758:5777   */\n      mstore\n        /* \"#utility.yul\":5810:5814   */\n      0x20\n        /* \"#utility.yul\":5805:5808   */\n      dup3\n        /* \"#utility.yul\":5801:5815   */\n      add\n        /* \"#utility.yul\":5786:5815   */\n      swap1\n      pop\n        /* \"#utility.yul\":5662:5821   */\n      swap3\n      swap2\n      pop\n      pop\n      jump\t// out\n        /* \"#utility.yul\":5827:6073   */\n    tag_238:\n        /* \"#utility.yul\":5908:5909   */\n      0x00\n        /* \"#utility.yul\":5918:6031   */\n    tag_358:\n        /* \"#utility.yul\":5932:5938   */\n      dup4\n        /* \"#utility.yul\":5929:5930   */\n      dup2\n        /* \"#utility.yul\":5926:5939   */\n      lt\n        /* \"#utility.yul\":5918:6031   */\n      iszero\n      tag_360\n      jumpi\n        /* \"#utility.yul\":6017:6018   */\n      dup1\n        /* \"#utility.yul\":6012:6015   */\n      dup3\n        /* \"#utility.yul\":6008:6019   */\n      add\n        /* \"#utility.yul\":6002:6020   */\n      mload\n        /* \"#utility.yul\":5998:5999   */\n      dup2\n        /* \"#utility.yul\":5993:5996   */\n      dup5\n        /* \"#utility.yul\":5989:6000   */\n      add\n        /* \"#utility.yul\":5982:6021   */\n      mstore\n        /* \"#utility.yul\":5954:5956   */\n      0x20\n        /* \"#utility.yul\":5951:5952   */\n      dup2\n        /* \"#utility.yul\":5947:5957   */\n      add\n        /* \"#utility.yul\":5942:5957   */\n      swap1\n      pop\n        /* \"#utility.yul\":5918:6031   */\n      jump(tag_358)\n    tag_360:\n        /* \"#utility.yul\":6065:6066   */\n      0x00\n        /* \"#utility.yul\":6056:6062   */\n      dup5\n        /* \"#utility.yul\":6051:6054   */\n      dup5\n        /* \"#utility.yul\":6047:6063   */\n      add\n        /* \"#utility.yul\":6040:6067   */\n      mstore\n        /* \"#utility.yul\":5889:6073   */\n      pop\n        /* \"#utility.yul\":5827:6073   */\n      pop\n      pop\n      pop\n      jump\t// out\n        /* \"#utility.yul\":6079:6436   */\n    tag_239:\n        /* \"#utility.yul\":6157:6160   */\n      0x00\n        /* \"#utility.yul\":6185:6224   */\n      tag_362\n        /* \"#utility.yul\":6218:6223   */\n      dup3\n        /* \"#utility.yul\":6185:6224   */\n      tag_236\n      jump\t// in\n    tag_362:\n        /* \"#utility.yul\":6240:6301   */\n      tag_363\n        /* \"#utility.yul\":6294:6300   */\n      dup2\n        /* \"#utility.yul\":6289:6292   */\n      dup6\n        /* \"#utility.yul\":6240:6301   */\n      tag_237\n      jump\t// in\n    tag_363:\n        /* \"#utility.yul\":6233:6301   */\n      swap4\n      pop\n        /* \"#utility.yul\":6310:6375   */\n      tag_364\n        /* \"#utility.yul\":6368:6374   */\n      dup2\n        /* \"#utility.yul\":6363:6366   */\n      dup6\n        /* \"#utility.yul\":6356:6360   */\n      0x20\n        /* \"#utility.yul\":6349:6354   */\n      dup7\n        /* \"#utility.yul\":6345:6361   */\n      add\n        /* \"#utility.yul\":6310:6375   */\n      tag_238\n      jump\t// in\n    tag_364:\n        /* \"#utility.yul\":6400:6429   */\n      tag_365\n        /* \"#utility.yul\":6422:6428   */\n      dup2\n        /* \"#utility.yul\":6400:6429   */\n      tag_221\n      jump\t// in\n    tag_365:\n        /* \"#utility.yul\":6395:6398   */\n      dup5\n        /* \"#utility.yul\":6391:6430   */\n      add\n        /* \"#utility.yul\":6384:6430   */\n      swap2\n      pop\n        /* \"#utility.yul\":6161:6436   */\n      pop\n        /* \"#utility.yul\":6079:6436   */\n      swap3\n      swap2\n      pop\n      pop\n      jump\t// out\n        /* \"#utility.yul\":6442:6622   */\n    tag_64:\n        /* \"#utility.yul\":6490:6567   */\n      0x4e487b7100000000000000000000000000000000000000000000000000000000\n        /* \"#utility.yul\":6487:6488   */\n      0x00\n        /* \"#utility.yul\":6480:6568   */\n      mstore\n        /* \"#utility.yul\":6587:6591   */\n      0x21\n        /* \"#utility.yul\":6584:6585   */\n      0x04\n        /* \"#utility.yul\":6577:6592   */\n      mstore\n        /* \"#utility.yul\":6611:6615   */\n      0x24\n        /* \"#utility.yul\":6608:6609   */\n      0x00\n        /* \"#utility.yul\":6601:6616   */\n      revert\n        /* \"#utility.yul\":6628:6747   */\n    tag_240:\n        /* \"#utility.yul\":6715:6716   */\n      0x02\n        /* \"#utility.yul\":6708:6713   */\n      dup2\n        /* \"#utility.yul\":6705:6717   */\n      lt\n        /* \"#utility.yul\":6695:6741   */\n      tag_368\n      jumpi\n        /* \"#utility.yul\":6721:6739   */\n      tag_369\n      tag_64\n      jump\t// in\n    tag_369:\n        /* \"#utility.yul\":6695:6741   */\n    tag_368:\n        /* \"#utility.yul\":6628:6747   */\n      pop\n      jump\t// out\n        /* \"#utility.yul\":6753:6892   */\n    tag_241:\n        /* \"#utility.yul\":6804:6811   */\n      0x00\n        /* \"#utility.yul\":6833:6838   */\n      dup2\n        /* \"#utility.yul\":6822:6838   */\n      swap1\n      pop\n        /* \"#utility.yul\":6839:6886   */\n      tag_371\n        /* \"#utility.yul\":6880:6885   */\n      dup3\n        /* \"#utility.yul\":6839:6886   */\n      tag_240\n      jump\t// in\n    tag_371:\n        /* \"#utility.yul\":6753:6892   */\n      swap2\n      swap1\n      pop\n      jump\t// out\n        /* \"#utility.yul\":6898:7037   */\n    tag_242:\n        /* \"#utility.yul\":6960:6969   */\n      0x00\n        /* \"#utility.yul\":6993:7031   */\n      tag_373\n        /* \"#utility.yul\":7025:7030   */\n      dup3\n        /* \"#utility.yul\":6993:7031   */\n      tag_241\n      jump\t// in\n    tag_373:\n        /* \"#utility.yul\":6980:7031   */\n      swap1\n      pop\n        /* \"#utility.yul\":6898:7037   */\n      swap2\n      swap1\n      pop\n      jump\t// out\n        /* \"#utility.yul\":7043:7188   */\n    tag_243:\n        /* \"#utility.yul\":7132:7181   */\n      tag_375\n        /* \"#utility.yul\":7175:7180   */\n      dup2\n        /* \"#utility.yul\":7132:7181   */\n      tag_242\n      jump\t// in\n    tag_375:\n        /* \"#utility.yul\":7127:7130   */\n      dup3\n        /* \"#utility.yul\":7120:7182   */\n      mstore\n        /* \"#utility.yul\":7043:7188   */\n      pop\n      pop\n      jump\t// out\n        /* \"#utility.yul\":7262:8234   */\n    tag_244:\n        /* \"#utility.yul\":7365:7368   */\n      0x00\n        /* \"#utility.yul\":7401:7405   */\n      0x80\n        /* \"#utility.yul\":7396:7399   */\n      dup4\n        /* \"#utility.yul\":7392:7406   */\n      add\n        /* \"#utility.yul\":7492:7496   */\n      0x00\n        /* \"#utility.yul\":7485:7490   */\n      dup4\n        /* \"#utility.yul\":7481:7497   */\n      add\n        /* \"#utility.yul\":7475:7498   */\n      mload\n        /* \"#utility.yul\":7511:7574   */\n      tag_377\n        /* \"#utility.yul\":7568:7572   */\n      0x00\n        /* \"#utility.yul\":7563:7566   */\n      dup7\n        /* \"#utility.yul\":7559:7573   */\n      add\n        /* \"#utility.yul\":7545:7557   */\n      dup3\n        /* \"#utility.yul\":7511:7574   */\n      tag_232\n      jump\t// in\n    tag_377:\n        /* \"#utility.yul\":7416:7584   */\n      pop\n        /* \"#utility.yul\":7667:7671   */\n      0x20\n        /* \"#utility.yul\":7660:7665   */\n      dup4\n        /* \"#utility.yul\":7656:7672   */\n      add\n        /* \"#utility.yul\":7650:7673   */\n      mload\n        /* \"#utility.yul\":7686:7749   */\n      tag_378\n        /* \"#utility.yul\":7743:7747   */\n      0x20\n        /* \"#utility.yul\":7738:7741   */\n      dup7\n        /* \"#utility.yul\":7734:7748   */\n      add\n        /* \"#utility.yul\":7720:7732   */\n      dup3\n        /* \"#utility.yul\":7686:7749   */\n      tag_235\n      jump\t// in\n    tag_378:\n        /* \"#utility.yul\":7594:7759   */\n      pop\n        /* \"#utility.yul\":7850:7854   */\n      0x40\n        /* \"#utility.yul\":7843:7848   */\n      dup4\n        /* \"#utility.yul\":7839:7855   */\n      add\n        /* \"#utility.yul\":7833:7856   */\n      mload\n        /* \"#utility.yul\":7903:7906   */\n      dup5\n        /* \"#utility.yul\":7897:7901   */\n      dup3\n        /* \"#utility.yul\":7893:7907   */\n      sub\n        /* \"#utility.yul\":7886:7890   */\n      0x40\n        /* \"#utility.yul\":7881:7884   */\n      dup7\n        /* \"#utility.yul\":7877:7891   */\n      add\n        /* \"#utility.yul\":7870:7908   */\n      mstore\n        /* \"#utility.yul\":7929:8002   */\n      tag_379\n        /* \"#utility.yul\":7997:8001   */\n      dup3\n        /* \"#utility.yul\":7983:7995   */\n      dup3\n        /* \"#utility.yul\":7929:8002   */\n      tag_239\n      jump\t// in\n    tag_379:\n        /* \"#utility.yul\":7921:8002   */\n      swap2\n      pop\n        /* \"#utility.yul\":7769:8013   */\n      pop\n        /* \"#utility.yul\":8103:8107   */\n      0x60\n        /* \"#utility.yul\":8096:8101   */\n      dup4\n        /* \"#utility.yul\":8092:8108   */\n      add\n        /* \"#utility.yul\":8086:8109   */\n      mload\n        /* \"#utility.yul\":8122:8197   */\n      tag_380\n        /* \"#utility.yul\":8191:8195   */\n      0x60\n        /* \"#utility.yul\":8186:8189   */\n      dup7\n        /* \"#utility.yul\":8182:8196   */\n      add\n        /* \"#utility.yul\":8168:8180   */\n      dup3\n        /* \"#utility.yul\":8122:8197   */\n      tag_243\n      jump\t// in\n    tag_380:\n        /* \"#utility.yul\":8023:8207   */\n      pop\n        /* \"#utility.yul\":8224:8228   */\n      dup1\n        /* \"#utility.yul\":8217:8228   */\n      swap2\n      pop\n        /* \"#utility.yul\":7370:8234   */\n      pop\n        /* \"#utility.yul\":7262:8234   */\n      swap3\n      swap2\n      pop\n      pop\n      jump\t// out\n        /* \"#utility.yul\":8240:8484   */\n    tag_245:\n        /* \"#utility.yul\":8353:8363   */\n      0x00\n        /* \"#utility.yul\":8388:8478   */\n      tag_382\n        /* \"#utility.yul\":8474:8477   */\n      dup4\n        /* \"#utility.yul\":8466:8472   */\n      dup4\n        /* \"#utility.yul\":8388:8478   */\n      tag_244\n      jump\t// in\n    tag_382:\n        /* \"#utility.yul\":8374:8478   */\n      swap1\n      pop\n        /* \"#utility.yul\":8240:8484   */\n      swap3\n      swap2\n      pop\n      pop\n      jump\t// out\n        /* \"#utility.yul\":8490:8625   */\n    tag_246:\n        /* \"#utility.yul\":8582:8586   */\n      0x00\n        /* \"#utility.yul\":8614:8618   */\n      0x20\n        /* \"#utility.yul\":8609:8612   */\n      dup3\n        /* \"#utility.yul\":8605:8619   */\n      add\n        /* \"#utility.yul\":8597:8619   */\n      swap1\n      pop\n        /* \"#utility.yul\":8490:8625   */\n      swap2\n      swap1\n      pop\n      jump\t// out\n        /* \"#utility.yul\":8703:9790   */\n    tag_247:\n        /* \"#utility.yul\":8866:8869   */\n      0x00\n        /* \"#utility.yul\":8895:8971   */\n      tag_385\n        /* \"#utility.yul\":8965:8970   */\n      dup3\n        /* \"#utility.yul\":8895:8971   */\n      tag_229\n      jump\t// in\n    tag_385:\n        /* \"#utility.yul\":8987:9095   */\n      tag_386\n        /* \"#utility.yul\":9088:9094   */\n      dup2\n        /* \"#utility.yul\":9083:9086   */\n      dup6\n        /* \"#utility.yul\":8987:9095   */\n      tag_230\n      jump\t// in\n    tag_386:\n        /* \"#utility.yul\":8980:9095   */\n      swap4\n      pop\n        /* \"#utility.yul\":9121:9124   */\n      dup4\n        /* \"#utility.yul\":9166:9170   */\n      0x20\n        /* \"#utility.yul\":9158:9164   */\n      dup3\n        /* \"#utility.yul\":9154:9171   */\n      mul\n        /* \"#utility.yul\":9149:9152   */\n      dup6\n        /* \"#utility.yul\":9145:9172   */\n      add\n        /* \"#utility.yul\":9196:9274   */\n      tag_387\n        /* \"#utility.yul\":9268:9273   */\n      dup6\n        /* \"#utility.yul\":9196:9274   */\n      tag_231\n      jump\t// in\n    tag_387:\n        /* \"#utility.yul\":9297:9304   */\n      dup1\n        /* \"#utility.yul\":9328:9329   */\n      0x00\n        /* \"#utility.yul\":9313:9745   */\n    tag_388:\n        /* \"#utility.yul\":9338:9344   */\n      dup6\n        /* \"#utility.yul\":9335:9336   */\n      dup2\n        /* \"#utility.yul\":9332:9345   */\n      lt\n        /* \"#utility.yul\":9313:9745   */\n      iszero\n      tag_390\n      jumpi\n        /* \"#utility.yul\":9409:9418   */\n      dup5\n        /* \"#utility.yul\":9403:9407   */\n      dup5\n        /* \"#utility.yul\":9399:9419   */\n      sub\n        /* \"#utility.yul\":9394:9397   */\n      dup10\n        /* \"#utility.yul\":9387:9420   */\n      mstore\n        /* \"#utility.yul\":9460:9466   */\n      dup2\n        /* \"#utility.yul\":9454:9467   */\n      mload\n        /* \"#utility.yul\":9488:9596   */\n      tag_391\n        /* \"#utility.yul\":9591:9595   */\n      dup6\n        /* \"#utility.yul\":9576:9589   */\n      dup3\n        /* \"#utility.yul\":9488:9596   */\n      tag_245\n      jump\t// in\n    tag_391:\n        /* \"#utility.yul\":9480:9596   */\n      swap5\n      pop\n        /* \"#utility.yul\":9619:9701   */\n      tag_392\n        /* \"#utility.yul\":9694:9700   */\n      dup4\n        /* \"#utility.yul\":9619:9701   */\n      tag_246\n      jump\t// in\n    tag_392:\n        /* \"#utility.yul\":9609:9701   */\n      swap3\n      pop\n        /* \"#utility.yul\":9730:9734   */\n      0x20\n        /* \"#utility.yul\":9725:9728   */\n      dup11\n        /* \"#utility.yul\":9721:9735   */\n      add\n        /* \"#utility.yul\":9714:9735   */\n      swap10\n      pop\n        /* \"#utility.yul\":9373:9745   */\n      pop\n        /* \"#utility.yul\":9360:9361   */\n      0x01\n        /* \"#utility.yul\":9357:9358   */\n      dup2\n        /* \"#utility.yul\":9353:9362   */\n      add\n        /* \"#utility.yul\":9348:9362   */\n      swap1\n      pop\n        /* \"#utility.yul\":9313:9745   */\n      jump(tag_388)\n    tag_390:\n        /* \"#utility.yul\":9317:9331   */\n      pop\n        /* \"#utility.yul\":9761:9765   */\n      dup3\n        /* \"#utility.yul\":9754:9765   */\n      swap8\n      pop\n        /* \"#utility.yul\":9781:9784   */\n      dup8\n        /* \"#utility.yul\":9774:9784   */\n      swap6\n      pop\n        /* \"#utility.yul\":8871:9790   */\n      pop\n      pop\n      pop\n      pop\n      pop\n        /* \"#utility.yul\":8703:9790   */\n      swap3\n      swap2\n      pop\n      pop\n      jump\t// out\n        /* \"#utility.yul\":9796:10257   */\n    tag_24:\n        /* \"#utility.yul\":9983:9987   */\n      0x00\n        /* \"#utility.yul\":10021:10023   */\n      0x20\n        /* \"#utility.yul\":10010:10019   */\n      dup3\n        /* \"#utility.yul\":10006:10024   */\n      add\n        /* \"#utility.yul\":9998:10024   */\n      swap1\n      pop\n        /* \"#utility.yul\":10070:10079   */\n      dup2\n        /* \"#utility.yul\":10064:10068   */\n      dup2\n        /* \"#utility.yul\":10060:10080   */\n      sub\n        /* \"#utility.yul\":10056:10057   */\n      0x00\n        /* \"#utility.yul\":10045:10054   */\n      dup4\n        /* \"#utility.yul\":10041:10058   */\n      add\n        /* \"#utility.yul\":10034:10081   */\n      mstore\n        /* \"#utility.yul\":10098:10250   */\n      tag_394\n        /* \"#utility.yul\":10245:10249   */\n      dup2\n        /* \"#utility.yul\":10236:10242   */\n      dup5\n        /* \"#utility.yul\":10098:10250   */\n      tag_247\n      jump\t// in\n    tag_394:\n        /* \"#utility.yul\":10090:10250   */\n      swap1\n      pop\n        /* \"#utility.yul\":9796:10257   */\n      swap3\n      swap2\n      pop\n      pop\n      jump\t// out\n        /* \"#utility.yul\":10263:10381   */\n    tag_248:\n        /* \"#utility.yul\":10350:10374   */\n      tag_396\n        /* \"#utility.yul\":10368:10373   */\n      dup2\n        /* \"#utility.yul\":10350:10374   */\n      tag_234\n      jump\t// in\n    tag_396:\n        /* \"#utility.yul\":10345:10348   */\n      dup3\n        /* \"#utility.yul\":10338:10375   */\n      mstore\n        /* \"#utility.yul\":10263:10381   */\n      pop\n      pop\n      jump\t// out\n        /* \"#utility.yul\":10387:10556   */\n    tag_249:\n        /* \"#utility.yul\":10471:10482   */\n      0x00\n        /* \"#utility.yul\":10505:10511   */\n      dup3\n        /* \"#utility.yul\":10500:10503   */\n      dup3\n        /* \"#utility.yul\":10493:10512   */\n      mstore\n        /* \"#utility.yul\":10545:10549   */\n      0x20\n        /* \"#utility.yul\":10540:10543   */\n      dup3\n        /* \"#utility.yul\":10536:10550   */\n      add\n        /* \"#utility.yul\":10521:10550   */\n      swap1\n      pop\n        /* \"#utility.yul\":10387:10556   */\n      swap3\n      swap2\n      pop\n      pop\n      jump\t// out\n        /* \"#utility.yul\":10562:10939   */\n    tag_250:\n        /* \"#utility.yul\":10650:10653   */\n      0x00\n        /* \"#utility.yul\":10678:10717   */\n      tag_399\n        /* \"#utility.yul\":10711:10716   */\n      dup3\n        /* \"#utility.yul\":10678:10717   */\n      tag_236\n      jump\t// in\n    tag_399:\n        /* \"#utility.yul\":10733:10804   */\n      tag_400\n        /* \"#utility.yul\":10797:10803   */\n      dup2\n        /* \"#utility.yul\":10792:10795   */\n      dup6\n        /* \"#utility.yul\":10733:10804   */\n      tag_249\n      jump\t// in\n    tag_400:\n        /* \"#utility.yul\":10726:10804   */\n      swap4\n      pop\n        /* \"#utility.yul\":10813:10878   */\n      tag_401\n        /* \"#utility.yul\":10871:10877   */\n      dup2\n        /* \"#utility.yul\":10866:10869   */\n      dup6\n        /* \"#utility.yul\":10859:10863   */\n      0x20\n        /* \"#utility.yul\":10852:10857   */\n      dup7\n        /* \"#utility.yul\":10848:10864   */\n      add\n        /* \"#utility.yul\":10813:10878   */\n      tag_238\n      jump\t// in\n    tag_401:\n        /* \"#utility.yul\":10903:10932   */\n      tag_402\n        /* \"#utility.yul\":10925:10931   */\n      dup2\n        /* \"#utility.yul\":10903:10932   */\n      tag_221\n      jump\t// in\n    tag_402:\n        /* \"#utility.yul\":10898:10901   */\n      dup5\n        /* \"#utility.yul\":10894:10933   */\n      add\n        /* \"#utility.yul\":10887:10933   */\n      swap2\n      pop\n        /* \"#utility.yul\":10654:10939   */\n      pop\n        /* \"#utility.yul\":10562:10939   */\n      swap3\n      swap2\n      pop\n      pop\n      jump\t// out\n        /* \"#utility.yul\":10945:11100   */\n    tag_251:\n        /* \"#utility.yul\":11044:11093   */\n      tag_404\n        /* \"#utility.yul\":11087:11092   */\n      dup2\n        /* \"#utility.yul\":11044:11093   */\n      tag_242\n      jump\t// in\n    tag_404:\n        /* \"#utility.yul\":11039:11042   */\n      dup3\n        /* \"#utility.yul\":11032:11094   */\n      mstore\n        /* \"#utility.yul\":10945:11100   */\n      pop\n      pop\n      jump\t// out\n        /* \"#utility.yul\":11106:11196   */\n    tag_252:\n        /* \"#utility.yul\":11140:11147   */\n      0x00\n        /* \"#utility.yul\":11183:11188   */\n      dup2\n        /* \"#utility.yul\":11176:11189   */\n      iszero\n        /* \"#utility.yul\":11169:11190   */\n      iszero\n        /* \"#utility.yul\":11158:11190   */\n      swap1\n      pop\n        /* \"#utility.yul\":11106:11196   */\n      swap2\n      swap1\n      pop\n      jump\t// out\n        /* \"#utility.yul\":11202:11311   */\n    tag_253:\n        /* \"#utility.yul\":11283:11304   */\n      tag_407\n        /* \"#utility.yul\":11298:11303   */\n      dup2\n        /* \"#utility.yul\":11283:11304   */\n      tag_252\n      jump\t// in\n    tag_407:\n        /* \"#utility.yul\":11278:11281   */\n      dup3\n        /* \"#utility.yul\":11271:11305   */\n      mstore\n        /* \"#utility.yul\":11202:11311   */\n      pop\n      pop\n      jump\t// out\n        /* \"#utility.yul\":11317:12417   */\n    tag_29:\n        /* \"#utility.yul\":11632:11636   */\n      0x00\n        /* \"#utility.yul\":11670:11673   */\n      0x0100\n        /* \"#utility.yul\":11659:11668   */\n      dup3\n        /* \"#utility.yul\":11655:11674   */\n      add\n        /* \"#utility.yul\":11647:11674   */\n      swap1\n      pop\n        /* \"#utility.yul\":11684:11755   */\n      tag_409\n        /* \"#utility.yul\":11752:11753   */\n      0x00\n        /* \"#utility.yul\":11741:11750   */\n      dup4\n        /* \"#utility.yul\":11737:11754   */\n      add\n        /* \"#utility.yul\":11728:11734   */\n      dup12\n        /* \"#utility.yul\":11684:11755   */\n      tag_213\n      jump\t// in\n    tag_409:\n        /* \"#utility.yul\":11765:11837   */\n      tag_410\n        /* \"#utility.yul\":11833:11835   */\n      0x20\n        /* \"#utility.yul\":11822:11831   */\n      dup4\n        /* \"#utility.yul\":11818:11836   */\n      add\n        /* \"#utility.yul\":11809:11815   */\n      dup11\n        /* \"#utility.yul\":11765:11837   */\n      tag_248\n      jump\t// in\n    tag_410:\n        /* \"#utility.yul\":11884:11893   */\n      dup2\n        /* \"#utility.yul\":11878:11882   */\n      dup2\n        /* \"#utility.yul\":11874:11894   */\n      sub\n        /* \"#utility.yul\":11869:11871   */\n      0x40\n        /* \"#utility.yul\":11858:11867   */\n      dup4\n        /* \"#utility.yul\":11854:11872   */\n      add\n        /* \"#utility.yul\":11847:11895   */\n      mstore\n        /* \"#utility.yul\":11912:11990   */\n      tag_411\n        /* \"#utility.yul\":11985:11989   */\n      dup2\n        /* \"#utility.yul\":11976:11982   */\n      dup10\n        /* \"#utility.yul\":11912:11990   */\n      tag_250\n      jump\t// in\n    tag_411:\n        /* \"#utility.yul\":11904:11990   */\n      swap1\n      pop\n        /* \"#utility.yul\":12000:12084   */\n      tag_412\n        /* \"#utility.yul\":12080:12082   */\n      0x60\n        /* \"#utility.yul\":12069:12078   */\n      dup4\n        /* \"#utility.yul\":12065:12083   */\n      add\n        /* \"#utility.yul\":12056:12062   */\n      dup9\n        /* \"#utility.yul\":12000:12084   */\n      tag_251\n      jump\t// in\n    tag_412:\n        /* \"#utility.yul\":12094:12167   */\n      tag_413\n        /* \"#utility.yul\":12162:12165   */\n      0x80\n        /* \"#utility.yul\":12151:12160   */\n      dup4\n        /* \"#utility.yul\":12147:12166   */\n      add\n        /* \"#utility.yul\":12138:12144   */\n      dup8\n        /* \"#utility.yul\":12094:12167   */\n      tag_248\n      jump\t// in\n    tag_413:\n        /* \"#utility.yul\":12177:12250   */\n      tag_414\n        /* \"#utility.yul\":12245:12248   */\n      0xa0\n        /* \"#utility.yul\":12234:12243   */\n      dup4\n        /* \"#utility.yul\":12230:12249   */\n      add\n        /* \"#utility.yul\":12221:12227   */\n      dup7\n        /* \"#utility.yul\":12177:12250   */\n      tag_213\n      jump\t// in\n    tag_414:\n        /* \"#utility.yul\":12260:12333   */\n      tag_415\n        /* \"#utility.yul\":12328:12331   */\n      0xc0\n        /* \"#utility.yul\":12317:12326   */\n      dup4\n        /* \"#utility.yul\":12313:12332   */\n      add\n        /* \"#utility.yul\":12304:12310   */\n      dup6\n        /* \"#utility.yul\":12260:12333   */\n      tag_213\n      jump\t// in\n    tag_415:\n        /* \"#utility.yul\":12343:12410   */\n      tag_416\n        /* \"#utility.yul\":12405:12408   */\n      0xe0\n        /* \"#utility.yul\":12394:12403   */\n      dup4\n        /* \"#utility.yul\":12390:12409   */\n      add\n        /* \"#utility.yul\":12381:12387   */\n      dup5\n        /* \"#utility.yul\":12343:12410   */\n      tag_253\n      jump\t// in\n    tag_416:\n        /* \"#utility.yul\":11317:12417   */\n      swap10\n      swap9\n      pop\n      pop\n      pop\n      pop\n      pop\n      pop\n      pop\n      pop\n      pop\n      jump\t// out\n        /* \"#utility.yul\":12423:12545   */\n    tag_254:\n        /* \"#utility.yul\":12496:12520   */\n      tag_418\n        /* \"#utility.yul\":12514:12519   */\n      dup2\n        /* \"#utility.yul\":12496:12520   */\n      tag_234\n      jump\t// in\n    tag_418:\n        /* \"#utility.yul\":12489:12494   */\n      dup2\n        /* \"#utility.yul\":12486:12521   */\n      eq\n        /* \"#utility.yul\":12476:12539   */\n      tag_419\n      jumpi\n        /* \"#utility.yul\":12535:12536   */\n      0x00\n        /* \"#utility.yul\":12532:12533   */\n      dup1\n        /* \"#utility.yul\":12525:12537   */\n      revert\n        /* \"#utility.yul\":12476:12539   */\n    tag_419:\n        /* \"#utility.yul\":12423:12545   */\n      pop\n      jump\t// out\n        /* \"#utility.yul\":12551:12690   */\n    tag_255:\n        /* \"#utility.yul\":12597:12602   */\n      0x00\n        /* \"#utility.yul\":12635:12641   */\n      dup2\n        /* \"#utility.yul\":12622:12642   */\n      calldataload\n        /* \"#utility.yul\":12613:12642   */\n      swap1\n      pop\n        /* \"#utility.yul\":12651:12684   */\n      tag_421\n        /* \"#utility.yul\":12678:12683   */\n      dup2\n        /* \"#utility.yul\":12651:12684   */\n      tag_254\n      jump\t// in\n    tag_421:\n        /* \"#utility.yul\":12551:12690   */\n      swap3\n      swap2\n      pop\n      pop\n      jump\t// out\n        /* \"#utility.yul\":12696:13461   */\n    tag_32:\n        /* \"#utility.yul\":12782:12788   */\n      0x00\n        /* \"#utility.yul\":12790:12796   */\n      dup1\n        /* \"#utility.yul\":12798:12804   */\n      0x00\n        /* \"#utility.yul\":12806:12812   */\n      dup1\n        /* \"#utility.yul\":12855:12858   */\n      0x80\n        /* \"#utility.yul\":12843:12852   */\n      dup6\n        /* \"#utility.yul\":12834:12841   */\n      dup8\n        /* \"#utility.yul\":12830:12853   */\n      sub\n        /* \"#utility.yul\":12826:12859   */\n      slt\n        /* \"#utility.yul\":12823:12943   */\n      iszero\n      tag_423\n      jumpi\n        /* \"#utility.yul\":12862:12941   */\n      tag_424\n      tag_215\n      jump\t// in\n    tag_424:\n        /* \"#utility.yul\":12823:12943   */\n    tag_423:\n        /* \"#utility.yul\":12982:12983   */\n      0x00\n        /* \"#utility.yul\":13007:13060   */\n      tag_425\n        /* \"#utility.yul\":13052:13059   */\n      dup8\n        /* \"#utility.yul\":13043:13049   */\n      dup3\n        /* \"#utility.yul\":13032:13041   */\n      dup9\n        /* \"#utility.yul\":13028:13050   */\n      add\n        /* \"#utility.yul\":13007:13060   */\n      tag_255\n      jump\t// in\n    tag_425:\n        /* \"#utility.yul\":12997:13060   */\n      swap5\n      pop\n        /* \"#utility.yul\":12953:13070   */\n      pop\n        /* \"#utility.yul\":13109:13111   */\n      0x20\n        /* \"#utility.yul\":13135:13188   */\n      tag_426\n        /* \"#utility.yul\":13180:13187   */\n      dup8\n        /* \"#utility.yul\":13171:13177   */\n      dup3\n        /* \"#utility.yul\":13160:13169   */\n      dup9\n        /* \"#utility.yul\":13156:13178   */\n      add\n        /* \"#utility.yul\":13135:13188   */\n      tag_218\n      jump\t// in\n    tag_426:\n        /* \"#utility.yul\":13125:13188   */\n      swap4\n      pop\n        /* \"#utility.yul\":13080:13198   */\n      pop\n        /* \"#utility.yul\":13237:13239   */\n      0x40\n        /* \"#utility.yul\":13263:13316   */\n      tag_427\n        /* \"#utility.yul\":13308:13315   */\n      dup8\n        /* \"#utility.yul\":13299:13305   */\n      dup3\n        /* \"#utility.yul\":13288:13297   */\n      dup9\n        /* \"#utility.yul\":13284:13306   */\n      add\n        /* \"#utility.yul\":13263:13316   */\n      tag_218\n      jump\t// in\n    tag_427:\n        /* \"#utility.yul\":13253:13316   */\n      swap3\n      pop\n        /* \"#utility.yul\":13208:13326   */\n      pop\n        /* \"#utility.yul\":13365:13367   */\n      0x60\n        /* \"#utility.yul\":13391:13444   */\n      tag_428\n        /* \"#utility.yul\":13436:13443   */\n      dup8\n        /* \"#utility.yul\":13427:13433   */\n      dup3\n        /* \"#utility.yul\":13416:13425   */\n      dup9\n        /* \"#utility.yul\":13412:13434   */\n      add\n        /* \"#utility.yul\":13391:13444   */\n      tag_218\n      jump\t// in\n    tag_428:\n        /* \"#utility.yul\":13381:13444   */\n      swap2\n      pop\n        /* \"#utility.yul\":13336:13454   */\n      pop\n        /* \"#utility.yul\":12696:13461   */\n      swap3\n      swap6\n      swap2\n      swap5\n      pop\n      swap3\n      pop\n      jump\t// out\n        /* \"#utility.yul\":13467:13649   */\n    tag_256:\n        /* \"#utility.yul\":13607:13641   */\n      0x536164656365204d656b616e20736168696269206b756c6c616e6162696c6972\n        /* \"#utility.yul\":13603:13604   */\n      0x00\n        /* \"#utility.yul\":13595:13601   */\n      dup3\n        /* \"#utility.yul\":13591:13605   */\n      add\n        /* \"#utility.yul\":13584:13642   */\n      mstore\n        /* \"#utility.yul\":13467:13649   */\n      pop\n      jump\t// out\n        /* \"#utility.yul\":13655:14021   */\n    tag_257:\n        /* \"#utility.yul\":13797:13800   */\n      0x00\n        /* \"#utility.yul\":13818:13885   */\n      tag_431\n        /* \"#utility.yul\":13882:13884   */\n      0x20\n        /* \"#utility.yul\":13877:13880   */\n      dup4\n        /* \"#utility.yul\":13818:13885   */\n      tag_249\n      jump\t// in\n    tag_431:\n        /* \"#utility.yul\":13811:13885   */\n      swap2\n      pop\n        /* \"#utility.yul\":13894:13987   */\n      tag_432\n        /* \"#utility.yul\":13983:13986   */\n      dup3\n        /* \"#utility.yul\":13894:13987   */\n      tag_256\n      jump\t// in\n    tag_432:\n        /* \"#utility.yul\":14012:14014   */\n      0x20\n        /* \"#utility.yul\":14007:14010   */\n      dup3\n        /* \"#utility.yul\":14003:14015   */\n      add\n        /* \"#utility.yul\":13996:14015   */\n      swap1\n      pop\n        /* \"#utility.yul\":13655:14021   */\n      swap2\n      swap1\n      pop\n      jump\t// out\n        /* \"#utility.yul\":14027:14446   */\n    tag_37:\n        /* \"#utility.yul\":14193:14197   */\n      0x00\n        /* \"#utility.yul\":14231:14233   */\n      0x20\n        /* \"#utility.yul\":14220:14229   */\n      dup3\n        /* \"#utility.yul\":14216:14234   */\n      add\n        /* \"#utility.yul\":14208:14234   */\n      swap1\n      pop\n        /* \"#utility.yul\":14280:14289   */\n      dup2\n        /* \"#utility.yul\":14274:14278   */\n      dup2\n        /* \"#utility.yul\":14270:14290   */\n      sub\n        /* \"#utility.yul\":14266:14267   */\n      0x00\n        /* \"#utility.yul\":14255:14264   */\n      dup4\n        /* \"#utility.yul\":14251:14268   */\n      add\n        /* \"#utility.yul\":14244:14291   */\n      mstore\n        /* \"#utility.yul\":14308:14439   */\n      tag_434\n        /* \"#utility.yul\":14434:14438   */\n      dup2\n        /* \"#utility.yul\":14308:14439   */\n      tag_257\n      jump\t// in\n    tag_434:\n        /* \"#utility.yul\":14300:14439   */\n      swap1\n      pop\n        /* \"#utility.yul\":14027:14446   */\n      swap2\n      swap1\n      pop\n      jump\t// out\n        /* \"#utility.yul\":14452:14632   */\n    tag_50:\n        /* \"#utility.yul\":14500:14577   */\n      0x4e487b7100000000000000000000000000000000000000000000000000000000\n        /* \"#utility.yul\":14497:14498   */\n      0x00\n        /* \"#utility.yul\":14490:14578   */\n      mstore\n        /* \"#utility.yul\":14597:14601   */\n      0x32\n        /* \"#utility.yul\":14594:14595   */\n      0x04\n        /* \"#utility.yul\":14587:14602   */\n      mstore\n        /* \"#utility.yul\":14621:14625   */\n      0x24\n        /* \"#utility.yul\":14618:14619   */\n      0x00\n        /* \"#utility.yul\":14611:14626   */\n      revert\n        /* \"#utility.yul\":14638:14818   */\n    tag_258:\n        /* \"#utility.yul\":14686:14763   */\n      0x4e487b7100000000000000000000000000000000000000000000000000000000\n        /* \"#utility.yul\":14683:14684   */\n      0x00\n        /* \"#utility.yul\":14676:14764   */\n      mstore\n        /* \"#utility.yul\":14783:14787   */\n      0x22\n        /* \"#utility.yul\":14780:14781   */\n      0x04\n        /* \"#utility.yul\":14773:14788   */\n      mstore\n        /* \"#utility.yul\":14807:14811   */\n      0x24\n        /* \"#utility.yul\":14804:14805   */\n      0x00\n        /* \"#utility.yul\":14797:14812   */\n      revert\n        /* \"#utility.yul\":14824:15144   */\n    tag_57:\n        /* \"#utility.yul\":14868:14874   */\n      0x00\n        /* \"#utility.yul\":14905:14906   */\n      0x02\n        /* \"#utility.yul\":14899:14903   */\n      dup3\n        /* \"#utility.yul\":14895:14907   */\n      div\n        /* \"#utility.yul\":14885:14907   */\n      swap1\n      pop\n        /* \"#utility.yul\":14952:14953   */\n      0x01\n        /* \"#utility.yul\":14946:14950   */\n      dup3\n        /* \"#utility.yul\":14942:14954   */\n      and\n        /* \"#utility.yul\":14973:14991   */\n      dup1\n        /* \"#utility.yul\":14963:15044   */\n      tag_438\n      jumpi\n        /* \"#utility.yul\":15029:15033   */\n      0x7f\n        /* \"#utility.yul\":15021:15027   */\n      dup3\n        /* \"#utility.yul\":15017:15034   */\n      and\n        /* \"#utility.yul\":15007:15034   */\n      swap2\n      pop\n        /* \"#utility.yul\":14963:15044   */\n    tag_438:\n        /* \"#utility.yul\":15091:15093   */\n      0x20\n        /* \"#utility.yul\":15083:15089   */\n      dup3\n        /* \"#utility.yul\":15080:15094   */\n      lt\n        /* \"#utility.yul\":15060:15078   */\n      dup2\n        /* \"#utility.yul\":15057:15095   */\n      sub\n        /* \"#utility.yul\":15054:15138   */\n      tag_439\n      jumpi\n        /* \"#utility.yul\":15110:15128   */\n      tag_440\n      tag_258\n      jump\t// in\n    tag_440:\n        /* \"#utility.yul\":15054:15138   */\n    tag_439:\n        /* \"#utility.yul\":14875:15144   */\n      pop\n        /* \"#utility.yul\":14824:15144   */\n      swap2\n      swap1\n      pop\n      jump\t// out\n        /* \"#utility.yul\":15150:15330   */\n    tag_259:\n        /* \"#utility.yul\":15198:15275   */\n      0x4e487b7100000000000000000000000000000000000000000000000000000000\n        /* \"#utility.yul\":15195:15196   */\n      0x00\n        /* \"#utility.yul\":15188:15276   */\n      mstore\n        /* \"#utility.yul\":15295:15299   */\n      0x11\n        /* \"#utility.yul\":15292:15293   */\n      0x04\n        /* \"#utility.yul\":15285:15300   */\n      mstore\n        /* \"#utility.yul\":15319:15323   */\n      0x24\n        /* \"#utility.yul\":15316:15317   */\n      0x00\n        /* \"#utility.yul\":15309:15324   */\n      revert\n        /* \"#utility.yul\":15336:15569   */\n    tag_73:\n        /* \"#utility.yul\":15375:15378   */\n      0x00\n        /* \"#utility.yul\":15398:15422   */\n      tag_443\n        /* \"#utility.yul\":15416:15421   */\n      dup3\n        /* \"#utility.yul\":15398:15422   */\n      tag_212\n      jump\t// in\n    tag_443:\n        /* \"#utility.yul\":15389:15422   */\n      swap2\n      pop\n        /* \"#utility.yul\":15444:15510   */\n      0xffffffffffffffffffffffffffffffffffffffffffffffffffffffffffffffff\n        /* \"#utility.yul\":15437:15442   */\n      dup3\n        /* \"#utility.yul\":15434:15511   */\n      sub\n        /* \"#utility.yul\":15431:15534   */\n      tag_444\n      jumpi\n        /* \"#utility.yul\":15514:15532   */\n      tag_445\n      tag_259\n      jump\t// in\n    tag_445:\n        /* \"#utility.yul\":15431:15534   */\n    tag_444:\n        /* \"#utility.yul\":15561:15562   */\n      0x01\n        /* \"#utility.yul\":15554:15559   */\n      dup3\n        /* \"#utility.yul\":15550:15563   */\n      add\n        /* \"#utility.yul\":15543:15563   */\n      swap1\n      pop\n        /* \"#utility.yul\":15336:15569   */\n      swap2\n      swap1\n      pop\n      jump\t// out\n        /* \"#utility.yul\":15575:15789   */\n    tag_260:\n        /* \"#utility.yul\":15715:15781   */\n      0x52656e74616c204964206765c3a765726c69206465c49f696c00000000000000\n        /* \"#utility.yul\":15711:15712   */\n      0x00\n        /* \"#utility.yul\":15703:15709   */\n      dup3\n        /* \"#utility.yul\":15699:15713   */\n      add\n        /* \"#utility.yul\":15692:15782   */\n      mstore\n        /* \"#utility.yul\":15575:15789   */\n      pop\n      jump\t// out\n        /* \"#utility.yul\":15795:16161   */\n    tag_261:\n        /* \"#utility.yul\":15937:15940   */\n      0x00\n        /* \"#utility.yul\":15958:16025   */\n      tag_448\n        /* \"#utility.yul\":16022:16024   */\n      0x19\n        /* \"#utility.yul\":16017:16020   */\n      dup4\n        /* \"#utility.yul\":15958:16025   */\n      tag_249\n      jump\t// in\n    tag_448:\n        /* \"#utility.yul\":15951:16025   */\n      swap2\n      pop\n        /* \"#utility.yul\":16034:16127   */\n      tag_449\n        /* \"#utility.yul\":16123:16126   */\n      dup3\n        /* \"#utility.yul\":16034:16127   */\n      tag_260\n      jump\t// in\n    tag_449:\n        /* \"#utility.yul\":16152:16154   */\n      0x20\n        /* \"#utility.yul\":16147:16150   */\n      dup3\n        /* \"#utility.yul\":16143:16155   */\n      add\n        /* \"#utility.yul\":16136:16155   */\n      swap1\n      pop\n        /* \"#utility.yul\":15795:16161   */\n      swap2\n      swap1\n      pop\n      jump\t// out\n        /* \"#utility.yul\":16167:16586   */\n    tag_76:\n        /* \"#utility.yul\":16333:16337   */\n      0x00\n        /* \"#utility.yul\":16371:16373   */\n      0x20\n        /* \"#utility.yul\":16360:16369   */\n      dup3\n        /* \"#utility.yul\":16356:16374   */\n      add\n        /* \"#utility.yul\":16348:16374   */\n      swap1\n      pop\n        /* \"#utility.yul\":16420:16429   */\n      dup2\n        /* \"#utility.yul\":16414:16418   */\n      dup2\n        /* \"#utility.yul\":16410:16430   */\n      sub\n        /* \"#utility.yul\":16406:16407   */\n      0x00\n        /* \"#utility.yul\":16395:16404   */\n      dup4\n        /* \"#utility.yul\":16391:16408   */\n      add\n        /* \"#utility.yul\":16384:16431   */\n      mstore\n        /* \"#utility.yul\":16448:16579   */\n      tag_451\n        /* \"#utility.yul\":16574:16578   */\n      dup2\n        /* \"#utility.yul\":16448:16579   */\n      tag_261\n      jump\t// in\n    tag_451:\n        /* \"#utility.yul\":16440:16579   */\n      swap1\n      pop\n        /* \"#utility.yul\":16167:16586   */\n      swap2\n      swap1\n      pop\n      jump\t// out\n        /* \"#utility.yul\":16592:16740   */\n    tag_262:\n        /* \"#utility.yul\":16694:16705   */\n      0x00\n        /* \"#utility.yul\":16731:16734   */\n      dup2\n        /* \"#utility.yul\":16716:16734   */\n      swap1\n      pop\n        /* \"#utility.yul\":16592:16740   */\n      swap3\n      swap2\n      pop\n      pop\n      jump\t// out\n        /* \"#utility.yul\":16746:16900   */\n    tag_263:\n        /* \"#utility.yul\":16886:16892   */\n      0x686f6d6500000000000000000000000000000000000000000000000000000000\n        /* \"#utility.yul\":16882:16883   */\n      0x00\n        /* \"#utility.yul\":16874:16880   */\n      dup3\n        /* \"#utility.yul\":16870:16884   */\n      add\n        /* \"#utility.yul\":16863:16893   */\n      mstore\n        /* \"#utility.yul\":16746:16900   */\n      pop\n      jump\t// out\n        /* \"#utility.yul\":16906:17306   */\n    tag_264:\n        /* \"#utility.yul\":17066:17069   */\n      0x00\n        /* \"#utility.yul\":17087:17171   */\n      tag_455\n        /* \"#utility.yul\":17169:17170   */\n      0x04\n        /* \"#utility.yul\":17164:17167   */\n      dup4\n        /* \"#utility.yul\":17087:17171   */\n      tag_262\n      jump\t// in\n    tag_455:\n        /* \"#utility.yul\":17080:17171   */\n      swap2\n      pop\n        /* \"#utility.yul\":17180:17273   */\n      tag_456\n        /* \"#utility.yul\":17269:17272   */\n      dup3\n        /* \"#utility.yul\":17180:17273   */\n      tag_263\n      jump\t// in\n    tag_456:\n        /* \"#utility.yul\":17298:17299   */\n      0x04\n        /* \"#utility.yul\":17293:17296   */\n      dup3\n        /* \"#utility.yul\":17289:17300   */\n      add\n        /* \"#utility.yul\":17282:17300   */\n      swap1\n      pop\n        /* \"#utility.yul\":16906:17306   */\n      swap2\n      swap1\n      pop\n      jump\t// out\n        /* \"#utility.yul\":17312:17693   */\n    tag_79:\n        /* \"#utility.yul\":17497:17500   */\n      0x00\n        /* \"#utility.yul\":17519:17667   */\n      tag_458\n        /* \"#utility.yul\":17663:17666   */\n      dup3\n        /* \"#utility.yul\":17519:17667   */\n      tag_264\n      jump\t// in\n    tag_458:\n        /* \"#utility.yul\":17512:17667   */\n      swap2\n      pop\n        /* \"#utility.yul\":17684:17687   */\n      dup2\n        /* \"#utility.yul\":17677:17687   */\n      swap1\n      pop\n        /* \"#utility.yul\":17312:17693   */\n      swap2\n      swap1\n      pop\n      jump\t// out\n        /* \"#utility.yul\":17699:18089   */\n    tag_265:\n        /* \"#utility.yul\":17805:17808   */\n      0x00\n        /* \"#utility.yul\":17833:17872   */\n      tag_460\n        /* \"#utility.yul\":17866:17871   */\n      dup3\n        /* \"#utility.yul\":17833:17872   */\n      tag_236\n      jump\t// in\n    tag_460:\n        /* \"#utility.yul\":17888:17977   */\n      tag_461\n        /* \"#utility.yul\":17970:17976   */\n      dup2\n        /* \"#utility.yul\":17965:17968   */\n      dup6\n        /* \"#utility.yul\":17888:17977   */\n      tag_262\n      jump\t// in\n    tag_461:\n        /* \"#utility.yul\":17881:17977   */\n      swap4\n      pop\n        /* \"#utility.yul\":17986:18051   */\n      tag_462\n        /* \"#utility.yul\":18044:18050   */\n      dup2\n        /* \"#utility.yul\":18039:18042   */\n      dup6\n        /* \"#utility.yul\":18032:18036   */\n      0x20\n        /* \"#utility.yul\":18025:18030   */\n      dup7\n        /* \"#utility.yul\":18021:18037   */\n      add\n        /* \"#utility.yul\":17986:18051   */\n      tag_238\n      jump\t// in\n    tag_462:\n        /* \"#utility.yul\":18076:18082   */\n      dup1\n        /* \"#utility.yul\":18071:18074   */\n      dup5\n        /* \"#utility.yul\":18067:18083   */\n      add\n        /* \"#utility.yul\":18060:18083   */\n      swap2\n      pop\n        /* \"#utility.yul\":17809:18089   */\n      pop\n        /* \"#utility.yul\":17699:18089   */\n      swap3\n      swap2\n      pop\n      pop\n      jump\t// out\n        /* \"#utility.yul\":18095:18370   */\n    tag_81:\n        /* \"#utility.yul\":18227:18230   */\n      0x00\n        /* \"#utility.yul\":18249:18344   */\n      tag_464\n        /* \"#utility.yul\":18340:18343   */\n      dup3\n        /* \"#utility.yul\":18331:18337   */\n      dup5\n        /* \"#utility.yul\":18249:18344   */\n      tag_265\n      jump\t// in\n    tag_464:\n        /* \"#utility.yul\":18242:18344   */\n      swap2\n      pop\n        /* \"#utility.yul\":18361:18364   */\n      dup2\n        /* \"#utility.yul\":18354:18364   */\n      swap1\n      pop\n        /* \"#utility.yul\":18095:18370   */\n      swap3\n      swap2\n      pop\n      pop\n      jump\t// out\n        /* \"#utility.yul\":18376:18530   */\n    tag_266:\n        /* \"#utility.yul\":18516:18522   */\n      0x73686f7000000000000000000000000000000000000000000000000000000000\n        /* \"#utility.yul\":18512:18513   */\n      0x00\n        /* \"#utility.yul\":18504:18510   */\n      dup3\n        /* \"#utility.yul\":18500:18514   */\n      add\n        /* \"#utility.yul\":18493:18523   */\n      mstore\n        /* \"#utility.yul\":18376:18530   */\n      pop\n      jump\t// out\n        /* \"#utility.yul\":18536:18936   */\n    tag_267:\n        /* \"#utility.yul\":18696:18699   */\n      0x00\n        /* \"#utility.yul\":18717:18801   */\n      tag_467\n        /* \"#utility.yul\":18799:18800   */\n      0x04\n        /* \"#utility.yul\":18794:18797   */\n      dup4\n        /* \"#utility.yul\":18717:18801   */\n      tag_262\n      jump\t// in\n    tag_467:\n        /* \"#utility.yul\":18710:18801   */\n      swap2\n      pop\n        /* \"#utility.yul\":18810:18903   */\n      tag_468\n        /* \"#utility.yul\":18899:18902   */\n      dup3\n        /* \"#utility.yul\":18810:18903   */\n      tag_266\n      jump\t// in\n    tag_468:\n        /* \"#utility.yul\":18928:18929   */\n      0x04\n        /* \"#utility.yul\":18923:18926   */\n      dup3\n        /* \"#utility.yul\":18919:18930   */\n      add\n        /* \"#utility.yul\":18912:18930   */\n      swap1\n      pop\n        /* \"#utility.yul\":18536:18936   */\n      swap2\n      swap1\n      pop\n      jump\t// out\n        /* \"#utility.yul\":18942:19323   */\n    tag_85:\n        /* \"#utility.yul\":19127:19130   */\n      0x00\n        /* \"#utility.yul\":19149:19297   */\n      tag_470\n        /* \"#utility.yul\":19293:19296   */\n      dup3\n        /* \"#utility.yul\":19149:19297   */\n      tag_267\n      jump\t// in\n    tag_470:\n        /* \"#utility.yul\":19142:19297   */\n      swap2\n      pop\n        /* \"#utility.yul\":19314:19317   */\n      dup2\n        /* \"#utility.yul\":19307:19317   */\n      swap1\n      pop\n        /* \"#utility.yul\":18942:19323   */\n      swap2\n      swap1\n      pop\n      jump\t// out\n        /* \"#utility.yul\":19329:19562   */\n    tag_268:\n        /* \"#utility.yul\":19469:19503   */\n      0x50726f706572747920746970696e6920686f6d6520766579612073686f70206f\n        /* \"#utility.yul\":19465:19466   */\n      0x00\n        /* \"#utility.yul\":19457:19463   */\n      dup3\n        /* \"#utility.yul\":19453:19467   */\n      add\n        /* \"#utility.yul\":19446:19504   */\n      mstore\n        /* \"#utility.yul\":19538:19554   */\n      0x6c6172616b20676972696e697a2e000000000000000000000000000000000000\n        /* \"#utility.yul\":19533:19535   */\n      0x20\n        /* \"#utility.yul\":19525:19531   */\n      dup3\n        /* \"#utility.yul\":19521:19536   */\n      add\n        /* \"#utility.yul\":19514:19555   */\n      mstore\n        /* \"#utility.yul\":19329:19562   */\n      pop\n      jump\t// out\n        /* \"#utility.yul\":19568:19934   */\n    tag_269:\n        /* \"#utility.yul\":19710:19713   */\n      0x00\n        /* \"#utility.yul\":19731:19798   */\n      tag_473\n        /* \"#utility.yul\":19795:19797   */\n      0x2e\n        /* \"#utility.yul\":19790:19793   */\n      dup4\n        /* \"#utility.yul\":19731:19798   */\n      tag_249\n      jump\t// in\n    tag_473:\n        /* \"#utility.yul\":19724:19798   */\n      swap2\n      pop\n        /* \"#utility.yul\":19807:19900   */\n      tag_474\n        /* \"#utility.yul\":19896:19899   */\n      dup3\n        /* \"#utility.yul\":19807:19900   */\n      tag_268\n      jump\t// in\n    tag_474:\n        /* \"#utility.yul\":19925:19927   */\n      0x40\n        /* \"#utility.yul\":19920:19923   */\n      dup3\n        /* \"#utility.yul\":19916:19928   */\n      add\n        /* \"#utility.yul\":19909:19928   */\n      swap1\n      pop\n        /* \"#utility.yul\":19568:19934   */\n      swap2\n      swap1\n      pop\n      jump\t// out\n        /* \"#utility.yul\":19940:20359   */\n    tag_90:\n        /* \"#utility.yul\":20106:20110   */\n      0x00\n        /* \"#utility.yul\":20144:20146   */\n      0x20\n        /* \"#utility.yul\":20133:20142   */\n      dup3\n        /* \"#utility.yul\":20129:20147   */\n      add\n        /* \"#utility.yul\":20121:20147   */\n      swap1\n      pop\n        /* \"#utility.yul\":20193:20202   */\n      dup2\n        /* \"#utility.yul\":20187:20191   */\n      dup2\n        /* \"#utility.yul\":20183:20203   */\n      sub\n        /* \"#utility.yul\":20179:20180   */\n      0x00\n        /* \"#utility.yul\":20168:20177   */\n      dup4\n        /* \"#utility.yul\":20164:20181   */\n      add\n        /* \"#utility.yul\":20157:20204   */\n      mstore\n        /* \"#utility.yul\":20221:20352   */\n      tag_476\n        /* \"#utility.yul\":20347:20351   */\n      dup2\n        /* \"#utility.yul\":20221:20352   */\n      tag_269\n      jump\t// in\n    tag_476:\n        /* \"#utility.yul\":20213:20352   */\n      swap1\n      pop\n        /* \"#utility.yul\":19940:20359   */\n      swap2\n      swap1\n      pop\n      jump\t// out\n        /* \"#utility.yul\":20365:20579   */\n    tag_270:\n        /* \"#utility.yul\":20505:20571   */\n      0x52656e74616c204964206b756c6c616ec4b16cc4b1796f720000000000000000\n        /* \"#utility.yul\":20501:20502   */\n      0x00\n        /* \"#utility.yul\":20493:20499   */\n      dup3\n        /* \"#utility.yul\":20489:20503   */\n      add\n        /* \"#utility.yul\":20482:20572   */\n      mstore\n        /* \"#utility.yul\":20365:20579   */\n      pop\n      jump\t// out\n        /* \"#utility.yul\":20585:20951   */\n    tag_271:\n        /* \"#utility.yul\":20727:20730   */\n      0x00\n        /* \"#utility.yul\":20748:20815   */\n      tag_479\n        /* \"#utility.yul\":20812:20814   */\n      0x18\n        /* \"#utility.yul\":20807:20810   */\n      dup4\n        /* \"#utility.yul\":20748:20815   */\n      tag_249\n      jump\t// in\n    tag_479:\n        /* \"#utility.yul\":20741:20815   */\n      swap2\n      pop\n        /* \"#utility.yul\":20824:20917   */\n      tag_480\n        /* \"#utility.yul\":20913:20916   */\n      dup3\n        /* \"#utility.yul\":20824:20917   */\n      tag_270\n      jump\t// in\n    tag_480:\n        /* \"#utility.yul\":20942:20944   */\n      0x20\n        /* \"#utility.yul\":20937:20940   */\n      dup3\n        /* \"#utility.yul\":20933:20945   */\n      add\n        /* \"#utility.yul\":20926:20945   */\n      swap1\n      pop\n        /* \"#utility.yul\":20585:20951   */\n      swap2\n      swap1\n      pop\n      jump\t// out\n        /* \"#utility.yul\":20957:21376   */\n    tag_99:\n        /* \"#utility.yul\":21123:21127   */\n      0x00\n        /* \"#utility.yul\":21161:21163   */\n      0x20\n        /* \"#utility.yul\":21150:21159   */\n      dup3\n        /* \"#utility.yul\":21146:21164   */\n      add\n        /* \"#utility.yul\":21138:21164   */\n      swap1\n      pop\n        /* \"#utility.yul\":21210:21219   */\n      dup2\n        /* \"#utility.yul\":21204:21208   */\n      dup2\n        /* \"#utility.yul\":21200:21220   */\n      sub\n        /* \"#utility.yul\":21196:21197   */\n      0x00\n        /* \"#utility.yul\":21185:21194   */\n      dup4\n        /* \"#utility.yul\":21181:21198   */\n      add\n        /* \"#utility.yul\":21174:21221   */\n      mstore\n        /* \"#utility.yul\":21238:21369   */\n      tag_482\n        /* \"#utility.yul\":21364:21368   */\n      dup2\n        /* \"#utility.yul\":21238:21369   */\n      tag_271\n      jump\t// in\n    tag_482:\n        /* \"#utility.yul\":21230:21369   */\n      swap1\n      pop\n        /* \"#utility.yul\":20957:21376   */\n      swap2\n      swap1\n      pop\n      jump\t// out\n        /* \"#utility.yul\":21382:21523   */\n    tag_272:\n        /* \"#utility.yul\":21431:21435   */\n      0x00\n        /* \"#utility.yul\":21454:21457   */\n      dup2\n        /* \"#utility.yul\":21446:21457   */\n      swap1\n      pop\n        /* \"#utility.yul\":21477:21480   */\n      dup2\n        /* \"#utility.yul\":21474:21475   */\n      0x00\n        /* \"#utility.yul\":21467:21481   */\n      mstore\n        /* \"#utility.yul\":21511:21515   */\n      0x20\n        /* \"#utility.yul\":21508:21509   */\n      0x00\n        /* \"#utility.yul\":21498:21516   */\n      keccak256\n        /* \"#utility.yul\":21490:21516   */\n      swap1\n      pop\n        /* \"#utility.yul\":21382:21523   */\n      swap2\n      swap1\n      pop\n      jump\t// out\n        /* \"#utility.yul\":21529:21622   */\n    tag_273:\n        /* \"#utility.yul\":21566:21572   */\n      0x00\n        /* \"#utility.yul\":21613:21615   */\n      0x20\n        /* \"#utility.yul\":21608:21610   */\n      0x1f\n        /* \"#utility.yul\":21601:21606   */\n      dup4\n        /* \"#utility.yul\":21597:21611   */\n      add\n        /* \"#utility.yul\":21593:21616   */\n      div\n        /* \"#utility.yul\":21583:21616   */\n      swap1\n      pop\n        /* \"#utility.yul\":21529:21622   */\n      swap2\n      swap1\n      pop\n      jump\t// out\n        /* \"#utility.yul\":21628:21735   */\n    tag_274:\n        /* \"#utility.yul\":21672:21680   */\n      0x00\n        /* \"#utility.yul\":21722:21727   */\n      dup3\n        /* \"#utility.yul\":21716:21720   */\n      dup3\n        /* \"#utility.yul\":21712:21728   */\n      shl\n        /* \"#utility.yul\":21691:21728   */\n      swap1\n      pop\n        /* \"#utility.yul\":21628:21735   */\n      swap3\n      swap2\n      pop\n      pop\n      jump\t// out\n        /* \"#utility.yul\":21741:22134   */\n    tag_275:\n        /* \"#utility.yul\":21810:21816   */\n      0x00\n        /* \"#utility.yul\":21860:21861   */\n      0x08\n        /* \"#utility.yul\":21848:21858   */\n      dup4\n        /* \"#utility.yul\":21844:21862   */\n      mul\n        /* \"#utility.yul\":21883:21980   */\n      tag_487\n        /* \"#utility.yul\":21913:21979   */\n      0xffffffffffffffffffffffffffffffffffffffffffffffffffffffffffffffff\n        /* \"#utility.yul\":21902:21911   */\n      dup3\n        /* \"#utility.yul\":21883:21980   */\n      tag_274\n      jump\t// in\n    tag_487:\n        /* \"#utility.yul\":22001:22040   */\n      tag_488\n        /* \"#utility.yul\":22031:22039   */\n      dup7\n        /* \"#utility.yul\":22020:22029   */\n      dup4\n        /* \"#utility.yul\":22001:22040   */\n      tag_274\n      jump\t// in\n    tag_488:\n        /* \"#utility.yul\":21989:22040   */\n      swap6\n      pop\n        /* \"#utility.yul\":22073:22077   */\n      dup1\n        /* \"#utility.yul\":22069:22078   */\n      not\n        /* \"#utility.yul\":22062:22067   */\n      dup5\n        /* \"#utility.yul\":22058:22079   */\n      and\n        /* \"#utility.yul\":22049:22079   */\n      swap4\n      pop\n        /* \"#utility.yul\":22122:22126   */\n      dup1\n        /* \"#utility.yul\":22112:22120   */\n      dup7\n        /* \"#utility.yul\":22108:22127   */\n      and\n        /* \"#utility.yul\":22101:22106   */\n      dup5\n        /* \"#utility.yul\":22098:22128   */\n      or\n        /* \"#utility.yul\":22088:22128   */\n      swap3\n      pop\n        /* \"#utility.yul\":21817:22134   */\n      pop\n      pop\n        /* \"#utility.yul\":21741:22134   */\n      swap4\n      swap3\n      pop\n      pop\n      pop\n      jump\t// out\n        /* \"#utility.yul\":22140:22200   */\n    tag_276:\n        /* \"#utility.yul\":22168:22171   */\n      0x00\n        /* \"#utility.yul\":22189:22194   */\n      dup2\n        /* \"#utility.yul\":22182:22194   */\n      swap1\n      pop\n        /* \"#utility.yul\":22140:22200   */\n      swap2\n      swap1\n      pop\n      jump\t// out\n        /* \"#utility.yul\":22206:22348   */\n    tag_277:\n        /* \"#utility.yul\":22256:22265   */\n      0x00\n        /* \"#utility.yul\":22289:22342   */\n      tag_491\n        /* \"#utility.yul\":22307:22341   */\n      tag_492\n        /* \"#utility.yul\":22316:22340   */\n      tag_493\n        /* \"#utility.yul\":22334:22339   */\n      dup5\n        /* \"#utility.yul\":22316:22340   */\n      tag_212\n      jump\t// in\n    tag_493:\n        /* \"#utility.yul\":22307:22341   */\n      tag_276\n      jump\t// in\n    tag_492:\n        /* \"#utility.yul\":22289:22342   */\n      tag_212\n      jump\t// in\n    tag_491:\n        /* \"#utility.yul\":22276:22342   */\n      swap1\n      pop\n        /* \"#utility.yul\":22206:22348   */\n      swap2\n      swap1\n      pop\n      jump\t// out\n        /* \"#utility.yul\":22354:22429   */\n    tag_278:\n        /* \"#utility.yul\":22397:22400   */\n      0x00\n        /* \"#utility.yul\":22418:22423   */\n      dup2\n        /* \"#utility.yul\":22411:22423   */\n      swap1\n      pop\n        /* \"#utility.yul\":22354:22429   */\n      swap2\n      swap1\n      pop\n      jump\t// out\n        /* \"#utility.yul\":22435:22704   */\n    tag_279:\n        /* \"#utility.yul\":22545:22584   */\n      tag_496\n        /* \"#utility.yul\":22576:22583   */\n      dup4\n        /* \"#utility.yul\":22545:22584   */\n      tag_277\n      jump\t// in\n    tag_496:\n        /* \"#utility.yul\":22606:22697   */\n      tag_497\n        /* \"#utility.yul\":22655:22696   */\n      tag_498\n        /* \"#utility.yul\":22679:22695   */\n      dup3\n        /* \"#utility.yul\":22655:22696   */\n      tag_278\n      jump\t// in\n    tag_498:\n        /* \"#utility.yul\":22647:22653   */\n      dup5\n        /* \"#utility.yul\":22640:22644   */\n      dup5\n        /* \"#utility.yul\":22634:22645   */\n      sload\n        /* \"#utility.yul\":22606:22697   */\n      tag_275\n      jump\t// in\n    tag_497:\n        /* \"#utility.yul\":22600:22604   */\n      dup3\n        /* \"#utility.yul\":22593:22698   */\n      sstore\n        /* \"#utility.yul\":22511:22704   */\n      pop\n        /* \"#utility.yul\":22435:22704   */\n      pop\n      pop\n      pop\n      jump\t// out\n        /* \"#utility.yul\":22710:22783   */\n    tag_280:\n        /* \"#utility.yul\":22755:22758   */\n      0x00\n        /* \"#utility.yul\":22710:22783   */\n      swap1\n      jump\t// out\n        /* \"#utility.yul\":22789:22978   */\n    tag_281:\n        /* \"#utility.yul\":22866:22898   */\n      tag_501\n      tag_280\n      jump\t// in\n    tag_501:\n        /* \"#utility.yul\":22907:22972   */\n      tag_502\n        /* \"#utility.yul\":22965:22971   */\n      dup2\n        /* \"#utility.yul\":22957:22963   */\n      dup5\n        /* \"#utility.yul\":22951:22955   */\n      dup5\n        /* \"#utility.yul\":22907:22972   */\n      tag_279\n      jump\t// in\n    tag_502:\n        /* \"#utility.yul\":22842:22978   */\n      pop\n        /* \"#utility.yul\":22789:22978   */\n      pop\n      pop\n      jump\t// out\n        /* \"#utility.yul\":22984:23170   */\n    tag_282:\n        /* \"#utility.yul\":23044:23164   */\n    tag_504:\n        /* \"#utility.yul\":23061:23064   */\n      dup2\n        /* \"#utility.yul\":23054:23059   */\n      dup2\n        /* \"#utility.yul\":23051:23065   */\n      lt\n        /* \"#utility.yul\":23044:23164   */\n      iszero\n      tag_506\n      jumpi\n        /* \"#utility.yul\":23115:23154   */\n      tag_507\n        /* \"#utility.yul\":23152:23153   */\n      0x00\n        /* \"#utility.yul\":23145:23150   */\n      dup3\n        /* \"#utility.yul\":23115:23154   */\n      tag_281\n      jump\t// in\n    tag_507:\n        /* \"#utility.yul\":23088:23089   */\n      0x01\n        /* \"#utility.yul\":23081:23086   */\n      dup2\n        /* \"#utility.yul\":23077:23090   */\n      add\n        /* \"#utility.yul\":23068:23090   */\n      swap1\n      pop\n        /* \"#utility.yul\":23044:23164   */\n      jump(tag_504)\n    tag_506:\n        /* \"#utility.yul\":22984:23170   */\n      pop\n      pop\n      jump\t// out\n        /* \"#utility.yul\":23176:23719   */\n    tag_283:\n        /* \"#utility.yul\":23277:23279   */\n      0x1f\n        /* \"#utility.yul\":23272:23275   */\n      dup3\n        /* \"#utility.yul\":23269:23280   */\n      gt\n        /* \"#utility.yul\":23266:23712   */\n      iszero\n      tag_509\n      jumpi\n        /* \"#utility.yul\":23311:23349   */\n      tag_510\n        /* \"#utility.yul\":23343:23348   */\n      dup2\n        /* \"#utility.yul\":23311:23349   */\n      tag_272\n      jump\t// in\n    tag_510:\n        /* \"#utility.yul\":23395:23424   */\n      tag_511\n        /* \"#utility.yul\":23413:23423   */\n      dup5\n        /* \"#utility.yul\":23395:23424   */\n      tag_273\n      jump\t// in\n    tag_511:\n        /* \"#utility.yul\":23385:23393   */\n      dup2\n        /* \"#utility.yul\":23381:23425   */\n      add\n        /* \"#utility.yul\":23578:23580   */\n      0x20\n        /* \"#utility.yul\":23566:23576   */\n      dup6\n        /* \"#utility.yul\":23563:23581   */\n      lt\n        /* \"#utility.yul\":23560:23609   */\n      iszero\n      tag_512\n      jumpi\n        /* \"#utility.yul\":23599:23607   */\n      dup2\n        /* \"#utility.yul\":23584:23607   */\n      swap1\n      pop\n        /* \"#utility.yul\":23560:23609   */\n    tag_512:\n        /* \"#utility.yul\":23622:23702   */\n      tag_513\n        /* \"#utility.yul\":23678:23700   */\n      tag_514\n        /* \"#utility.yul\":23696:23699   */\n      dup6\n        /* \"#utility.yul\":23678:23700   */\n      tag_273\n      jump\t// in\n    tag_514:\n        /* \"#utility.yul\":23668:23676   */\n      dup4\n        /* \"#utility.yul\":23664:23701   */\n      add\n        /* \"#utility.yul\":23651:23662   */\n      dup3\n        /* \"#utility.yul\":23622:23702   */\n      tag_282\n      jump\t// in\n    tag_513:\n        /* \"#utility.yul\":23281:23712   */\n      pop\n      pop\n        /* \"#utility.yul\":23266:23712   */\n    tag_509:\n        /* \"#utility.yul\":23176:23719   */\n      pop\n      pop\n      pop\n      jump\t// out\n        /* \"#utility.yul\":23725:23842   */\n    tag_284:\n        /* \"#utility.yul\":23779:23787   */\n      0x00\n        /* \"#utility.yul\":23829:23834   */\n      dup3\n        /* \"#utility.yul\":23823:23827   */\n      dup3\n        /* \"#utility.yul\":23819:23835   */\n      shr\n        /* \"#utility.yul\":23798:23835   */\n      swap1\n      pop\n        /* \"#utility.yul\":23725:23842   */\n      swap3\n      swap2\n      pop\n      pop\n      jump\t// out\n        /* \"#utility.yul\":23848:24017   */\n    tag_285:\n        /* \"#utility.yul\":23892:23898   */\n      0x00\n        /* \"#utility.yul\":23925:23976   */\n      tag_517\n        /* \"#utility.yul\":23973:23974   */\n      0x00\n        /* \"#utility.yul\":23969:23975   */\n      not\n        /* \"#utility.yul\":23961:23966   */\n      dup5\n        /* \"#utility.yul\":23958:23959   */\n      0x08\n        /* \"#utility.yul\":23954:23967   */\n      mul\n        /* \"#utility.yul\":23925:23976   */\n      tag_284\n      jump\t// in\n    tag_517:\n        /* \"#utility.yul\":23921:23977   */\n      not\n        /* \"#utility.yul\":24006:24010   */\n      dup1\n        /* \"#utility.yul\":24000:24004   */\n      dup4\n        /* \"#utility.yul\":23996:24011   */\n      and\n        /* \"#utility.yul\":23986:24011   */\n      swap2\n      pop\n        /* \"#utility.yul\":23899:24017   */\n      pop\n        /* \"#utility.yul\":23848:24017   */\n      swap3\n      swap2\n      pop\n      pop\n      jump\t// out\n        /* \"#utility.yul\":24022:24317   */\n    tag_286:\n        /* \"#utility.yul\":24098:24102   */\n      0x00\n        /* \"#utility.yul\":24244:24273   */\n      tag_519\n        /* \"#utility.yul\":24269:24272   */\n      dup4\n        /* \"#utility.yul\":24263:24267   */\n      dup4\n        /* \"#utility.yul\":24244:24273   */\n      tag_285\n      jump\t// in\n    tag_519:\n        /* \"#utility.yul\":24236:24273   */\n      swap2\n      pop\n        /* \"#utility.yul\":24306:24309   */\n      dup3\n        /* \"#utility.yul\":24303:24304   */\n      0x02\n        /* \"#utility.yul\":24299:24310   */\n      mul\n        /* \"#utility.yul\":24293:24297   */\n      dup3\n        /* \"#utility.yul\":24290:24311   */\n      or\n        /* \"#utility.yul\":24282:24311   */\n      swap1\n      pop\n        /* \"#utility.yul\":24022:24317   */\n      swap3\n      swap2\n      pop\n      pop\n      jump\t// out\n        /* \"#utility.yul\":24322:25717   */\n    tag_105:\n        /* \"#utility.yul\":24439:24476   */\n      tag_521\n        /* \"#utility.yul\":24472:24475   */\n      dup3\n        /* \"#utility.yul\":24439:24476   */\n      tag_236\n      jump\t// in\n    tag_521:\n        /* \"#utility.yul\":24541:24559   */\n      0xffffffffffffffff\n        /* \"#utility.yul\":24533:24539   */\n      dup2\n        /* \"#utility.yul\":24530:24560   */\n      gt\n        /* \"#utility.yul\":24527:24583   */\n      iszero\n      tag_522\n      jumpi\n        /* \"#utility.yul\":24563:24581   */\n      tag_523\n      tag_222\n      jump\t// in\n    tag_523:\n        /* \"#utility.yul\":24527:24583   */\n    tag_522:\n        /* \"#utility.yul\":24607:24645   */\n      tag_524\n        /* \"#utility.yul\":24639:24643   */\n      dup3\n        /* \"#utility.yul\":24633:24644   */\n      sload\n        /* \"#utility.yul\":24607:24645   */\n      tag_57\n      jump\t// in\n    tag_524:\n        /* \"#utility.yul\":24692:24759   */\n      tag_525\n        /* \"#utility.yul\":24752:24758   */\n      dup3\n        /* \"#utility.yul\":24744:24750   */\n      dup3\n        /* \"#utility.yul\":24738:24742   */\n      dup6\n        /* \"#utility.yul\":24692:24759   */\n      tag_283\n      jump\t// in\n    tag_525:\n        /* \"#utility.yul\":24786:24787   */\n      0x00\n        /* \"#utility.yul\":24810:24814   */\n      0x20\n        /* \"#utility.yul\":24797:24814   */\n      swap1\n      pop\n        /* \"#utility.yul\":24842:24844   */\n      0x1f\n        /* \"#utility.yul\":24834:24840   */\n      dup4\n        /* \"#utility.yul\":24831:24845   */\n      gt\n        /* \"#utility.yul\":24859:24860   */\n      0x01\n        /* \"#utility.yul\":24854:25472   */\n      dup2\n      eq\n      tag_527\n      jumpi\n        /* \"#utility.yul\":25516:25517   */\n      0x00\n        /* \"#utility.yul\":25533:25539   */\n      dup5\n        /* \"#utility.yul\":25530:25607   */\n      iszero\n      tag_528\n      jumpi\n        /* \"#utility.yul\":25582:25591   */\n      dup3\n        /* \"#utility.yul\":25577:25580   */\n      dup8\n        /* \"#utility.yul\":25573:25592   */\n      add\n        /* \"#utility.yul\":25567:25593   */\n      mload\n        /* \"#utility.yul\":25558:25593   */\n      swap1\n      pop\n        /* \"#utility.yul\":25530:25607   */\n    tag_528:\n        /* \"#utility.yul\":25633:25700   */\n      tag_529\n        /* \"#utility.yul\":25693:25699   */\n      dup6\n        /* \"#utility.yul\":25686:25691   */\n      dup3\n        /* \"#utility.yul\":25633:25700   */\n      tag_286\n      jump\t// in\n    tag_529:\n        /* \"#utility.yul\":25627:25631   */\n      dup7\n        /* \"#utility.yul\":25620:25701   */\n      sstore\n        /* \"#utility.yul\":25489:25711   */\n      pop\n        /* \"#utility.yul\":24824:25711   */\n      jump(tag_526)\n        /* \"#utility.yul\":24854:25472   */\n    tag_527:\n        /* \"#utility.yul\":24906:24910   */\n      0x1f\n        /* \"#utility.yul\":24902:24911   */\n      not\n        /* \"#utility.yul\":24894:24900   */\n      dup5\n        /* \"#utility.yul\":24890:24912   */\n      and\n        /* \"#utility.yul\":24940:24977   */\n      tag_530\n        /* \"#utility.yul\":24972:24976   */\n      dup7\n        /* \"#utility.yul\":24940:24977   */\n      tag_272\n      jump\t// in\n    tag_530:\n        /* \"#utility.yul\":24999:25000   */\n      0x00\n        /* \"#utility.yul\":25013:25221   */\n    tag_531:\n        /* \"#utility.yul\":25027:25034   */\n      dup3\n        /* \"#utility.yul\":25024:25025   */\n      dup2\n        /* \"#utility.yul\":25021:25035   */\n      lt\n        /* \"#utility.yul\":25013:25221   */\n      iszero\n      tag_533\n      jumpi\n        /* \"#utility.yul\":25106:25115   */\n      dup5\n        /* \"#utility.yul\":25101:25104   */\n      dup10\n        /* \"#utility.yul\":25097:25116   */\n      add\n        /* \"#utility.yul\":25091:25117   */\n      mload\n        /* \"#utility.yul\":25083:25089   */\n      dup3\n        /* \"#utility.yul\":25076:25118   */\n      sstore\n        /* \"#utility.yul\":25157:25158   */\n      0x01\n        /* \"#utility.yul\":25149:25155   */\n      dup3\n        /* \"#utility.yul\":25145:25159   */\n      add\n        /* \"#utility.yul\":25135:25159   */\n      swap2\n      pop\n        /* \"#utility.yul\":25204:25206   */\n      0x20\n        /* \"#utility.yul\":25193:25202   */\n      dup6\n        /* \"#utility.yul\":25189:25207   */\n      add\n        /* \"#utility.yul\":25176:25207   */\n      swap5\n      pop\n        /* \"#utility.yul\":25050:25054   */\n      0x20\n        /* \"#utility.yul\":25047:25048   */\n      dup2\n        /* \"#utility.yul\":25043:25055   */\n      add\n        /* \"#utility.yul\":25038:25055   */\n      swap1\n      pop\n        /* \"#utility.yul\":25013:25221   */\n      jump(tag_531)\n    tag_533:\n        /* \"#utility.yul\":25249:25255   */\n      dup7\n        /* \"#utility.yul\":25240:25247   */\n      dup4\n        /* \"#utility.yul\":25237:25256   */\n      lt\n        /* \"#utility.yul\":25234:25413   */\n      iszero\n      tag_534\n      jumpi\n        /* \"#utility.yul\":25307:25316   */\n      dup5\n        /* \"#utility.yul\":25302:25305   */\n      dup10\n        /* \"#utility.yul\":25298:25317   */\n      add\n        /* \"#utility.yul\":25292:25318   */\n      mload\n        /* \"#utility.yul\":25350:25398   */\n      tag_535\n        /* \"#utility.yul\":25392:25396   */\n      0x1f\n        /* \"#utility.yul\":25384:25390   */\n      dup10\n        /* \"#utility.yul\":25380:25397   */\n      and\n        /* \"#utility.yul\":25369:25378   */\n      dup3\n        /* \"#utility.yul\":25350:25398   */\n      tag_285\n      jump\t// in\n    tag_535:\n        /* \"#utility.yul\":25342:25348   */\n      dup4\n        /* \"#utility.yul\":25335:25399   */\n      sstore\n        /* \"#utility.yul\":25257:25413   */\n      pop\n        /* \"#utility.yul\":25234:25413   */\n    tag_534:\n        /* \"#utility.yul\":25459:25460   */\n      0x01\n        /* \"#utility.yul\":25455:25456   */\n      0x02\n        /* \"#utility.yul\":25447:25453   */\n      dup9\n        /* \"#utility.yul\":25443:25457   */\n      mul\n        /* \"#utility.yul\":25439:25461   */\n      add\n        /* \"#utility.yul\":25433:25437   */\n      dup9\n        /* \"#utility.yul\":25426:25462   */\n      sstore\n        /* \"#utility.yul\":24861:25472   */\n      pop\n      pop\n      pop\n        /* \"#utility.yul\":24824:25711   */\n    tag_526:\n      pop\n        /* \"#utility.yul\":24414:25717   */\n      pop\n      pop\n      pop\n        /* \"#utility.yul\":24322:25717   */\n      pop\n      pop\n      jump\t// out\n        /* \"#utility.yul\":25723:25937   */\n    tag_287:\n        /* \"#utility.yul\":25863:25929   */\n      0x53c3b67a6c65c59f6d652062756c756e616d6164c4b100000000000000000000\n        /* \"#utility.yul\":25859:25860   */\n      0x00\n        /* \"#utility.yul\":25851:25857   */\n      dup3\n        /* \"#utility.yul\":25847:25861   */\n      add\n        /* \"#utility.yul\":25840:25930   */\n      mstore\n        /* \"#utility.yul\":25723:25937   */\n      pop\n      jump\t// out\n        /* \"#utility.yul\":25943:26309   */\n    tag_288:\n        /* \"#utility.yul\":26085:26088   */\n      0x00\n        /* \"#utility.yul\":26106:26173   */\n      tag_538\n        /* \"#utility.yul\":26170:26172   */\n      0x16\n        /* \"#utility.yul\":26165:26168   */\n      dup4\n        /* \"#utility.yul\":26106:26173   */\n      tag_249\n      jump\t// in\n    tag_538:\n        /* \"#utility.yul\":26099:26173   */\n      swap2\n      pop\n        /* \"#utility.yul\":26182:26275   */\n      tag_539\n        /* \"#utility.yul\":26271:26274   */\n      dup3\n        /* \"#utility.yul\":26182:26275   */\n      tag_287\n      jump\t// in\n    tag_539:\n        /* \"#utility.yul\":26300:26302   */\n      0x20\n        /* \"#utility.yul\":26295:26298   */\n      dup3\n        /* \"#utility.yul\":26291:26303   */\n      add\n        /* \"#utility.yul\":26284:26303   */\n      swap1\n      pop\n        /* \"#utility.yul\":25943:26309   */\n      swap2\n      swap1\n      pop\n      jump\t// out\n        /* \"#utility.yul\":26315:26734   */\n    tag_169:\n        /* \"#utility.yul\":26481:26485   */\n      0x00\n        /* \"#utility.yul\":26519:26521   */\n      0x20\n        /* \"#utility.yul\":26508:26517   */\n      dup3\n        /* \"#utility.yul\":26504:26522   */\n      add\n        /* \"#utility.yul\":26496:26522   */\n      swap1\n      pop\n        /* \"#utility.yul\":26568:26577   */\n      dup2\n        /* \"#utility.yul\":26562:26566   */\n      dup2\n        /* \"#utility.yul\":26558:26578   */\n      sub\n        /* \"#utility.yul\":26554:26555   */\n      0x00\n        /* \"#utility.yul\":26543:26552   */\n      dup4\n        /* \"#utility.yul\":26539:26556   */\n      add\n        /* \"#utility.yul\":26532:26579   */\n      mstore\n        /* \"#utility.yul\":26596:26727   */\n      tag_541\n        /* \"#utility.yul\":26722:26726   */\n      dup2\n        /* \"#utility.yul\":26596:26727   */\n      tag_288\n      jump\t// in\n    tag_541:\n        /* \"#utility.yul\":26588:26727   */\n      swap1\n      pop\n        /* \"#utility.yul\":26315:26734   */\n      swap2\n      swap1\n      pop\n      jump\t// out\n        /* \"#utility.yul\":26740:26954   */\n    tag_289:\n        /* \"#utility.yul\":26880:26946   */\n      0x4b6972616cc4b16b207965722062756c756e616d6164c4b10000000000000000\n        /* \"#utility.yul\":26876:26877   */\n      0x00\n        /* \"#utility.yul\":26868:26874   */\n      dup3\n        /* \"#utility.yul\":26864:26878   */\n      add\n        /* \"#utility.yul\":26857:26947   */\n      mstore\n        /* \"#utility.yul\":26740:26954   */\n      pop\n      jump\t// out\n        /* \"#utility.yul\":26960:27326   */\n    tag_290:\n        /* \"#utility.yul\":27102:27105   */\n      0x00\n        /* \"#utility.yul\":27123:27190   */\n      tag_544\n        /* \"#utility.yul\":27187:27189   */\n      0x18\n        /* \"#utility.yul\":27182:27185   */\n      dup4\n        /* \"#utility.yul\":27123:27190   */\n      tag_249\n      jump\t// in\n    tag_544:\n        /* \"#utility.yul\":27116:27190   */\n      swap2\n      pop\n        /* \"#utility.yul\":27199:27292   */\n      tag_545\n        /* \"#utility.yul\":27288:27291   */\n      dup3\n        /* \"#utility.yul\":27199:27292   */\n      tag_289\n      jump\t// in\n    tag_545:\n        /* \"#utility.yul\":27317:27319   */\n      0x20\n        /* \"#utility.yul\":27312:27315   */\n      dup3\n        /* \"#utility.yul\":27308:27320   */\n      add\n        /* \"#utility.yul\":27301:27320   */\n      swap1\n      pop\n        /* \"#utility.yul\":26960:27326   */\n      swap2\n      swap1\n      pop\n      jump\t// out\n        /* \"#utility.yul\":27332:27751   */\n    tag_197:\n        /* \"#utility.yul\":27498:27502   */\n      0x00\n        /* \"#utility.yul\":27536:27538   */\n      0x20\n        /* \"#utility.yul\":27525:27534   */\n      dup3\n        /* \"#utility.yul\":27521:27539   */\n      add\n        /* \"#utility.yul\":27513:27539   */\n      swap1\n      pop\n        /* \"#utility.yul\":27585:27594   */\n      dup2\n        /* \"#utility.yul\":27579:27583   */\n      dup2\n        /* \"#utility.yul\":27575:27595   */\n      sub\n        /* \"#utility.yul\":27571:27572   */\n      0x00\n        /* \"#utility.yul\":27560:27569   */\n      dup4\n        /* \"#utility.yul\":27556:27573   */\n      add\n        /* \"#utility.yul\":27549:27596   */\n      mstore\n        /* \"#utility.yul\":27613:27744   */\n      tag_547\n        /* \"#utility.yul\":27739:27743   */\n      dup2\n        /* \"#utility.yul\":27613:27744   */\n      tag_290\n      jump\t// in\n    tag_547:\n        /* \"#utility.yul\":27605:27744   */\n      swap1\n      pop\n        /* \"#utility.yul\":27332:27751   */\n      swap2\n      swap1\n      pop\n      jump\t// out\n\n    auxdata: 0xa26469706673582212205a971cda91fffadc9e818c542b77d73bd1c59b780b39a8c6b0d0f2d8d61e840064736f6c63430008120033\n}\n",
				"bytecode": {
					"linkReferences": {},
					"object": "608060405234801561001057600080fd5b5061269b806100206000396000f3fe608060405234801561001057600080fd5b50600436106100625760003560e01c8063104b7a0a1461006757806328047450146100855780632a1eb941146100a15780634a479823146100bd578063bee68d43146100db578063f23b3a2c14610112575b600080fd5b61006f61012e565b60405161007c919061189d565b60405180910390f35b61009f600480360381019061009a91906118f8565b6101fc565b005b6100bb60048036038101906100b69190611a6b565b6106de565b005b6100c5610a2b565b6040516100d29190611d61565b60405180910390f35b6100f560048036038101906100f091906118f8565b610bf4565b604051610109989796959493929190611e06565b60405180910390f35b61012c60048036038101906101279190611eb7565b61127c565b005b600080600160003373ffffffffffffffffffffffffffffffffffffffff1673ffffffffffffffffffffffffffffffffffffffff16815260200190815260200160002080549050116101b4576040517f08c379a00000000000000000000000000000000000000000000000000000000081526004016101ab90611f6a565b60405180910390fd5b600160003373ffffffffffffffffffffffffffffffffffffffff1673ffffffffffffffffffffffffffffffffffffffff16815260200190815260200160002080549050905090565b6000600160003373ffffffffffffffffffffffffffffffffffffffff1673ffffffffffffffffffffffffffffffffffffffff1681526020019081526020016000208054905011610281576040517f08c379a000000000000000000000000000000000000000000000000000000000815260040161027890611f6a565b60405180910390fd5b61028961178a565b60005b6000803373ffffffffffffffffffffffffffffffffffffffff1673ffffffffffffffffffffffffffffffffffffffff1681526020019081526020016000208054905081101561068f57826000803373ffffffffffffffffffffffffffffffffffffffff1673ffffffffffffffffffffffffffffffffffffffff168152602001908152602001600020828154811061032657610325611f8a565b5b9060005260206000209060080201600001600001540361067c576000803373ffffffffffffffffffffffffffffffffffffffff1673ffffffffffffffffffffffffffffffffffffffff16815260200190815260200160002081815481106103905761038f611f8a565b5b90600052602060002090600802016040518060a001604052908160008201604051806080016040529081600082015481526020016001820160009054906101000a900473ffffffffffffffffffffffffffffffffffffffff1673ffffffffffffffffffffffffffffffffffffffff1673ffffffffffffffffffffffffffffffffffffffff16815260200160028201805461042990611fe8565b80601f016020809104026020016040519081016040528092919081815260200182805461045590611fe8565b80156104a25780601f10610477576101008083540402835291602001916104a2565b820191906000526020600020905b81548152906001019060200180831161048557829003601f168201915b505050505081526020016003820160009054906101000a900460ff1660018111156104d0576104cf611bf1565b5b60018111156104e2576104e1611bf1565b5b8152505081526020016004820160009054906101000a900473ffffffffffffffffffffffffffffffffffffffff1673ffffffffffffffffffffffffffffffffffffffff1673ffffffffffffffffffffffffffffffffffffffff16815260200160058201548152602001600682015481526020016007820160009054906101000a900460ff16151515158152505091506000803373ffffffffffffffffffffffffffffffffffffffff1673ffffffffffffffffffffffffffffffffffffffff16815260200190815260200160002081815481106105c1576105c0611f8a565b5b906000526020600020906008020160008082016000808201600090556001820160006101000a81549073ffffffffffffffffffffffffffffffffffffffff021916905560028201600061061491906117d7565b6003820160006101000a81549060ff021916905550506004820160006101000a81549073ffffffffffffffffffffffffffffffffffffffff0219169055600582016000905560068201600090556007820160006101000a81549060ff0219169055505061068f565b808061068790612048565b91505061028c565b5081816000015160000151146106da576040517f08c379a00000000000000000000000000000000000000000000000000000000081526004016106d1906120dc565b60405180910390fd5b5050565b60006040516020016106ef90612153565b60405160208183030381529060405280519060200120826040516020016107169190612199565b604051602081830303815290604052805190602001200361073a57600090506107d0565b604051602001610749906121fc565b60405160208183030381529060405280519060200120826040516020016107709190612199565b604051602081830303815290604052805190602001200361079457600190506107cf565b6040517f08c379a00000000000000000000000000000000000000000000000000000000081526004016107c690612283565b60405180910390fd5b5b60005b600160003373ffffffffffffffffffffffffffffffffffffffff1673ffffffffffffffffffffffffffffffffffffffff168152602001908152602001600020805490508110156108d45784600160003373ffffffffffffffffffffffffffffffffffffffff1673ffffffffffffffffffffffffffffffffffffffff168152602001908152602001600020828154811061086f5761086e611f8a565b5b906000526020600020906004020160000154036108c1576040517f08c379a00000000000000000000000000000000000000000000000000000000081526004016108b8906122ef565b60405180910390fd5b80806108cc90612048565b9150506107d3565b50600060405180608001604052808681526020013373ffffffffffffffffffffffffffffffffffffffff16815260200185815260200183600181111561091d5761091c611bf1565b5b8152509050600160003373ffffffffffffffffffffffffffffffffffffffff1673ffffffffffffffffffffffffffffffffffffffff1681526020019081526020016000208190806001815401808255809150506001900390600052602060002090600402016000909190919091506000820151816000015560208201518160010160006101000a81548173ffffffffffffffffffffffffffffffffffffffff021916908373ffffffffffffffffffffffffffffffffffffffff16021790555060408201518160020190816109f191906124bb565b5060608201518160030160006101000a81548160ff02191690836001811115610a1d57610a1c611bf1565b5b021790555050505050505050565b6060600160003373ffffffffffffffffffffffffffffffffffffffff1673ffffffffffffffffffffffffffffffffffffffff168152602001908152602001600020805480602002602001604051908101604052809291908181526020016000905b82821015610beb5783829060005260206000209060040201604051806080016040529081600082015481526020016001820160009054906101000a900473ffffffffffffffffffffffffffffffffffffffff1673ffffffffffffffffffffffffffffffffffffffff1673ffffffffffffffffffffffffffffffffffffffff168152602001600282018054610b1f90611fe8565b80601f0160208091040260200160405190810160405280929190818152602001828054610b4b90611fe8565b8015610b985780601f10610b6d57610100808354040283529160200191610b98565b820191906000526020600020905b815481529060010190602001808311610b7b57829003601f168201915b505050505081526020016003820160009054906101000a900460ff166001811115610bc657610bc5611bf1565b5b6001811115610bd857610bd7611bf1565b5b8152505081526020019060010190610a8c565b50505050905090565b60008060606000806000806000610c09611817565b60005b600160003373ffffffffffffffffffffffffffffffffffffffff1673ffffffffffffffffffffffffffffffffffffffff16815260200190815260200160002080549050811015610e70578a600160003373ffffffffffffffffffffffffffffffffffffffff1673ffffffffffffffffffffffffffffffffffffffff1681526020019081526020016000208281548110610ca857610ca7611f8a565b5b90600052602060002090600402016000015403610e5d57600160003373ffffffffffffffffffffffffffffffffffffffff1673ffffffffffffffffffffffffffffffffffffffff1681526020019081526020016000208181548110610d1057610d0f611f8a565b5b9060005260206000209060040201604051806080016040529081600082015481526020016001820160009054906101000a900473ffffffffffffffffffffffffffffffffffffffff1673ffffffffffffffffffffffffffffffffffffffff1673ffffffffffffffffffffffffffffffffffffffff168152602001600282018054610d9990611fe8565b80601f0160208091040260200160405190810160405280929190818152602001828054610dc590611fe8565b8015610e125780601f10610de757610100808354040283529160200191610e12565b820191906000526020600020905b815481529060010190602001808311610df557829003601f168201915b505050505081526020016003820160009054906101000a900460ff166001811115610e4057610e3f611bf1565b5b6001811115610e5257610e51611bf1565b5b815250509150610e70565b8080610e6890612048565b915050610c0c565b5089816000015114610eb7576040517f08c379a0000000000000000000000000000000000000000000000000000000008152600401610eae906120dc565b60405180910390fd5b610ebf61178a565b60005b6000803373ffffffffffffffffffffffffffffffffffffffff1673ffffffffffffffffffffffffffffffffffffffff168152602001908152602001600020805490508110156111c35782600001516000803373ffffffffffffffffffffffffffffffffffffffff1673ffffffffffffffffffffffffffffffffffffffff1681526020019081526020016000208281548110610f6057610f5f611f8a565b5b906000526020600020906008020160000160000154036111b0576000803373ffffffffffffffffffffffffffffffffffffffff1673ffffffffffffffffffffffffffffffffffffffff1681526020019081526020016000208181548110610fca57610fc9611f8a565b5b90600052602060002090600802016040518060a001604052908160008201604051806080016040529081600082015481526020016001820160009054906101000a900473ffffffffffffffffffffffffffffffffffffffff1673ffffffffffffffffffffffffffffffffffffffff1673ffffffffffffffffffffffffffffffffffffffff16815260200160028201805461106390611fe8565b80601f016020809104026020016040519081016040528092919081815260200182805461108f90611fe8565b80156110dc5780601f106110b1576101008083540402835291602001916110dc565b820191906000526020600020905b8154815290600101906020018083116110bf57829003601f168201915b505050505081526020016003820160009054906101000a900460ff16600181111561110a57611109611bf1565b5b600181111561111c5761111b611bf1565b5b8152505081526020016004820160009054906101000a900473ffffffffffffffffffffffffffffffffffffffff1673ffffffffffffffffffffffffffffffffffffffff1673ffffffffffffffffffffffffffffffffffffffff16815260200160058201548152602001600682015481526020016007820160009054906101000a900460ff16151515158152505091506111c3565b80806111bb90612048565b915050610ec2565b50600073ffffffffffffffffffffffffffffffffffffffff16816020015173ffffffffffffffffffffffffffffffffffffffff1603611237576040517f08c379a000000000000000000000000000000000000000000000000000000000815260040161122e906125d9565b60405180910390fd5b81600001518260200151836040015184606001518460200151856040015186606001518760800151995099509950995099509950995099505050919395975091939597565b6000600160003373ffffffffffffffffffffffffffffffffffffffff1673ffffffffffffffffffffffffffffffffffffffff1681526020019081526020016000208054905011611301576040517f08c379a00000000000000000000000000000000000000000000000000000000081526004016112f890611f6a565b60405180910390fd5b611309611817565b60005b600160003373ffffffffffffffffffffffffffffffffffffffff1673ffffffffffffffffffffffffffffffffffffffff168152602001908152602001600020805490508110156115705784600160003373ffffffffffffffffffffffffffffffffffffffff1673ffffffffffffffffffffffffffffffffffffffff16815260200190815260200160002082815481106113a8576113a7611f8a565b5b9060005260206000209060040201600001540361155d57600160003373ffffffffffffffffffffffffffffffffffffffff1673ffffffffffffffffffffffffffffffffffffffff16815260200190815260200160002081815481106114105761140f611f8a565b5b9060005260206000209060040201604051806080016040529081600082015481526020016001820160009054906101000a900473ffffffffffffffffffffffffffffffffffffffff1673ffffffffffffffffffffffffffffffffffffffff1673ffffffffffffffffffffffffffffffffffffffff16815260200160028201805461149990611fe8565b80601f01602080910402602001604051908101604052809291908181526020018280546114c590611fe8565b80156115125780601f106114e757610100808354040283529160200191611512565b820191906000526020600020905b8154815290600101906020018083116114f557829003601f168201915b505050505081526020016003820160009054906101000a900460ff1660018111156115405761153f611bf1565b5b600181111561155257611551611bf1565b5b815250509150611570565b808061156890612048565b91505061130c565b50838160000151146115b7576040517f08c379a00000000000000000000000000000000000000000000000000000000081526004016115ae90612645565b60405180910390fd5b60006040518060a001604052808381526020018773ffffffffffffffffffffffffffffffffffffffff1681526020018581526020018481526020016001151581525090506000803373ffffffffffffffffffffffffffffffffffffffff1673ffffffffffffffffffffffffffffffffffffffff1681526020019081526020016000208190806001815401808255809150506001900390600052602060002090600802016000909190919091506000820151816000016000820151816000015560208201518160010160006101000a81548173ffffffffffffffffffffffffffffffffffffffff021916908373ffffffffffffffffffffffffffffffffffffffff16021790555060408201518160020190816116d291906124bb565b5060608201518160030160006101000a81548160ff021916908360018111156116fe576116fd611bf1565b5b0217905550505060208201518160040160006101000a81548173ffffffffffffffffffffffffffffffffffffffff021916908373ffffffffffffffffffffffffffffffffffffffff160217905550604082015181600501556060820151816006015560808201518160070160006101000a81548160ff0219169083151502179055505050505050505050565b6040518060a0016040528061179d611817565b8152602001600073ffffffffffffffffffffffffffffffffffffffff16815260200160008152602001600081526020016000151581525090565b5080546117e390611fe8565b6000825580601f106117f55750611814565b601f0160209004906000526020600020908101906118139190611867565b5b50565b604051806080016040528060008152602001600073ffffffffffffffffffffffffffffffffffffffff168152602001606081526020016000600181111561186157611860611bf1565b5b81525090565b5b80821115611880576000816000905550600101611868565b5090565b6000819050919050565b61189781611884565b82525050565b60006020820190506118b2600083018461188e565b92915050565b6000604051905090565b600080fd5b600080fd5b6118d581611884565b81146118e057600080fd5b50565b6000813590506118f2816118cc565b92915050565b60006020828403121561190e5761190d6118c2565b5b600061191c848285016118e3565b91505092915050565b600080fd5b600080fd5b6000601f19601f8301169050919050565b7f4e487b7100000000000000000000000000000000000000000000000000000000600052604160045260246000fd5b6119788261192f565b810181811067ffffffffffffffff8211171561199757611996611940565b5b80604052505050565b60006119aa6118b8565b90506119b6828261196f565b919050565b600067ffffffffffffffff8211156119d6576119d5611940565b5b6119df8261192f565b9050602081019050919050565b82818337600083830152505050565b6000611a0e611a09846119bb565b6119a0565b905082815260208101848484011115611a2a57611a2961192a565b5b611a358482856119ec565b509392505050565b600082601f830112611a5257611a51611925565b5b8135611a628482602086016119fb565b91505092915050565b600080600060608486031215611a8457611a836118c2565b5b6000611a92868287016118e3565b935050602084013567ffffffffffffffff811115611ab357611ab26118c7565b5b611abf86828701611a3d565b925050604084013567ffffffffffffffff811115611ae057611adf6118c7565b5b611aec86828701611a3d565b9150509250925092565b600081519050919050565b600082825260208201905092915050565b6000819050602082019050919050565b611b2b81611884565b82525050565b600073ffffffffffffffffffffffffffffffffffffffff82169050919050565b6000611b5c82611b31565b9050919050565b611b6c81611b51565b82525050565b600081519050919050565b600082825260208201905092915050565b60005b83811015611bac578082015181840152602081019050611b91565b60008484015250505050565b6000611bc382611b72565b611bcd8185611b7d565b9350611bdd818560208601611b8e565b611be68161192f565b840191505092915050565b7f4e487b7100000000000000000000000000000000000000000000000000000000600052602160045260246000fd5b60028110611c3157611c30611bf1565b5b50565b6000819050611c4282611c20565b919050565b6000611c5282611c34565b9050919050565b611c6281611c47565b82525050565b6000608083016000830151611c806000860182611b22565b506020830151611c936020860182611b63565b5060408301518482036040860152611cab8282611bb8565b9150506060830151611cc06060860182611c59565b508091505092915050565b6000611cd78383611c68565b905092915050565b6000602082019050919050565b6000611cf782611af6565b611d018185611b01565b935083602082028501611d1385611b12565b8060005b85811015611d4f5784840389528151611d308582611ccb565b9450611d3b83611cdf565b925060208a01995050600181019050611d17565b50829750879550505050505092915050565b60006020820190508181036000830152611d7b8184611cec565b905092915050565b611d8c81611b51565b82525050565b600082825260208201905092915050565b6000611dae82611b72565b611db88185611d92565b9350611dc8818560208601611b8e565b611dd18161192f565b840191505092915050565b611de581611c47565b82525050565b60008115159050919050565b611e0081611deb565b82525050565b600061010082019050611e1c600083018b61188e565b611e29602083018a611d83565b8181036040830152611e3b8189611da3565b9050611e4a6060830188611ddc565b611e576080830187611d83565b611e6460a083018661188e565b611e7160c083018561188e565b611e7e60e0830184611df7565b9998505050505050505050565b611e9481611b51565b8114611e9f57600080fd5b50565b600081359050611eb181611e8b565b92915050565b60008060008060808587031215611ed157611ed06118c2565b5b6000611edf87828801611ea2565b9450506020611ef0878288016118e3565b9350506040611f01878288016118e3565b9250506060611f12878288016118e3565b91505092959194509250565b7f536164656365204d656b616e20736168696269206b756c6c616e6162696c6972600082015250565b6000611f54602083611d92565b9150611f5f82611f1e565b602082019050919050565b60006020820190508181036000830152611f8381611f47565b9050919050565b7f4e487b7100000000000000000000000000000000000000000000000000000000600052603260045260246000fd5b7f4e487b7100000000000000000000000000000000000000000000000000000000600052602260045260246000fd5b6000600282049050600182168061200057607f821691505b60208210810361201357612012611fb9565b5b50919050565b7f4e487b7100000000000000000000000000000000000000000000000000000000600052601160045260246000fd5b600061205382611884565b91507fffffffffffffffffffffffffffffffffffffffffffffffffffffffffffffffff820361208557612084612019565b5b600182019050919050565b7f52656e74616c204964206765c3a765726c69206465c49f696c00000000000000600082015250565b60006120c6601983611d92565b91506120d182612090565b602082019050919050565b600060208201905081810360008301526120f5816120b9565b9050919050565b600081905092915050565b7f686f6d6500000000000000000000000000000000000000000000000000000000600082015250565b600061213d6004836120fc565b915061214882612107565b600482019050919050565b600061215e82612130565b9150819050919050565b600061217382611b72565b61217d81856120fc565b935061218d818560208601611b8e565b80840191505092915050565b60006121a58284612168565b915081905092915050565b7f73686f7000000000000000000000000000000000000000000000000000000000600082015250565b60006121e66004836120fc565b91506121f1826121b0565b600482019050919050565b6000612207826121d9565b9150819050919050565b7f50726f706572747920746970696e6920686f6d6520766579612073686f70206f60008201527f6c6172616b20676972696e697a2e000000000000000000000000000000000000602082015250565b600061226d602e83611d92565b915061227882612211565b604082019050919050565b6000602082019050818103600083015261229c81612260565b9050919050565b7f52656e74616c204964206b756c6c616ec4b16cc4b1796f720000000000000000600082015250565b60006122d9601883611d92565b91506122e4826122a3565b602082019050919050565b60006020820190508181036000830152612308816122cc565b9050919050565b60008190508160005260206000209050919050565b60006020601f8301049050919050565b600082821b905092915050565b6000600883026123717fffffffffffffffffffffffffffffffffffffffffffffffffffffffffffffffff82612334565b61237b8683612334565b95508019841693508086168417925050509392505050565b6000819050919050565b60006123b86123b36123ae84611884565b612393565b611884565b9050919050565b6000819050919050565b6123d28361239d565b6123e66123de826123bf565b848454612341565b825550505050565b600090565b6123fb6123ee565b6124068184846123c9565b505050565b5b8181101561242a5761241f6000826123f3565b60018101905061240c565b5050565b601f82111561246f576124408161230f565b61244984612324565b81016020851015612458578190505b61246c61246485612324565b83018261240b565b50505b505050565b600082821c905092915050565b600061249260001984600802612474565b1980831691505092915050565b60006124ab8383612481565b9150826002028217905092915050565b6124c482611b72565b67ffffffffffffffff8111156124dd576124dc611940565b5b6124e78254611fe8565b6124f282828561242e565b600060209050601f8311600181146125255760008415612513578287015190505b61251d858261249f565b865550612585565b601f1984166125338661230f565b60005b8281101561255b57848901518255600182019150602085019450602081019050612536565b868310156125785784890151612574601f891682612481565b8355505b6001600288020188555050505b505050505050565b7f53c3b67a6c65c59f6d652062756c756e616d6164c4b100000000000000000000600082015250565b60006125c3601683611d92565b91506125ce8261258d565b602082019050919050565b600060208201905081810360008301526125f2816125b6565b9050919050565b7f4b6972616cc4b16b207965722062756c756e616d6164c4b10000000000000000600082015250565b600061262f601883611d92565b915061263a826125f9565b602082019050919050565b6000602082019050818103600083015261265e81612622565b905091905056fea26469706673582212205a971cda91fffadc9e818c542b77d73bd1c59b780b39a8c6b0d0f2d8d61e840064736f6c63430008120033",
					"opcodes": "PUSH1 0x80 PUSH1 0x40 MSTORE CALLVALUE DUP1 ISZERO PUSH2 0x10 JUMPI PUSH1 0x0 DUP1 REVERT JUMPDEST POP PUSH2 0x269B DUP1 PUSH2 0x20 PUSH1 0x0 CODECOPY PUSH1 0x0 RETURN INVALID PUSH1 0x80 PUSH1 0x40 MSTORE CALLVALUE DUP1 ISZERO PUSH2 0x10 JUMPI PUSH1 0x0 DUP1 REVERT JUMPDEST POP PUSH1 0x4 CALLDATASIZE LT PUSH2 0x62 JUMPI PUSH1 0x0 CALLDATALOAD PUSH1 0xE0 SHR DUP1 PUSH4 0x104B7A0A EQ PUSH2 0x67 JUMPI DUP1 PUSH4 0x28047450 EQ PUSH2 0x85 JUMPI DUP1 PUSH4 0x2A1EB941 EQ PUSH2 0xA1 JUMPI DUP1 PUSH4 0x4A479823 EQ PUSH2 0xBD JUMPI DUP1 PUSH4 0xBEE68D43 EQ PUSH2 0xDB JUMPI DUP1 PUSH4 0xF23B3A2C EQ PUSH2 0x112 JUMPI JUMPDEST PUSH1 0x0 DUP1 REVERT JUMPDEST PUSH2 0x6F PUSH2 0x12E JUMP JUMPDEST PUSH1 0x40 MLOAD PUSH2 0x7C SWAP2 SWAP1 PUSH2 0x189D JUMP JUMPDEST PUSH1 0x40 MLOAD DUP1 SWAP2 SUB SWAP1 RETURN JUMPDEST PUSH2 0x9F PUSH1 0x4 DUP1 CALLDATASIZE SUB DUP2 ADD SWAP1 PUSH2 0x9A SWAP2 SWAP1 PUSH2 0x18F8 JUMP JUMPDEST PUSH2 0x1FC JUMP JUMPDEST STOP JUMPDEST PUSH2 0xBB PUSH1 0x4 DUP1 CALLDATASIZE SUB DUP2 ADD SWAP1 PUSH2 0xB6 SWAP2 SWAP1 PUSH2 0x1A6B JUMP JUMPDEST PUSH2 0x6DE JUMP JUMPDEST STOP JUMPDEST PUSH2 0xC5 PUSH2 0xA2B JUMP JUMPDEST PUSH1 0x40 MLOAD PUSH2 0xD2 SWAP2 SWAP1 PUSH2 0x1D61 JUMP JUMPDEST PUSH1 0x40 MLOAD DUP1 SWAP2 SUB SWAP1 RETURN JUMPDEST PUSH2 0xF5 PUSH1 0x4 DUP1 CALLDATASIZE SUB DUP2 ADD SWAP1 PUSH2 0xF0 SWAP2 SWAP1 PUSH2 0x18F8 JUMP JUMPDEST PUSH2 0xBF4 JUMP JUMPDEST PUSH1 0x40 MLOAD PUSH2 0x109 SWAP9 SWAP8 SWAP7 SWAP6 SWAP5 SWAP4 SWAP3 SWAP2 SWAP1 PUSH2 0x1E06 JUMP JUMPDEST PUSH1 0x40 MLOAD DUP1 SWAP2 SUB SWAP1 RETURN JUMPDEST PUSH2 0x12C PUSH1 0x4 DUP1 CALLDATASIZE SUB DUP2 ADD SWAP1 PUSH2 0x127 SWAP2 SWAP1 PUSH2 0x1EB7 JUMP JUMPDEST PUSH2 0x127C JUMP JUMPDEST STOP JUMPDEST PUSH1 0x0 DUP1 PUSH1 0x1 PUSH1 0x0 CALLER PUSH20 0xFFFFFFFFFFFFFFFFFFFFFFFFFFFFFFFFFFFFFFFF AND PUSH20 0xFFFFFFFFFFFFFFFFFFFFFFFFFFFFFFFFFFFFFFFF AND DUP2 MSTORE PUSH1 0x20 ADD SWAP1 DUP2 MSTORE PUSH1 0x20 ADD PUSH1 0x0 KECCAK256 DUP1 SLOAD SWAP1 POP GT PUSH2 0x1B4 JUMPI PUSH1 0x40 MLOAD PUSH32 0x8C379A000000000000000000000000000000000000000000000000000000000 DUP2 MSTORE PUSH1 0x4 ADD PUSH2 0x1AB SWAP1 PUSH2 0x1F6A JUMP JUMPDEST PUSH1 0x40 MLOAD DUP1 SWAP2 SUB SWAP1 REVERT JUMPDEST PUSH1 0x1 PUSH1 0x0 CALLER PUSH20 0xFFFFFFFFFFFFFFFFFFFFFFFFFFFFFFFFFFFFFFFF AND PUSH20 0xFFFFFFFFFFFFFFFFFFFFFFFFFFFFFFFFFFFFFFFF AND DUP2 MSTORE PUSH1 0x20 ADD SWAP1 DUP2 MSTORE PUSH1 0x20 ADD PUSH1 0x0 KECCAK256 DUP1 SLOAD SWAP1 POP SWAP1 POP SWAP1 JUMP JUMPDEST PUSH1 0x0 PUSH1 0x1 PUSH1 0x0 CALLER PUSH20 0xFFFFFFFFFFFFFFFFFFFFFFFFFFFFFFFFFFFFFFFF AND PUSH20 0xFFFFFFFFFFFFFFFFFFFFFFFFFFFFFFFFFFFFFFFF AND DUP2 MSTORE PUSH1 0x20 ADD SWAP1 DUP2 MSTORE PUSH1 0x20 ADD PUSH1 0x0 KECCAK256 DUP1 SLOAD SWAP1 POP GT PUSH2 0x281 JUMPI PUSH1 0x40 MLOAD PUSH32 0x8C379A000000000000000000000000000000000000000000000000000000000 DUP2 MSTORE PUSH1 0x4 ADD PUSH2 0x278 SWAP1 PUSH2 0x1F6A JUMP JUMPDEST PUSH1 0x40 MLOAD DUP1 SWAP2 SUB SWAP1 REVERT JUMPDEST PUSH2 0x289 PUSH2 0x178A JUMP JUMPDEST PUSH1 0x0 JUMPDEST PUSH1 0x0 DUP1 CALLER PUSH20 0xFFFFFFFFFFFFFFFFFFFFFFFFFFFFFFFFFFFFFFFF AND PUSH20 0xFFFFFFFFFFFFFFFFFFFFFFFFFFFFFFFFFFFFFFFF AND DUP2 MSTORE PUSH1 0x20 ADD SWAP1 DUP2 MSTORE PUSH1 0x20 ADD PUSH1 0x0 KECCAK256 DUP1 SLOAD SWAP1 POP DUP2 LT ISZERO PUSH2 0x68F JUMPI DUP3 PUSH1 0x0 DUP1 CALLER PUSH20 0xFFFFFFFFFFFFFFFFFFFFFFFFFFFFFFFFFFFFFFFF AND PUSH20 0xFFFFFFFFFFFFFFFFFFFFFFFFFFFFFFFFFFFFFFFF AND DUP2 MSTORE PUSH1 0x20 ADD SWAP1 DUP2 MSTORE PUSH1 0x20 ADD PUSH1 0x0 KECCAK256 DUP3 DUP2 SLOAD DUP2 LT PUSH2 0x326 JUMPI PUSH2 0x325 PUSH2 0x1F8A JUMP JUMPDEST JUMPDEST SWAP1 PUSH1 0x0 MSTORE PUSH1 0x20 PUSH1 0x0 KECCAK256 SWAP1 PUSH1 0x8 MUL ADD PUSH1 0x0 ADD PUSH1 0x0 ADD SLOAD SUB PUSH2 0x67C JUMPI PUSH1 0x0 DUP1 CALLER PUSH20 0xFFFFFFFFFFFFFFFFFFFFFFFFFFFFFFFFFFFFFFFF AND PUSH20 0xFFFFFFFFFFFFFFFFFFFFFFFFFFFFFFFFFFFFFFFF AND DUP2 MSTORE PUSH1 0x20 ADD SWAP1 DUP2 MSTORE PUSH1 0x20 ADD PUSH1 0x0 KECCAK256 DUP2 DUP2 SLOAD DUP2 LT PUSH2 0x390 JUMPI PUSH2 0x38F PUSH2 0x1F8A JUMP JUMPDEST JUMPDEST SWAP1 PUSH1 0x0 MSTORE PUSH1 0x20 PUSH1 0x0 KECCAK256 SWAP1 PUSH1 0x8 MUL ADD PUSH1 0x40 MLOAD DUP1 PUSH1 0xA0 ADD PUSH1 0x40 MSTORE SWAP1 DUP2 PUSH1 0x0 DUP3 ADD PUSH1 0x40 MLOAD DUP1 PUSH1 0x80 ADD PUSH1 0x40 MSTORE SWAP1 DUP2 PUSH1 0x0 DUP3 ADD SLOAD DUP2 MSTORE PUSH1 0x20 ADD PUSH1 0x1 DUP3 ADD PUSH1 0x0 SWAP1 SLOAD SWAP1 PUSH2 0x100 EXP SWAP1 DIV PUSH20 0xFFFFFFFFFFFFFFFFFFFFFFFFFFFFFFFFFFFFFFFF AND PUSH20 0xFFFFFFFFFFFFFFFFFFFFFFFFFFFFFFFFFFFFFFFF AND PUSH20 0xFFFFFFFFFFFFFFFFFFFFFFFFFFFFFFFFFFFFFFFF AND DUP2 MSTORE PUSH1 0x20 ADD PUSH1 0x2 DUP3 ADD DUP1 SLOAD PUSH2 0x429 SWAP1 PUSH2 0x1FE8 JUMP JUMPDEST DUP1 PUSH1 0x1F ADD PUSH1 0x20 DUP1 SWAP2 DIV MUL PUSH1 0x20 ADD PUSH1 0x40 MLOAD SWAP1 DUP2 ADD PUSH1 0x40 MSTORE DUP1 SWAP3 SWAP2 SWAP1 DUP2 DUP2 MSTORE PUSH1 0x20 ADD DUP3 DUP1 SLOAD PUSH2 0x455 SWAP1 PUSH2 0x1FE8 JUMP JUMPDEST DUP1 ISZERO PUSH2 0x4A2 JUMPI DUP1 PUSH1 0x1F LT PUSH2 0x477 JUMPI PUSH2 0x100 DUP1 DUP4 SLOAD DIV MUL DUP4 MSTORE SWAP2 PUSH1 0x20 ADD SWAP2 PUSH2 0x4A2 JUMP JUMPDEST DUP3 ADD SWAP2 SWAP1 PUSH1 0x0 MSTORE PUSH1 0x20 PUSH1 0x0 KECCAK256 SWAP1 JUMPDEST DUP2 SLOAD DUP2 MSTORE SWAP1 PUSH1 0x1 ADD SWAP1 PUSH1 0x20 ADD DUP1 DUP4 GT PUSH2 0x485 JUMPI DUP3 SWAP1 SUB PUSH1 0x1F AND DUP3 ADD SWAP2 JUMPDEST POP POP POP POP POP DUP2 MSTORE PUSH1 0x20 ADD PUSH1 0x3 DUP3 ADD PUSH1 0x0 SWAP1 SLOAD SWAP1 PUSH2 0x100 EXP SWAP1 DIV PUSH1 0xFF AND PUSH1 0x1 DUP2 GT ISZERO PUSH2 0x4D0 JUMPI PUSH2 0x4CF PUSH2 0x1BF1 JUMP JUMPDEST JUMPDEST PUSH1 0x1 DUP2 GT ISZERO PUSH2 0x4E2 JUMPI PUSH2 0x4E1 PUSH2 0x1BF1 JUMP JUMPDEST JUMPDEST DUP2 MSTORE POP POP DUP2 MSTORE PUSH1 0x20 ADD PUSH1 0x4 DUP3 ADD PUSH1 0x0 SWAP1 SLOAD SWAP1 PUSH2 0x100 EXP SWAP1 DIV PUSH20 0xFFFFFFFFFFFFFFFFFFFFFFFFFFFFFFFFFFFFFFFF AND PUSH20 0xFFFFFFFFFFFFFFFFFFFFFFFFFFFFFFFFFFFFFFFF AND PUSH20 0xFFFFFFFFFFFFFFFFFFFFFFFFFFFFFFFFFFFFFFFF AND DUP2 MSTORE PUSH1 0x20 ADD PUSH1 0x5 DUP3 ADD SLOAD DUP2 MSTORE PUSH1 0x20 ADD PUSH1 0x6 DUP3 ADD SLOAD DUP2 MSTORE PUSH1 0x20 ADD PUSH1 0x7 DUP3 ADD PUSH1 0x0 SWAP1 SLOAD SWAP1 PUSH2 0x100 EXP SWAP1 DIV PUSH1 0xFF AND ISZERO ISZERO ISZERO ISZERO DUP2 MSTORE POP POP SWAP2 POP PUSH1 0x0 DUP1 CALLER PUSH20 0xFFFFFFFFFFFFFFFFFFFFFFFFFFFFFFFFFFFFFFFF AND PUSH20 0xFFFFFFFFFFFFFFFFFFFFFFFFFFFFFFFFFFFFFFFF AND DUP2 MSTORE PUSH1 0x20 ADD SWAP1 DUP2 MSTORE PUSH1 0x20 ADD PUSH1 0x0 KECCAK256 DUP2 DUP2 SLOAD DUP2 LT PUSH2 0x5C1 JUMPI PUSH2 0x5C0 PUSH2 0x1F8A JUMP JUMPDEST JUMPDEST SWAP1 PUSH1 0x0 MSTORE PUSH1 0x20 PUSH1 0x0 KECCAK256 SWAP1 PUSH1 0x8 MUL ADD PUSH1 0x0 DUP1 DUP3 ADD PUSH1 0x0 DUP1 DUP3 ADD PUSH1 0x0 SWAP1 SSTORE PUSH1 0x1 DUP3 ADD PUSH1 0x0 PUSH2 0x100 EXP DUP2 SLOAD SWAP1 PUSH20 0xFFFFFFFFFFFFFFFFFFFFFFFFFFFFFFFFFFFFFFFF MUL NOT AND SWAP1 SSTORE PUSH1 0x2 DUP3 ADD PUSH1 0x0 PUSH2 0x614 SWAP2 SWAP1 PUSH2 0x17D7 JUMP JUMPDEST PUSH1 0x3 DUP3 ADD PUSH1 0x0 PUSH2 0x100 EXP DUP2 SLOAD SWAP1 PUSH1 0xFF MUL NOT AND SWAP1 SSTORE POP POP PUSH1 0x4 DUP3 ADD PUSH1 0x0 PUSH2 0x100 EXP DUP2 SLOAD SWAP1 PUSH20 0xFFFFFFFFFFFFFFFFFFFFFFFFFFFFFFFFFFFFFFFF MUL NOT AND SWAP1 SSTORE PUSH1 0x5 DUP3 ADD PUSH1 0x0 SWAP1 SSTORE PUSH1 0x6 DUP3 ADD PUSH1 0x0 SWAP1 SSTORE PUSH1 0x7 DUP3 ADD PUSH1 0x0 PUSH2 0x100 EXP DUP2 SLOAD SWAP1 PUSH1 0xFF MUL NOT AND SWAP1 SSTORE POP POP PUSH2 0x68F JUMP JUMPDEST DUP1 DUP1 PUSH2 0x687 SWAP1 PUSH2 0x2048 JUMP JUMPDEST SWAP2 POP POP PUSH2 0x28C JUMP JUMPDEST POP DUP2 DUP2 PUSH1 0x0 ADD MLOAD PUSH1 0x0 ADD MLOAD EQ PUSH2 0x6DA JUMPI PUSH1 0x40 MLOAD PUSH32 0x8C379A000000000000000000000000000000000000000000000000000000000 DUP2 MSTORE PUSH1 0x4 ADD PUSH2 0x6D1 SWAP1 PUSH2 0x20DC JUMP JUMPDEST PUSH1 0x40 MLOAD DUP1 SWAP2 SUB SWAP1 REVERT JUMPDEST POP POP JUMP JUMPDEST PUSH1 0x0 PUSH1 0x40 MLOAD PUSH1 0x20 ADD PUSH2 0x6EF SWAP1 PUSH2 0x2153 JUMP JUMPDEST PUSH1 0x40 MLOAD PUSH1 0x20 DUP2 DUP4 SUB SUB DUP2 MSTORE SWAP1 PUSH1 0x40 MSTORE DUP1 MLOAD SWAP1 PUSH1 0x20 ADD KECCAK256 DUP3 PUSH1 0x40 MLOAD PUSH1 0x20 ADD PUSH2 0x716 SWAP2 SWAP1 PUSH2 0x2199 JUMP JUMPDEST PUSH1 0x40 MLOAD PUSH1 0x20 DUP2 DUP4 SUB SUB DUP2 MSTORE SWAP1 PUSH1 0x40 MSTORE DUP1 MLOAD SWAP1 PUSH1 0x20 ADD KECCAK256 SUB PUSH2 0x73A JUMPI PUSH1 0x0 SWAP1 POP PUSH2 0x7D0 JUMP JUMPDEST PUSH1 0x40 MLOAD PUSH1 0x20 ADD PUSH2 0x749 SWAP1 PUSH2 0x21FC JUMP JUMPDEST PUSH1 0x40 MLOAD PUSH1 0x20 DUP2 DUP4 SUB SUB DUP2 MSTORE SWAP1 PUSH1 0x40 MSTORE DUP1 MLOAD SWAP1 PUSH1 0x20 ADD KECCAK256 DUP3 PUSH1 0x40 MLOAD PUSH1 0x20 ADD PUSH2 0x770 SWAP2 SWAP1 PUSH2 0x2199 JUMP JUMPDEST PUSH1 0x40 MLOAD PUSH1 0x20 DUP2 DUP4 SUB SUB DUP2 MSTORE SWAP1 PUSH1 0x40 MSTORE DUP1 MLOAD SWAP1 PUSH1 0x20 ADD KECCAK256 SUB PUSH2 0x794 JUMPI PUSH1 0x1 SWAP1 POP PUSH2 0x7CF JUMP JUMPDEST PUSH1 0x40 MLOAD PUSH32 0x8C379A000000000000000000000000000000000000000000000000000000000 DUP2 MSTORE PUSH1 0x4 ADD PUSH2 0x7C6 SWAP1 PUSH2 0x2283 JUMP JUMPDEST PUSH1 0x40 MLOAD DUP1 SWAP2 SUB SWAP1 REVERT JUMPDEST JUMPDEST PUSH1 0x0 JUMPDEST PUSH1 0x1 PUSH1 0x0 CALLER PUSH20 0xFFFFFFFFFFFFFFFFFFFFFFFFFFFFFFFFFFFFFFFF AND PUSH20 0xFFFFFFFFFFFFFFFFFFFFFFFFFFFFFFFFFFFFFFFF AND DUP2 MSTORE PUSH1 0x20 ADD SWAP1 DUP2 MSTORE PUSH1 0x20 ADD PUSH1 0x0 KECCAK256 DUP1 SLOAD SWAP1 POP DUP2 LT ISZERO PUSH2 0x8D4 JUMPI DUP5 PUSH1 0x1 PUSH1 0x0 CALLER PUSH20 0xFFFFFFFFFFFFFFFFFFFFFFFFFFFFFFFFFFFFFFFF AND PUSH20 0xFFFFFFFFFFFFFFFFFFFFFFFFFFFFFFFFFFFFFFFF AND DUP2 MSTORE PUSH1 0x20 ADD SWAP1 DUP2 MSTORE PUSH1 0x20 ADD PUSH1 0x0 KECCAK256 DUP3 DUP2 SLOAD DUP2 LT PUSH2 0x86F JUMPI PUSH2 0x86E PUSH2 0x1F8A JUMP JUMPDEST JUMPDEST SWAP1 PUSH1 0x0 MSTORE PUSH1 0x20 PUSH1 0x0 KECCAK256 SWAP1 PUSH1 0x4 MUL ADD PUSH1 0x0 ADD SLOAD SUB PUSH2 0x8C1 JUMPI PUSH1 0x40 MLOAD PUSH32 0x8C379A000000000000000000000000000000000000000000000000000000000 DUP2 MSTORE PUSH1 0x4 ADD PUSH2 0x8B8 SWAP1 PUSH2 0x22EF JUMP JUMPDEST PUSH1 0x40 MLOAD DUP1 SWAP2 SUB SWAP1 REVERT JUMPDEST DUP1 DUP1 PUSH2 0x8CC SWAP1 PUSH2 0x2048 JUMP JUMPDEST SWAP2 POP POP PUSH2 0x7D3 JUMP JUMPDEST POP PUSH1 0x0 PUSH1 0x40 MLOAD DUP1 PUSH1 0x80 ADD PUSH1 0x40 MSTORE DUP1 DUP7 DUP2 MSTORE PUSH1 0x20 ADD CALLER PUSH20 0xFFFFFFFFFFFFFFFFFFFFFFFFFFFFFFFFFFFFFFFF AND DUP2 MSTORE PUSH1 0x20 ADD DUP6 DUP2 MSTORE PUSH1 0x20 ADD DUP4 PUSH1 0x1 DUP2 GT ISZERO PUSH2 0x91D JUMPI PUSH2 0x91C PUSH2 0x1BF1 JUMP JUMPDEST JUMPDEST DUP2 MSTORE POP SWAP1 POP PUSH1 0x1 PUSH1 0x0 CALLER PUSH20 0xFFFFFFFFFFFFFFFFFFFFFFFFFFFFFFFFFFFFFFFF AND PUSH20 0xFFFFFFFFFFFFFFFFFFFFFFFFFFFFFFFFFFFFFFFF AND DUP2 MSTORE PUSH1 0x20 ADD SWAP1 DUP2 MSTORE PUSH1 0x20 ADD PUSH1 0x0 KECCAK256 DUP2 SWAP1 DUP1 PUSH1 0x1 DUP2 SLOAD ADD DUP1 DUP3 SSTORE DUP1 SWAP2 POP POP PUSH1 0x1 SWAP1 SUB SWAP1 PUSH1 0x0 MSTORE PUSH1 0x20 PUSH1 0x0 KECCAK256 SWAP1 PUSH1 0x4 MUL ADD PUSH1 0x0 SWAP1 SWAP2 SWAP1 SWAP2 SWAP1 SWAP2 POP PUSH1 0x0 DUP3 ADD MLOAD DUP2 PUSH1 0x0 ADD SSTORE PUSH1 0x20 DUP3 ADD MLOAD DUP2 PUSH1 0x1 ADD PUSH1 0x0 PUSH2 0x100 EXP DUP2 SLOAD DUP2 PUSH20 0xFFFFFFFFFFFFFFFFFFFFFFFFFFFFFFFFFFFFFFFF MUL NOT AND SWAP1 DUP4 PUSH20 0xFFFFFFFFFFFFFFFFFFFFFFFFFFFFFFFFFFFFFFFF AND MUL OR SWAP1 SSTORE POP PUSH1 0x40 DUP3 ADD MLOAD DUP2 PUSH1 0x2 ADD SWAP1 DUP2 PUSH2 0x9F1 SWAP2 SWAP1 PUSH2 0x24BB JUMP JUMPDEST POP PUSH1 0x60 DUP3 ADD MLOAD DUP2 PUSH1 0x3 ADD PUSH1 0x0 PUSH2 0x100 EXP DUP2 SLOAD DUP2 PUSH1 0xFF MUL NOT AND SWAP1 DUP4 PUSH1 0x1 DUP2 GT ISZERO PUSH2 0xA1D JUMPI PUSH2 0xA1C PUSH2 0x1BF1 JUMP JUMPDEST JUMPDEST MUL OR SWAP1 SSTORE POP POP POP POP POP POP POP POP JUMP JUMPDEST PUSH1 0x60 PUSH1 0x1 PUSH1 0x0 CALLER PUSH20 0xFFFFFFFFFFFFFFFFFFFFFFFFFFFFFFFFFFFFFFFF AND PUSH20 0xFFFFFFFFFFFFFFFFFFFFFFFFFFFFFFFFFFFFFFFF AND DUP2 MSTORE PUSH1 0x20 ADD SWAP1 DUP2 MSTORE PUSH1 0x20 ADD PUSH1 0x0 KECCAK256 DUP1 SLOAD DUP1 PUSH1 0x20 MUL PUSH1 0x20 ADD PUSH1 0x40 MLOAD SWAP1 DUP2 ADD PUSH1 0x40 MSTORE DUP1 SWAP3 SWAP2 SWAP1 DUP2 DUP2 MSTORE PUSH1 0x20 ADD PUSH1 0x0 SWAP1 JUMPDEST DUP3 DUP3 LT ISZERO PUSH2 0xBEB JUMPI DUP4 DUP3 SWAP1 PUSH1 0x0 MSTORE PUSH1 0x20 PUSH1 0x0 KECCAK256 SWAP1 PUSH1 0x4 MUL ADD PUSH1 0x40 MLOAD DUP1 PUSH1 0x80 ADD PUSH1 0x40 MSTORE SWAP1 DUP2 PUSH1 0x0 DUP3 ADD SLOAD DUP2 MSTORE PUSH1 0x20 ADD PUSH1 0x1 DUP3 ADD PUSH1 0x0 SWAP1 SLOAD SWAP1 PUSH2 0x100 EXP SWAP1 DIV PUSH20 0xFFFFFFFFFFFFFFFFFFFFFFFFFFFFFFFFFFFFFFFF AND PUSH20 0xFFFFFFFFFFFFFFFFFFFFFFFFFFFFFFFFFFFFFFFF AND PUSH20 0xFFFFFFFFFFFFFFFFFFFFFFFFFFFFFFFFFFFFFFFF AND DUP2 MSTORE PUSH1 0x20 ADD PUSH1 0x2 DUP3 ADD DUP1 SLOAD PUSH2 0xB1F SWAP1 PUSH2 0x1FE8 JUMP JUMPDEST DUP1 PUSH1 0x1F ADD PUSH1 0x20 DUP1 SWAP2 DIV MUL PUSH1 0x20 ADD PUSH1 0x40 MLOAD SWAP1 DUP2 ADD PUSH1 0x40 MSTORE DUP1 SWAP3 SWAP2 SWAP1 DUP2 DUP2 MSTORE PUSH1 0x20 ADD DUP3 DUP1 SLOAD PUSH2 0xB4B SWAP1 PUSH2 0x1FE8 JUMP JUMPDEST DUP1 ISZERO PUSH2 0xB98 JUMPI DUP1 PUSH1 0x1F LT PUSH2 0xB6D JUMPI PUSH2 0x100 DUP1 DUP4 SLOAD DIV MUL DUP4 MSTORE SWAP2 PUSH1 0x20 ADD SWAP2 PUSH2 0xB98 JUMP JUMPDEST DUP3 ADD SWAP2 SWAP1 PUSH1 0x0 MSTORE PUSH1 0x20 PUSH1 0x0 KECCAK256 SWAP1 JUMPDEST DUP2 SLOAD DUP2 MSTORE SWAP1 PUSH1 0x1 ADD SWAP1 PUSH1 0x20 ADD DUP1 DUP4 GT PUSH2 0xB7B JUMPI DUP3 SWAP1 SUB PUSH1 0x1F AND DUP3 ADD SWAP2 JUMPDEST POP POP POP POP POP DUP2 MSTORE PUSH1 0x20 ADD PUSH1 0x3 DUP3 ADD PUSH1 0x0 SWAP1 SLOAD SWAP1 PUSH2 0x100 EXP SWAP1 DIV PUSH1 0xFF AND PUSH1 0x1 DUP2 GT ISZERO PUSH2 0xBC6 JUMPI PUSH2 0xBC5 PUSH2 0x1BF1 JUMP JUMPDEST JUMPDEST PUSH1 0x1 DUP2 GT ISZERO PUSH2 0xBD8 JUMPI PUSH2 0xBD7 PUSH2 0x1BF1 JUMP JUMPDEST JUMPDEST DUP2 MSTORE POP POP DUP2 MSTORE PUSH1 0x20 ADD SWAP1 PUSH1 0x1 ADD SWAP1 PUSH2 0xA8C JUMP JUMPDEST POP POP POP POP SWAP1 POP SWAP1 JUMP JUMPDEST PUSH1 0x0 DUP1 PUSH1 0x60 PUSH1 0x0 DUP1 PUSH1 0x0 DUP1 PUSH1 0x0 PUSH2 0xC09 PUSH2 0x1817 JUMP JUMPDEST PUSH1 0x0 JUMPDEST PUSH1 0x1 PUSH1 0x0 CALLER PUSH20 0xFFFFFFFFFFFFFFFFFFFFFFFFFFFFFFFFFFFFFFFF AND PUSH20 0xFFFFFFFFFFFFFFFFFFFFFFFFFFFFFFFFFFFFFFFF AND DUP2 MSTORE PUSH1 0x20 ADD SWAP1 DUP2 MSTORE PUSH1 0x20 ADD PUSH1 0x0 KECCAK256 DUP1 SLOAD SWAP1 POP DUP2 LT ISZERO PUSH2 0xE70 JUMPI DUP11 PUSH1 0x1 PUSH1 0x0 CALLER PUSH20 0xFFFFFFFFFFFFFFFFFFFFFFFFFFFFFFFFFFFFFFFF AND PUSH20 0xFFFFFFFFFFFFFFFFFFFFFFFFFFFFFFFFFFFFFFFF AND DUP2 MSTORE PUSH1 0x20 ADD SWAP1 DUP2 MSTORE PUSH1 0x20 ADD PUSH1 0x0 KECCAK256 DUP3 DUP2 SLOAD DUP2 LT PUSH2 0xCA8 JUMPI PUSH2 0xCA7 PUSH2 0x1F8A JUMP JUMPDEST JUMPDEST SWAP1 PUSH1 0x0 MSTORE PUSH1 0x20 PUSH1 0x0 KECCAK256 SWAP1 PUSH1 0x4 MUL ADD PUSH1 0x0 ADD SLOAD SUB PUSH2 0xE5D JUMPI PUSH1 0x1 PUSH1 0x0 CALLER PUSH20 0xFFFFFFFFFFFFFFFFFFFFFFFFFFFFFFFFFFFFFFFF AND PUSH20 0xFFFFFFFFFFFFFFFFFFFFFFFFFFFFFFFFFFFFFFFF AND DUP2 MSTORE PUSH1 0x20 ADD SWAP1 DUP2 MSTORE PUSH1 0x20 ADD PUSH1 0x0 KECCAK256 DUP2 DUP2 SLOAD DUP2 LT PUSH2 0xD10 JUMPI PUSH2 0xD0F PUSH2 0x1F8A JUMP JUMPDEST JUMPDEST SWAP1 PUSH1 0x0 MSTORE PUSH1 0x20 PUSH1 0x0 KECCAK256 SWAP1 PUSH1 0x4 MUL ADD PUSH1 0x40 MLOAD DUP1 PUSH1 0x80 ADD PUSH1 0x40 MSTORE SWAP1 DUP2 PUSH1 0x0 DUP3 ADD SLOAD DUP2 MSTORE PUSH1 0x20 ADD PUSH1 0x1 DUP3 ADD PUSH1 0x0 SWAP1 SLOAD SWAP1 PUSH2 0x100 EXP SWAP1 DIV PUSH20 0xFFFFFFFFFFFFFFFFFFFFFFFFFFFFFFFFFFFFFFFF AND PUSH20 0xFFFFFFFFFFFFFFFFFFFFFFFFFFFFFFFFFFFFFFFF AND PUSH20 0xFFFFFFFFFFFFFFFFFFFFFFFFFFFFFFFFFFFFFFFF AND DUP2 MSTORE PUSH1 0x20 ADD PUSH1 0x2 DUP3 ADD DUP1 SLOAD PUSH2 0xD99 SWAP1 PUSH2 0x1FE8 JUMP JUMPDEST DUP1 PUSH1 0x1F ADD PUSH1 0x20 DUP1 SWAP2 DIV MUL PUSH1 0x20 ADD PUSH1 0x40 MLOAD SWAP1 DUP2 ADD PUSH1 0x40 MSTORE DUP1 SWAP3 SWAP2 SWAP1 DUP2 DUP2 MSTORE PUSH1 0x20 ADD DUP3 DUP1 SLOAD PUSH2 0xDC5 SWAP1 PUSH2 0x1FE8 JUMP JUMPDEST DUP1 ISZERO PUSH2 0xE12 JUMPI DUP1 PUSH1 0x1F LT PUSH2 0xDE7 JUMPI PUSH2 0x100 DUP1 DUP4 SLOAD DIV MUL DUP4 MSTORE SWAP2 PUSH1 0x20 ADD SWAP2 PUSH2 0xE12 JUMP JUMPDEST DUP3 ADD SWAP2 SWAP1 PUSH1 0x0 MSTORE PUSH1 0x20 PUSH1 0x0 KECCAK256 SWAP1 JUMPDEST DUP2 SLOAD DUP2 MSTORE SWAP1 PUSH1 0x1 ADD SWAP1 PUSH1 0x20 ADD DUP1 DUP4 GT PUSH2 0xDF5 JUMPI DUP3 SWAP1 SUB PUSH1 0x1F AND DUP3 ADD SWAP2 JUMPDEST POP POP POP POP POP DUP2 MSTORE PUSH1 0x20 ADD PUSH1 0x3 DUP3 ADD PUSH1 0x0 SWAP1 SLOAD SWAP1 PUSH2 0x100 EXP SWAP1 DIV PUSH1 0xFF AND PUSH1 0x1 DUP2 GT ISZERO PUSH2 0xE40 JUMPI PUSH2 0xE3F PUSH2 0x1BF1 JUMP JUMPDEST JUMPDEST PUSH1 0x1 DUP2 GT ISZERO PUSH2 0xE52 JUMPI PUSH2 0xE51 PUSH2 0x1BF1 JUMP JUMPDEST JUMPDEST DUP2 MSTORE POP POP SWAP2 POP PUSH2 0xE70 JUMP JUMPDEST DUP1 DUP1 PUSH2 0xE68 SWAP1 PUSH2 0x2048 JUMP JUMPDEST SWAP2 POP POP PUSH2 0xC0C JUMP JUMPDEST POP DUP10 DUP2 PUSH1 0x0 ADD MLOAD EQ PUSH2 0xEB7 JUMPI PUSH1 0x40 MLOAD PUSH32 0x8C379A000000000000000000000000000000000000000000000000000000000 DUP2 MSTORE PUSH1 0x4 ADD PUSH2 0xEAE SWAP1 PUSH2 0x20DC JUMP JUMPDEST PUSH1 0x40 MLOAD DUP1 SWAP2 SUB SWAP1 REVERT JUMPDEST PUSH2 0xEBF PUSH2 0x178A JUMP JUMPDEST PUSH1 0x0 JUMPDEST PUSH1 0x0 DUP1 CALLER PUSH20 0xFFFFFFFFFFFFFFFFFFFFFFFFFFFFFFFFFFFFFFFF AND PUSH20 0xFFFFFFFFFFFFFFFFFFFFFFFFFFFFFFFFFFFFFFFF AND DUP2 MSTORE PUSH1 0x20 ADD SWAP1 DUP2 MSTORE PUSH1 0x20 ADD PUSH1 0x0 KECCAK256 DUP1 SLOAD SWAP1 POP DUP2 LT ISZERO PUSH2 0x11C3 JUMPI DUP3 PUSH1 0x0 ADD MLOAD PUSH1 0x0 DUP1 CALLER PUSH20 0xFFFFFFFFFFFFFFFFFFFFFFFFFFFFFFFFFFFFFFFF AND PUSH20 0xFFFFFFFFFFFFFFFFFFFFFFFFFFFFFFFFFFFFFFFF AND DUP2 MSTORE PUSH1 0x20 ADD SWAP1 DUP2 MSTORE PUSH1 0x20 ADD PUSH1 0x0 KECCAK256 DUP3 DUP2 SLOAD DUP2 LT PUSH2 0xF60 JUMPI PUSH2 0xF5F PUSH2 0x1F8A JUMP JUMPDEST JUMPDEST SWAP1 PUSH1 0x0 MSTORE PUSH1 0x20 PUSH1 0x0 KECCAK256 SWAP1 PUSH1 0x8 MUL ADD PUSH1 0x0 ADD PUSH1 0x0 ADD SLOAD SUB PUSH2 0x11B0 JUMPI PUSH1 0x0 DUP1 CALLER PUSH20 0xFFFFFFFFFFFFFFFFFFFFFFFFFFFFFFFFFFFFFFFF AND PUSH20 0xFFFFFFFFFFFFFFFFFFFFFFFFFFFFFFFFFFFFFFFF AND DUP2 MSTORE PUSH1 0x20 ADD SWAP1 DUP2 MSTORE PUSH1 0x20 ADD PUSH1 0x0 KECCAK256 DUP2 DUP2 SLOAD DUP2 LT PUSH2 0xFCA JUMPI PUSH2 0xFC9 PUSH2 0x1F8A JUMP JUMPDEST JUMPDEST SWAP1 PUSH1 0x0 MSTORE PUSH1 0x20 PUSH1 0x0 KECCAK256 SWAP1 PUSH1 0x8 MUL ADD PUSH1 0x40 MLOAD DUP1 PUSH1 0xA0 ADD PUSH1 0x40 MSTORE SWAP1 DUP2 PUSH1 0x0 DUP3 ADD PUSH1 0x40 MLOAD DUP1 PUSH1 0x80 ADD PUSH1 0x40 MSTORE SWAP1 DUP2 PUSH1 0x0 DUP3 ADD SLOAD DUP2 MSTORE PUSH1 0x20 ADD PUSH1 0x1 DUP3 ADD PUSH1 0x0 SWAP1 SLOAD SWAP1 PUSH2 0x100 EXP SWAP1 DIV PUSH20 0xFFFFFFFFFFFFFFFFFFFFFFFFFFFFFFFFFFFFFFFF AND PUSH20 0xFFFFFFFFFFFFFFFFFFFFFFFFFFFFFFFFFFFFFFFF AND PUSH20 0xFFFFFFFFFFFFFFFFFFFFFFFFFFFFFFFFFFFFFFFF AND DUP2 MSTORE PUSH1 0x20 ADD PUSH1 0x2 DUP3 ADD DUP1 SLOAD PUSH2 0x1063 SWAP1 PUSH2 0x1FE8 JUMP JUMPDEST DUP1 PUSH1 0x1F ADD PUSH1 0x20 DUP1 SWAP2 DIV MUL PUSH1 0x20 ADD PUSH1 0x40 MLOAD SWAP1 DUP2 ADD PUSH1 0x40 MSTORE DUP1 SWAP3 SWAP2 SWAP1 DUP2 DUP2 MSTORE PUSH1 0x20 ADD DUP3 DUP1 SLOAD PUSH2 0x108F SWAP1 PUSH2 0x1FE8 JUMP JUMPDEST DUP1 ISZERO PUSH2 0x10DC JUMPI DUP1 PUSH1 0x1F LT PUSH2 0x10B1 JUMPI PUSH2 0x100 DUP1 DUP4 SLOAD DIV MUL DUP4 MSTORE SWAP2 PUSH1 0x20 ADD SWAP2 PUSH2 0x10DC JUMP JUMPDEST DUP3 ADD SWAP2 SWAP1 PUSH1 0x0 MSTORE PUSH1 0x20 PUSH1 0x0 KECCAK256 SWAP1 JUMPDEST DUP2 SLOAD DUP2 MSTORE SWAP1 PUSH1 0x1 ADD SWAP1 PUSH1 0x20 ADD DUP1 DUP4 GT PUSH2 0x10BF JUMPI DUP3 SWAP1 SUB PUSH1 0x1F AND DUP3 ADD SWAP2 JUMPDEST POP POP POP POP POP DUP2 MSTORE PUSH1 0x20 ADD PUSH1 0x3 DUP3 ADD PUSH1 0x0 SWAP1 SLOAD SWAP1 PUSH2 0x100 EXP SWAP1 DIV PUSH1 0xFF AND PUSH1 0x1 DUP2 GT ISZERO PUSH2 0x110A JUMPI PUSH2 0x1109 PUSH2 0x1BF1 JUMP JUMPDEST JUMPDEST PUSH1 0x1 DUP2 GT ISZERO PUSH2 0x111C JUMPI PUSH2 0x111B PUSH2 0x1BF1 JUMP JUMPDEST JUMPDEST DUP2 MSTORE POP POP DUP2 MSTORE PUSH1 0x20 ADD PUSH1 0x4 DUP3 ADD PUSH1 0x0 SWAP1 SLOAD SWAP1 PUSH2 0x100 EXP SWAP1 DIV PUSH20 0xFFFFFFFFFFFFFFFFFFFFFFFFFFFFFFFFFFFFFFFF AND PUSH20 0xFFFFFFFFFFFFFFFFFFFFFFFFFFFFFFFFFFFFFFFF AND PUSH20 0xFFFFFFFFFFFFFFFFFFFFFFFFFFFFFFFFFFFFFFFF AND DUP2 MSTORE PUSH1 0x20 ADD PUSH1 0x5 DUP3 ADD SLOAD DUP2 MSTORE PUSH1 0x20 ADD PUSH1 0x6 DUP3 ADD SLOAD DUP2 MSTORE PUSH1 0x20 ADD PUSH1 0x7 DUP3 ADD PUSH1 0x0 SWAP1 SLOAD SWAP1 PUSH2 0x100 EXP SWAP1 DIV PUSH1 0xFF AND ISZERO ISZERO ISZERO ISZERO DUP2 MSTORE POP POP SWAP2 POP PUSH2 0x11C3 JUMP JUMPDEST DUP1 DUP1 PUSH2 0x11BB SWAP1 PUSH2 0x2048 JUMP JUMPDEST SWAP2 POP POP PUSH2 0xEC2 JUMP JUMPDEST POP PUSH1 0x0 PUSH20 0xFFFFFFFFFFFFFFFFFFFFFFFFFFFFFFFFFFFFFFFF AND DUP2 PUSH1 0x20 ADD MLOAD PUSH20 0xFFFFFFFFFFFFFFFFFFFFFFFFFFFFFFFFFFFFFFFF AND SUB PUSH2 0x1237 JUMPI PUSH1 0x40 MLOAD PUSH32 0x8C379A000000000000000000000000000000000000000000000000000000000 DUP2 MSTORE PUSH1 0x4 ADD PUSH2 0x122E SWAP1 PUSH2 0x25D9 JUMP JUMPDEST PUSH1 0x40 MLOAD DUP1 SWAP2 SUB SWAP1 REVERT JUMPDEST DUP2 PUSH1 0x0 ADD MLOAD DUP3 PUSH1 0x20 ADD MLOAD DUP4 PUSH1 0x40 ADD MLOAD DUP5 PUSH1 0x60 ADD MLOAD DUP5 PUSH1 0x20 ADD MLOAD DUP6 PUSH1 0x40 ADD MLOAD DUP7 PUSH1 0x60 ADD MLOAD DUP8 PUSH1 0x80 ADD MLOAD SWAP10 POP SWAP10 POP SWAP10 POP SWAP10 POP SWAP10 POP SWAP10 POP SWAP10 POP SWAP10 POP POP POP SWAP2 SWAP4 SWAP6 SWAP8 POP SWAP2 SWAP4 SWAP6 SWAP8 JUMP JUMPDEST PUSH1 0x0 PUSH1 0x1 PUSH1 0x0 CALLER PUSH20 0xFFFFFFFFFFFFFFFFFFFFFFFFFFFFFFFFFFFFFFFF AND PUSH20 0xFFFFFFFFFFFFFFFFFFFFFFFFFFFFFFFFFFFFFFFF AND DUP2 MSTORE PUSH1 0x20 ADD SWAP1 DUP2 MSTORE PUSH1 0x20 ADD PUSH1 0x0 KECCAK256 DUP1 SLOAD SWAP1 POP GT PUSH2 0x1301 JUMPI PUSH1 0x40 MLOAD PUSH32 0x8C379A000000000000000000000000000000000000000000000000000000000 DUP2 MSTORE PUSH1 0x4 ADD PUSH2 0x12F8 SWAP1 PUSH2 0x1F6A JUMP JUMPDEST PUSH1 0x40 MLOAD DUP1 SWAP2 SUB SWAP1 REVERT JUMPDEST PUSH2 0x1309 PUSH2 0x1817 JUMP JUMPDEST PUSH1 0x0 JUMPDEST PUSH1 0x1 PUSH1 0x0 CALLER PUSH20 0xFFFFFFFFFFFFFFFFFFFFFFFFFFFFFFFFFFFFFFFF AND PUSH20 0xFFFFFFFFFFFFFFFFFFFFFFFFFFFFFFFFFFFFFFFF AND DUP2 MSTORE PUSH1 0x20 ADD SWAP1 DUP2 MSTORE PUSH1 0x20 ADD PUSH1 0x0 KECCAK256 DUP1 SLOAD SWAP1 POP DUP2 LT ISZERO PUSH2 0x1570 JUMPI DUP5 PUSH1 0x1 PUSH1 0x0 CALLER PUSH20 0xFFFFFFFFFFFFFFFFFFFFFFFFFFFFFFFFFFFFFFFF AND PUSH20 0xFFFFFFFFFFFFFFFFFFFFFFFFFFFFFFFFFFFFFFFF AND DUP2 MSTORE PUSH1 0x20 ADD SWAP1 DUP2 MSTORE PUSH1 0x20 ADD PUSH1 0x0 KECCAK256 DUP3 DUP2 SLOAD DUP2 LT PUSH2 0x13A8 JUMPI PUSH2 0x13A7 PUSH2 0x1F8A JUMP JUMPDEST JUMPDEST SWAP1 PUSH1 0x0 MSTORE PUSH1 0x20 PUSH1 0x0 KECCAK256 SWAP1 PUSH1 0x4 MUL ADD PUSH1 0x0 ADD SLOAD SUB PUSH2 0x155D JUMPI PUSH1 0x1 PUSH1 0x0 CALLER PUSH20 0xFFFFFFFFFFFFFFFFFFFFFFFFFFFFFFFFFFFFFFFF AND PUSH20 0xFFFFFFFFFFFFFFFFFFFFFFFFFFFFFFFFFFFFFFFF AND DUP2 MSTORE PUSH1 0x20 ADD SWAP1 DUP2 MSTORE PUSH1 0x20 ADD PUSH1 0x0 KECCAK256 DUP2 DUP2 SLOAD DUP2 LT PUSH2 0x1410 JUMPI PUSH2 0x140F PUSH2 0x1F8A JUMP JUMPDEST JUMPDEST SWAP1 PUSH1 0x0 MSTORE PUSH1 0x20 PUSH1 0x0 KECCAK256 SWAP1 PUSH1 0x4 MUL ADD PUSH1 0x40 MLOAD DUP1 PUSH1 0x80 ADD PUSH1 0x40 MSTORE SWAP1 DUP2 PUSH1 0x0 DUP3 ADD SLOAD DUP2 MSTORE PUSH1 0x20 ADD PUSH1 0x1 DUP3 ADD PUSH1 0x0 SWAP1 SLOAD SWAP1 PUSH2 0x100 EXP SWAP1 DIV PUSH20 0xFFFFFFFFFFFFFFFFFFFFFFFFFFFFFFFFFFFFFFFF AND PUSH20 0xFFFFFFFFFFFFFFFFFFFFFFFFFFFFFFFFFFFFFFFF AND PUSH20 0xFFFFFFFFFFFFFFFFFFFFFFFFFFFFFFFFFFFFFFFF AND DUP2 MSTORE PUSH1 0x20 ADD PUSH1 0x2 DUP3 ADD DUP1 SLOAD PUSH2 0x1499 SWAP1 PUSH2 0x1FE8 JUMP JUMPDEST DUP1 PUSH1 0x1F ADD PUSH1 0x20 DUP1 SWAP2 DIV MUL PUSH1 0x20 ADD PUSH1 0x40 MLOAD SWAP1 DUP2 ADD PUSH1 0x40 MSTORE DUP1 SWAP3 SWAP2 SWAP1 DUP2 DUP2 MSTORE PUSH1 0x20 ADD DUP3 DUP1 SLOAD PUSH2 0x14C5 SWAP1 PUSH2 0x1FE8 JUMP JUMPDEST DUP1 ISZERO PUSH2 0x1512 JUMPI DUP1 PUSH1 0x1F LT PUSH2 0x14E7 JUMPI PUSH2 0x100 DUP1 DUP4 SLOAD DIV MUL DUP4 MSTORE SWAP2 PUSH1 0x20 ADD SWAP2 PUSH2 0x1512 JUMP JUMPDEST DUP3 ADD SWAP2 SWAP1 PUSH1 0x0 MSTORE PUSH1 0x20 PUSH1 0x0 KECCAK256 SWAP1 JUMPDEST DUP2 SLOAD DUP2 MSTORE SWAP1 PUSH1 0x1 ADD SWAP1 PUSH1 0x20 ADD DUP1 DUP4 GT PUSH2 0x14F5 JUMPI DUP3 SWAP1 SUB PUSH1 0x1F AND DUP3 ADD SWAP2 JUMPDEST POP POP POP POP POP DUP2 MSTORE PUSH1 0x20 ADD PUSH1 0x3 DUP3 ADD PUSH1 0x0 SWAP1 SLOAD SWAP1 PUSH2 0x100 EXP SWAP1 DIV PUSH1 0xFF AND PUSH1 0x1 DUP2 GT ISZERO PUSH2 0x1540 JUMPI PUSH2 0x153F PUSH2 0x1BF1 JUMP JUMPDEST JUMPDEST PUSH1 0x1 DUP2 GT ISZERO PUSH2 0x1552 JUMPI PUSH2 0x1551 PUSH2 0x1BF1 JUMP JUMPDEST JUMPDEST DUP2 MSTORE POP POP SWAP2 POP PUSH2 0x1570 JUMP JUMPDEST DUP1 DUP1 PUSH2 0x1568 SWAP1 PUSH2 0x2048 JUMP JUMPDEST SWAP2 POP POP PUSH2 0x130C JUMP JUMPDEST POP DUP4 DUP2 PUSH1 0x0 ADD MLOAD EQ PUSH2 0x15B7 JUMPI PUSH1 0x40 MLOAD PUSH32 0x8C379A000000000000000000000000000000000000000000000000000000000 DUP2 MSTORE PUSH1 0x4 ADD PUSH2 0x15AE SWAP1 PUSH2 0x2645 JUMP JUMPDEST PUSH1 0x40 MLOAD DUP1 SWAP2 SUB SWAP1 REVERT JUMPDEST PUSH1 0x0 PUSH1 0x40 MLOAD DUP1 PUSH1 0xA0 ADD PUSH1 0x40 MSTORE DUP1 DUP4 DUP2 MSTORE PUSH1 0x20 ADD DUP8 PUSH20 0xFFFFFFFFFFFFFFFFFFFFFFFFFFFFFFFFFFFFFFFF AND DUP2 MSTORE PUSH1 0x20 ADD DUP6 DUP2 MSTORE PUSH1 0x20 ADD DUP5 DUP2 MSTORE PUSH1 0x20 ADD PUSH1 0x1 ISZERO ISZERO DUP2 MSTORE POP SWAP1 POP PUSH1 0x0 DUP1 CALLER PUSH20 0xFFFFFFFFFFFFFFFFFFFFFFFFFFFFFFFFFFFFFFFF AND PUSH20 0xFFFFFFFFFFFFFFFFFFFFFFFFFFFFFFFFFFFFFFFF AND DUP2 MSTORE PUSH1 0x20 ADD SWAP1 DUP2 MSTORE PUSH1 0x20 ADD PUSH1 0x0 KECCAK256 DUP2 SWAP1 DUP1 PUSH1 0x1 DUP2 SLOAD ADD DUP1 DUP3 SSTORE DUP1 SWAP2 POP POP PUSH1 0x1 SWAP1 SUB SWAP1 PUSH1 0x0 MSTORE PUSH1 0x20 PUSH1 0x0 KECCAK256 SWAP1 PUSH1 0x8 MUL ADD PUSH1 0x0 SWAP1 SWAP2 SWAP1 SWAP2 SWAP1 SWAP2 POP PUSH1 0x0 DUP3 ADD MLOAD DUP2 PUSH1 0x0 ADD PUSH1 0x0 DUP3 ADD MLOAD DUP2 PUSH1 0x0 ADD SSTORE PUSH1 0x20 DUP3 ADD MLOAD DUP2 PUSH1 0x1 ADD PUSH1 0x0 PUSH2 0x100 EXP DUP2 SLOAD DUP2 PUSH20 0xFFFFFFFFFFFFFFFFFFFFFFFFFFFFFFFFFFFFFFFF MUL NOT AND SWAP1 DUP4 PUSH20 0xFFFFFFFFFFFFFFFFFFFFFFFFFFFFFFFFFFFFFFFF AND MUL OR SWAP1 SSTORE POP PUSH1 0x40 DUP3 ADD MLOAD DUP2 PUSH1 0x2 ADD SWAP1 DUP2 PUSH2 0x16D2 SWAP2 SWAP1 PUSH2 0x24BB JUMP JUMPDEST POP PUSH1 0x60 DUP3 ADD MLOAD DUP2 PUSH1 0x3 ADD PUSH1 0x0 PUSH2 0x100 EXP DUP2 SLOAD DUP2 PUSH1 0xFF MUL NOT AND SWAP1 DUP4 PUSH1 0x1 DUP2 GT ISZERO PUSH2 0x16FE JUMPI PUSH2 0x16FD PUSH2 0x1BF1 JUMP JUMPDEST JUMPDEST MUL OR SWAP1 SSTORE POP POP POP PUSH1 0x20 DUP3 ADD MLOAD DUP2 PUSH1 0x4 ADD PUSH1 0x0 PUSH2 0x100 EXP DUP2 SLOAD DUP2 PUSH20 0xFFFFFFFFFFFFFFFFFFFFFFFFFFFFFFFFFFFFFFFF MUL NOT AND SWAP1 DUP4 PUSH20 0xFFFFFFFFFFFFFFFFFFFFFFFFFFFFFFFFFFFFFFFF AND MUL OR SWAP1 SSTORE POP PUSH1 0x40 DUP3 ADD MLOAD DUP2 PUSH1 0x5 ADD SSTORE PUSH1 0x60 DUP3 ADD MLOAD DUP2 PUSH1 0x6 ADD SSTORE PUSH1 0x80 DUP3 ADD MLOAD DUP2 PUSH1 0x7 ADD PUSH1 0x0 PUSH2 0x100 EXP DUP2 SLOAD DUP2 PUSH1 0xFF MUL NOT AND SWAP1 DUP4 ISZERO ISZERO MUL OR SWAP1 SSTORE POP POP POP POP POP POP POP POP POP JUMP JUMPDEST PUSH1 0x40 MLOAD DUP1 PUSH1 0xA0 ADD PUSH1 0x40 MSTORE DUP1 PUSH2 0x179D PUSH2 0x1817 JUMP JUMPDEST DUP2 MSTORE PUSH1 0x20 ADD PUSH1 0x0 PUSH20 0xFFFFFFFFFFFFFFFFFFFFFFFFFFFFFFFFFFFFFFFF AND DUP2 MSTORE PUSH1 0x20 ADD PUSH1 0x0 DUP2 MSTORE PUSH1 0x20 ADD PUSH1 0x0 DUP2 MSTORE PUSH1 0x20 ADD PUSH1 0x0 ISZERO ISZERO DUP2 MSTORE POP SWAP1 JUMP JUMPDEST POP DUP1 SLOAD PUSH2 0x17E3 SWAP1 PUSH2 0x1FE8 JUMP JUMPDEST PUSH1 0x0 DUP3 SSTORE DUP1 PUSH1 0x1F LT PUSH2 0x17F5 JUMPI POP PUSH2 0x1814 JUMP JUMPDEST PUSH1 0x1F ADD PUSH1 0x20 SWAP1 DIV SWAP1 PUSH1 0x0 MSTORE PUSH1 0x20 PUSH1 0x0 KECCAK256 SWAP1 DUP2 ADD SWAP1 PUSH2 0x1813 SWAP2 SWAP1 PUSH2 0x1867 JUMP JUMPDEST JUMPDEST POP JUMP JUMPDEST PUSH1 0x40 MLOAD DUP1 PUSH1 0x80 ADD PUSH1 0x40 MSTORE DUP1 PUSH1 0x0 DUP2 MSTORE PUSH1 0x20 ADD PUSH1 0x0 PUSH20 0xFFFFFFFFFFFFFFFFFFFFFFFFFFFFFFFFFFFFFFFF AND DUP2 MSTORE PUSH1 0x20 ADD PUSH1 0x60 DUP2 MSTORE PUSH1 0x20 ADD PUSH1 0x0 PUSH1 0x1 DUP2 GT ISZERO PUSH2 0x1861 JUMPI PUSH2 0x1860 PUSH2 0x1BF1 JUMP JUMPDEST JUMPDEST DUP2 MSTORE POP SWAP1 JUMP JUMPDEST JUMPDEST DUP1 DUP3 GT ISZERO PUSH2 0x1880 JUMPI PUSH1 0x0 DUP2 PUSH1 0x0 SWAP1 SSTORE POP PUSH1 0x1 ADD PUSH2 0x1868 JUMP JUMPDEST POP SWAP1 JUMP JUMPDEST PUSH1 0x0 DUP2 SWAP1 POP SWAP2 SWAP1 POP JUMP JUMPDEST PUSH2 0x1897 DUP2 PUSH2 0x1884 JUMP JUMPDEST DUP3 MSTORE POP POP JUMP JUMPDEST PUSH1 0x0 PUSH1 0x20 DUP3 ADD SWAP1 POP PUSH2 0x18B2 PUSH1 0x0 DUP4 ADD DUP5 PUSH2 0x188E JUMP JUMPDEST SWAP3 SWAP2 POP POP JUMP JUMPDEST PUSH1 0x0 PUSH1 0x40 MLOAD SWAP1 POP SWAP1 JUMP JUMPDEST PUSH1 0x0 DUP1 REVERT JUMPDEST PUSH1 0x0 DUP1 REVERT JUMPDEST PUSH2 0x18D5 DUP2 PUSH2 0x1884 JUMP JUMPDEST DUP2 EQ PUSH2 0x18E0 JUMPI PUSH1 0x0 DUP1 REVERT JUMPDEST POP JUMP JUMPDEST PUSH1 0x0 DUP2 CALLDATALOAD SWAP1 POP PUSH2 0x18F2 DUP2 PUSH2 0x18CC JUMP JUMPDEST SWAP3 SWAP2 POP POP JUMP JUMPDEST PUSH1 0x0 PUSH1 0x20 DUP3 DUP5 SUB SLT ISZERO PUSH2 0x190E JUMPI PUSH2 0x190D PUSH2 0x18C2 JUMP JUMPDEST JUMPDEST PUSH1 0x0 PUSH2 0x191C DUP5 DUP3 DUP6 ADD PUSH2 0x18E3 JUMP JUMPDEST SWAP2 POP POP SWAP3 SWAP2 POP POP JUMP JUMPDEST PUSH1 0x0 DUP1 REVERT JUMPDEST PUSH1 0x0 DUP1 REVERT JUMPDEST PUSH1 0x0 PUSH1 0x1F NOT PUSH1 0x1F DUP4 ADD AND SWAP1 POP SWAP2 SWAP1 POP JUMP JUMPDEST PUSH32 0x4E487B7100000000000000000000000000000000000000000000000000000000 PUSH1 0x0 MSTORE PUSH1 0x41 PUSH1 0x4 MSTORE PUSH1 0x24 PUSH1 0x0 REVERT JUMPDEST PUSH2 0x1978 DUP3 PUSH2 0x192F JUMP JUMPDEST DUP2 ADD DUP2 DUP2 LT PUSH8 0xFFFFFFFFFFFFFFFF DUP3 GT OR ISZERO PUSH2 0x1997 JUMPI PUSH2 0x1996 PUSH2 0x1940 JUMP JUMPDEST JUMPDEST DUP1 PUSH1 0x40 MSTORE POP POP POP JUMP JUMPDEST PUSH1 0x0 PUSH2 0x19AA PUSH2 0x18B8 JUMP JUMPDEST SWAP1 POP PUSH2 0x19B6 DUP3 DUP3 PUSH2 0x196F JUMP JUMPDEST SWAP2 SWAP1 POP JUMP JUMPDEST PUSH1 0x0 PUSH8 0xFFFFFFFFFFFFFFFF DUP3 GT ISZERO PUSH2 0x19D6 JUMPI PUSH2 0x19D5 PUSH2 0x1940 JUMP JUMPDEST JUMPDEST PUSH2 0x19DF DUP3 PUSH2 0x192F JUMP JUMPDEST SWAP1 POP PUSH1 0x20 DUP2 ADD SWAP1 POP SWAP2 SWAP1 POP JUMP JUMPDEST DUP3 DUP2 DUP4 CALLDATACOPY PUSH1 0x0 DUP4 DUP4 ADD MSTORE POP POP POP JUMP JUMPDEST PUSH1 0x0 PUSH2 0x1A0E PUSH2 0x1A09 DUP5 PUSH2 0x19BB JUMP JUMPDEST PUSH2 0x19A0 JUMP JUMPDEST SWAP1 POP DUP3 DUP2 MSTORE PUSH1 0x20 DUP2 ADD DUP5 DUP5 DUP5 ADD GT ISZERO PUSH2 0x1A2A JUMPI PUSH2 0x1A29 PUSH2 0x192A JUMP JUMPDEST JUMPDEST PUSH2 0x1A35 DUP5 DUP3 DUP6 PUSH2 0x19EC JUMP JUMPDEST POP SWAP4 SWAP3 POP POP POP JUMP JUMPDEST PUSH1 0x0 DUP3 PUSH1 0x1F DUP4 ADD SLT PUSH2 0x1A52 JUMPI PUSH2 0x1A51 PUSH2 0x1925 JUMP JUMPDEST JUMPDEST DUP2 CALLDATALOAD PUSH2 0x1A62 DUP5 DUP3 PUSH1 0x20 DUP7 ADD PUSH2 0x19FB JUMP JUMPDEST SWAP2 POP POP SWAP3 SWAP2 POP POP JUMP JUMPDEST PUSH1 0x0 DUP1 PUSH1 0x0 PUSH1 0x60 DUP5 DUP7 SUB SLT ISZERO PUSH2 0x1A84 JUMPI PUSH2 0x1A83 PUSH2 0x18C2 JUMP JUMPDEST JUMPDEST PUSH1 0x0 PUSH2 0x1A92 DUP7 DUP3 DUP8 ADD PUSH2 0x18E3 JUMP JUMPDEST SWAP4 POP POP PUSH1 0x20 DUP5 ADD CALLDATALOAD PUSH8 0xFFFFFFFFFFFFFFFF DUP2 GT ISZERO PUSH2 0x1AB3 JUMPI PUSH2 0x1AB2 PUSH2 0x18C7 JUMP JUMPDEST JUMPDEST PUSH2 0x1ABF DUP7 DUP3 DUP8 ADD PUSH2 0x1A3D JUMP JUMPDEST SWAP3 POP POP PUSH1 0x40 DUP5 ADD CALLDATALOAD PUSH8 0xFFFFFFFFFFFFFFFF DUP2 GT ISZERO PUSH2 0x1AE0 JUMPI PUSH2 0x1ADF PUSH2 0x18C7 JUMP JUMPDEST JUMPDEST PUSH2 0x1AEC DUP7 DUP3 DUP8 ADD PUSH2 0x1A3D JUMP JUMPDEST SWAP2 POP POP SWAP3 POP SWAP3 POP SWAP3 JUMP JUMPDEST PUSH1 0x0 DUP2 MLOAD SWAP1 POP SWAP2 SWAP1 POP JUMP JUMPDEST PUSH1 0x0 DUP3 DUP3 MSTORE PUSH1 0x20 DUP3 ADD SWAP1 POP SWAP3 SWAP2 POP POP JUMP JUMPDEST PUSH1 0x0 DUP2 SWAP1 POP PUSH1 0x20 DUP3 ADD SWAP1 POP SWAP2 SWAP1 POP JUMP JUMPDEST PUSH2 0x1B2B DUP2 PUSH2 0x1884 JUMP JUMPDEST DUP3 MSTORE POP POP JUMP JUMPDEST PUSH1 0x0 PUSH20 0xFFFFFFFFFFFFFFFFFFFFFFFFFFFFFFFFFFFFFFFF DUP3 AND SWAP1 POP SWAP2 SWAP1 POP JUMP JUMPDEST PUSH1 0x0 PUSH2 0x1B5C DUP3 PUSH2 0x1B31 JUMP JUMPDEST SWAP1 POP SWAP2 SWAP1 POP JUMP JUMPDEST PUSH2 0x1B6C DUP2 PUSH2 0x1B51 JUMP JUMPDEST DUP3 MSTORE POP POP JUMP JUMPDEST PUSH1 0x0 DUP2 MLOAD SWAP1 POP SWAP2 SWAP1 POP JUMP JUMPDEST PUSH1 0x0 DUP3 DUP3 MSTORE PUSH1 0x20 DUP3 ADD SWAP1 POP SWAP3 SWAP2 POP POP JUMP JUMPDEST PUSH1 0x0 JUMPDEST DUP4 DUP2 LT ISZERO PUSH2 0x1BAC JUMPI DUP1 DUP3 ADD MLOAD DUP2 DUP5 ADD MSTORE PUSH1 0x20 DUP2 ADD SWAP1 POP PUSH2 0x1B91 JUMP JUMPDEST PUSH1 0x0 DUP5 DUP5 ADD MSTORE POP POP POP POP JUMP JUMPDEST PUSH1 0x0 PUSH2 0x1BC3 DUP3 PUSH2 0x1B72 JUMP JUMPDEST PUSH2 0x1BCD DUP2 DUP6 PUSH2 0x1B7D JUMP JUMPDEST SWAP4 POP PUSH2 0x1BDD DUP2 DUP6 PUSH1 0x20 DUP7 ADD PUSH2 0x1B8E JUMP JUMPDEST PUSH2 0x1BE6 DUP2 PUSH2 0x192F JUMP JUMPDEST DUP5 ADD SWAP2 POP POP SWAP3 SWAP2 POP POP JUMP JUMPDEST PUSH32 0x4E487B7100000000000000000000000000000000000000000000000000000000 PUSH1 0x0 MSTORE PUSH1 0x21 PUSH1 0x4 MSTORE PUSH1 0x24 PUSH1 0x0 REVERT JUMPDEST PUSH1 0x2 DUP2 LT PUSH2 0x1C31 JUMPI PUSH2 0x1C30 PUSH2 0x1BF1 JUMP JUMPDEST JUMPDEST POP JUMP JUMPDEST PUSH1 0x0 DUP2 SWAP1 POP PUSH2 0x1C42 DUP3 PUSH2 0x1C20 JUMP JUMPDEST SWAP2 SWAP1 POP JUMP JUMPDEST PUSH1 0x0 PUSH2 0x1C52 DUP3 PUSH2 0x1C34 JUMP JUMPDEST SWAP1 POP SWAP2 SWAP1 POP JUMP JUMPDEST PUSH2 0x1C62 DUP2 PUSH2 0x1C47 JUMP JUMPDEST DUP3 MSTORE POP POP JUMP JUMPDEST PUSH1 0x0 PUSH1 0x80 DUP4 ADD PUSH1 0x0 DUP4 ADD MLOAD PUSH2 0x1C80 PUSH1 0x0 DUP7 ADD DUP3 PUSH2 0x1B22 JUMP JUMPDEST POP PUSH1 0x20 DUP4 ADD MLOAD PUSH2 0x1C93 PUSH1 0x20 DUP7 ADD DUP3 PUSH2 0x1B63 JUMP JUMPDEST POP PUSH1 0x40 DUP4 ADD MLOAD DUP5 DUP3 SUB PUSH1 0x40 DUP7 ADD MSTORE PUSH2 0x1CAB DUP3 DUP3 PUSH2 0x1BB8 JUMP JUMPDEST SWAP2 POP POP PUSH1 0x60 DUP4 ADD MLOAD PUSH2 0x1CC0 PUSH1 0x60 DUP7 ADD DUP3 PUSH2 0x1C59 JUMP JUMPDEST POP DUP1 SWAP2 POP POP SWAP3 SWAP2 POP POP JUMP JUMPDEST PUSH1 0x0 PUSH2 0x1CD7 DUP4 DUP4 PUSH2 0x1C68 JUMP JUMPDEST SWAP1 POP SWAP3 SWAP2 POP POP JUMP JUMPDEST PUSH1 0x0 PUSH1 0x20 DUP3 ADD SWAP1 POP SWAP2 SWAP1 POP JUMP JUMPDEST PUSH1 0x0 PUSH2 0x1CF7 DUP3 PUSH2 0x1AF6 JUMP JUMPDEST PUSH2 0x1D01 DUP2 DUP6 PUSH2 0x1B01 JUMP JUMPDEST SWAP4 POP DUP4 PUSH1 0x20 DUP3 MUL DUP6 ADD PUSH2 0x1D13 DUP6 PUSH2 0x1B12 JUMP JUMPDEST DUP1 PUSH1 0x0 JUMPDEST DUP6 DUP2 LT ISZERO PUSH2 0x1D4F JUMPI DUP5 DUP5 SUB DUP10 MSTORE DUP2 MLOAD PUSH2 0x1D30 DUP6 DUP3 PUSH2 0x1CCB JUMP JUMPDEST SWAP5 POP PUSH2 0x1D3B DUP4 PUSH2 0x1CDF JUMP JUMPDEST SWAP3 POP PUSH1 0x20 DUP11 ADD SWAP10 POP POP PUSH1 0x1 DUP2 ADD SWAP1 POP PUSH2 0x1D17 JUMP JUMPDEST POP DUP3 SWAP8 POP DUP8 SWAP6 POP POP POP POP POP POP SWAP3 SWAP2 POP POP JUMP JUMPDEST PUSH1 0x0 PUSH1 0x20 DUP3 ADD SWAP1 POP DUP2 DUP2 SUB PUSH1 0x0 DUP4 ADD MSTORE PUSH2 0x1D7B DUP2 DUP5 PUSH2 0x1CEC JUMP JUMPDEST SWAP1 POP SWAP3 SWAP2 POP POP JUMP JUMPDEST PUSH2 0x1D8C DUP2 PUSH2 0x1B51 JUMP JUMPDEST DUP3 MSTORE POP POP JUMP JUMPDEST PUSH1 0x0 DUP3 DUP3 MSTORE PUSH1 0x20 DUP3 ADD SWAP1 POP SWAP3 SWAP2 POP POP JUMP JUMPDEST PUSH1 0x0 PUSH2 0x1DAE DUP3 PUSH2 0x1B72 JUMP JUMPDEST PUSH2 0x1DB8 DUP2 DUP6 PUSH2 0x1D92 JUMP JUMPDEST SWAP4 POP PUSH2 0x1DC8 DUP2 DUP6 PUSH1 0x20 DUP7 ADD PUSH2 0x1B8E JUMP JUMPDEST PUSH2 0x1DD1 DUP2 PUSH2 0x192F JUMP JUMPDEST DUP5 ADD SWAP2 POP POP SWAP3 SWAP2 POP POP JUMP JUMPDEST PUSH2 0x1DE5 DUP2 PUSH2 0x1C47 JUMP JUMPDEST DUP3 MSTORE POP POP JUMP JUMPDEST PUSH1 0x0 DUP2 ISZERO ISZERO SWAP1 POP SWAP2 SWAP1 POP JUMP JUMPDEST PUSH2 0x1E00 DUP2 PUSH2 0x1DEB JUMP JUMPDEST DUP3 MSTORE POP POP JUMP JUMPDEST PUSH1 0x0 PUSH2 0x100 DUP3 ADD SWAP1 POP PUSH2 0x1E1C PUSH1 0x0 DUP4 ADD DUP12 PUSH2 0x188E JUMP JUMPDEST PUSH2 0x1E29 PUSH1 0x20 DUP4 ADD DUP11 PUSH2 0x1D83 JUMP JUMPDEST DUP2 DUP2 SUB PUSH1 0x40 DUP4 ADD MSTORE PUSH2 0x1E3B DUP2 DUP10 PUSH2 0x1DA3 JUMP JUMPDEST SWAP1 POP PUSH2 0x1E4A PUSH1 0x60 DUP4 ADD DUP9 PUSH2 0x1DDC JUMP JUMPDEST PUSH2 0x1E57 PUSH1 0x80 DUP4 ADD DUP8 PUSH2 0x1D83 JUMP JUMPDEST PUSH2 0x1E64 PUSH1 0xA0 DUP4 ADD DUP7 PUSH2 0x188E JUMP JUMPDEST PUSH2 0x1E71 PUSH1 0xC0 DUP4 ADD DUP6 PUSH2 0x188E JUMP JUMPDEST PUSH2 0x1E7E PUSH1 0xE0 DUP4 ADD DUP5 PUSH2 0x1DF7 JUMP JUMPDEST SWAP10 SWAP9 POP POP POP POP POP POP POP POP POP JUMP JUMPDEST PUSH2 0x1E94 DUP2 PUSH2 0x1B51 JUMP JUMPDEST DUP2 EQ PUSH2 0x1E9F JUMPI PUSH1 0x0 DUP1 REVERT JUMPDEST POP JUMP JUMPDEST PUSH1 0x0 DUP2 CALLDATALOAD SWAP1 POP PUSH2 0x1EB1 DUP2 PUSH2 0x1E8B JUMP JUMPDEST SWAP3 SWAP2 POP POP JUMP JUMPDEST PUSH1 0x0 DUP1 PUSH1 0x0 DUP1 PUSH1 0x80 DUP6 DUP8 SUB SLT ISZERO PUSH2 0x1ED1 JUMPI PUSH2 0x1ED0 PUSH2 0x18C2 JUMP JUMPDEST JUMPDEST PUSH1 0x0 PUSH2 0x1EDF DUP8 DUP3 DUP9 ADD PUSH2 0x1EA2 JUMP JUMPDEST SWAP5 POP POP PUSH1 0x20 PUSH2 0x1EF0 DUP8 DUP3 DUP9 ADD PUSH2 0x18E3 JUMP JUMPDEST SWAP4 POP POP PUSH1 0x40 PUSH2 0x1F01 DUP8 DUP3 DUP9 ADD PUSH2 0x18E3 JUMP JUMPDEST SWAP3 POP POP PUSH1 0x60 PUSH2 0x1F12 DUP8 DUP3 DUP9 ADD PUSH2 0x18E3 JUMP JUMPDEST SWAP2 POP POP SWAP3 SWAP6 SWAP2 SWAP5 POP SWAP3 POP JUMP JUMPDEST PUSH32 0x536164656365204D656B616E20736168696269206B756C6C616E6162696C6972 PUSH1 0x0 DUP3 ADD MSTORE POP JUMP JUMPDEST PUSH1 0x0 PUSH2 0x1F54 PUSH1 0x20 DUP4 PUSH2 0x1D92 JUMP JUMPDEST SWAP2 POP PUSH2 0x1F5F DUP3 PUSH2 0x1F1E JUMP JUMPDEST PUSH1 0x20 DUP3 ADD SWAP1 POP SWAP2 SWAP1 POP JUMP JUMPDEST PUSH1 0x0 PUSH1 0x20 DUP3 ADD SWAP1 POP DUP2 DUP2 SUB PUSH1 0x0 DUP4 ADD MSTORE PUSH2 0x1F83 DUP2 PUSH2 0x1F47 JUMP JUMPDEST SWAP1 POP SWAP2 SWAP1 POP JUMP JUMPDEST PUSH32 0x4E487B7100000000000000000000000000000000000000000000000000000000 PUSH1 0x0 MSTORE PUSH1 0x32 PUSH1 0x4 MSTORE PUSH1 0x24 PUSH1 0x0 REVERT JUMPDEST PUSH32 0x4E487B7100000000000000000000000000000000000000000000000000000000 PUSH1 0x0 MSTORE PUSH1 0x22 PUSH1 0x4 MSTORE PUSH1 0x24 PUSH1 0x0 REVERT JUMPDEST PUSH1 0x0 PUSH1 0x2 DUP3 DIV SWAP1 POP PUSH1 0x1 DUP3 AND DUP1 PUSH2 0x2000 JUMPI PUSH1 0x7F DUP3 AND SWAP2 POP JUMPDEST PUSH1 0x20 DUP3 LT DUP2 SUB PUSH2 0x2013 JUMPI PUSH2 0x2012 PUSH2 0x1FB9 JUMP JUMPDEST JUMPDEST POP SWAP2 SWAP1 POP JUMP JUMPDEST PUSH32 0x4E487B7100000000000000000000000000000000000000000000000000000000 PUSH1 0x0 MSTORE PUSH1 0x11 PUSH1 0x4 MSTORE PUSH1 0x24 PUSH1 0x0 REVERT JUMPDEST PUSH1 0x0 PUSH2 0x2053 DUP3 PUSH2 0x1884 JUMP JUMPDEST SWAP2 POP PUSH32 0xFFFFFFFFFFFFFFFFFFFFFFFFFFFFFFFFFFFFFFFFFFFFFFFFFFFFFFFFFFFFFFFF DUP3 SUB PUSH2 0x2085 JUMPI PUSH2 0x2084 PUSH2 0x2019 JUMP JUMPDEST JUMPDEST PUSH1 0x1 DUP3 ADD SWAP1 POP SWAP2 SWAP1 POP JUMP JUMPDEST PUSH32 0x52656E74616C204964206765C3A765726C69206465C49F696C00000000000000 PUSH1 0x0 DUP3 ADD MSTORE POP JUMP JUMPDEST PUSH1 0x0 PUSH2 0x20C6 PUSH1 0x19 DUP4 PUSH2 0x1D92 JUMP JUMPDEST SWAP2 POP PUSH2 0x20D1 DUP3 PUSH2 0x2090 JUMP JUMPDEST PUSH1 0x20 DUP3 ADD SWAP1 POP SWAP2 SWAP1 POP JUMP JUMPDEST PUSH1 0x0 PUSH1 0x20 DUP3 ADD SWAP1 POP DUP2 DUP2 SUB PUSH1 0x0 DUP4 ADD MSTORE PUSH2 0x20F5 DUP2 PUSH2 0x20B9 JUMP JUMPDEST SWAP1 POP SWAP2 SWAP1 POP JUMP JUMPDEST PUSH1 0x0 DUP2 SWAP1 POP SWAP3 SWAP2 POP POP JUMP JUMPDEST PUSH32 0x686F6D6500000000000000000000000000000000000000000000000000000000 PUSH1 0x0 DUP3 ADD MSTORE POP JUMP JUMPDEST PUSH1 0x0 PUSH2 0x213D PUSH1 0x4 DUP4 PUSH2 0x20FC JUMP JUMPDEST SWAP2 POP PUSH2 0x2148 DUP3 PUSH2 0x2107 JUMP JUMPDEST PUSH1 0x4 DUP3 ADD SWAP1 POP SWAP2 SWAP1 POP JUMP JUMPDEST PUSH1 0x0 PUSH2 0x215E DUP3 PUSH2 0x2130 JUMP JUMPDEST SWAP2 POP DUP2 SWAP1 POP SWAP2 SWAP1 POP JUMP JUMPDEST PUSH1 0x0 PUSH2 0x2173 DUP3 PUSH2 0x1B72 JUMP JUMPDEST PUSH2 0x217D DUP2 DUP6 PUSH2 0x20FC JUMP JUMPDEST SWAP4 POP PUSH2 0x218D DUP2 DUP6 PUSH1 0x20 DUP7 ADD PUSH2 0x1B8E JUMP JUMPDEST DUP1 DUP5 ADD SWAP2 POP POP SWAP3 SWAP2 POP POP JUMP JUMPDEST PUSH1 0x0 PUSH2 0x21A5 DUP3 DUP5 PUSH2 0x2168 JUMP JUMPDEST SWAP2 POP DUP2 SWAP1 POP SWAP3 SWAP2 POP POP JUMP JUMPDEST PUSH32 0x73686F7000000000000000000000000000000000000000000000000000000000 PUSH1 0x0 DUP3 ADD MSTORE POP JUMP JUMPDEST PUSH1 0x0 PUSH2 0x21E6 PUSH1 0x4 DUP4 PUSH2 0x20FC JUMP JUMPDEST SWAP2 POP PUSH2 0x21F1 DUP3 PUSH2 0x21B0 JUMP JUMPDEST PUSH1 0x4 DUP3 ADD SWAP1 POP SWAP2 SWAP1 POP JUMP JUMPDEST PUSH1 0x0 PUSH2 0x2207 DUP3 PUSH2 0x21D9 JUMP JUMPDEST SWAP2 POP DUP2 SWAP1 POP SWAP2 SWAP1 POP JUMP JUMPDEST PUSH32 0x50726F706572747920746970696E6920686F6D6520766579612073686F70206F PUSH1 0x0 DUP3 ADD MSTORE PUSH32 0x6C6172616B20676972696E697A2E000000000000000000000000000000000000 PUSH1 0x20 DUP3 ADD MSTORE POP JUMP JUMPDEST PUSH1 0x0 PUSH2 0x226D PUSH1 0x2E DUP4 PUSH2 0x1D92 JUMP JUMPDEST SWAP2 POP PUSH2 0x2278 DUP3 PUSH2 0x2211 JUMP JUMPDEST PUSH1 0x40 DUP3 ADD SWAP1 POP SWAP2 SWAP1 POP JUMP JUMPDEST PUSH1 0x0 PUSH1 0x20 DUP3 ADD SWAP1 POP DUP2 DUP2 SUB PUSH1 0x0 DUP4 ADD MSTORE PUSH2 0x229C DUP2 PUSH2 0x2260 JUMP JUMPDEST SWAP1 POP SWAP2 SWAP1 POP JUMP JUMPDEST PUSH32 0x52656E74616C204964206B756C6C616EC4B16CC4B1796F720000000000000000 PUSH1 0x0 DUP3 ADD MSTORE POP JUMP JUMPDEST PUSH1 0x0 PUSH2 0x22D9 PUSH1 0x18 DUP4 PUSH2 0x1D92 JUMP JUMPDEST SWAP2 POP PUSH2 0x22E4 DUP3 PUSH2 0x22A3 JUMP JUMPDEST PUSH1 0x20 DUP3 ADD SWAP1 POP SWAP2 SWAP1 POP JUMP JUMPDEST PUSH1 0x0 PUSH1 0x20 DUP3 ADD SWAP1 POP DUP2 DUP2 SUB PUSH1 0x0 DUP4 ADD MSTORE PUSH2 0x2308 DUP2 PUSH2 0x22CC JUMP JUMPDEST SWAP1 POP SWAP2 SWAP1 POP JUMP JUMPDEST PUSH1 0x0 DUP2 SWAP1 POP DUP2 PUSH1 0x0 MSTORE PUSH1 0x20 PUSH1 0x0 KECCAK256 SWAP1 POP SWAP2 SWAP1 POP JUMP JUMPDEST PUSH1 0x0 PUSH1 0x20 PUSH1 0x1F DUP4 ADD DIV SWAP1 POP SWAP2 SWAP1 POP JUMP JUMPDEST PUSH1 0x0 DUP3 DUP3 SHL SWAP1 POP SWAP3 SWAP2 POP POP JUMP JUMPDEST PUSH1 0x0 PUSH1 0x8 DUP4 MUL PUSH2 0x2371 PUSH32 0xFFFFFFFFFFFFFFFFFFFFFFFFFFFFFFFFFFFFFFFFFFFFFFFFFFFFFFFFFFFFFFFF DUP3 PUSH2 0x2334 JUMP JUMPDEST PUSH2 0x237B DUP7 DUP4 PUSH2 0x2334 JUMP JUMPDEST SWAP6 POP DUP1 NOT DUP5 AND SWAP4 POP DUP1 DUP7 AND DUP5 OR SWAP3 POP POP POP SWAP4 SWAP3 POP POP POP JUMP JUMPDEST PUSH1 0x0 DUP2 SWAP1 POP SWAP2 SWAP1 POP JUMP JUMPDEST PUSH1 0x0 PUSH2 0x23B8 PUSH2 0x23B3 PUSH2 0x23AE DUP5 PUSH2 0x1884 JUMP JUMPDEST PUSH2 0x2393 JUMP JUMPDEST PUSH2 0x1884 JUMP JUMPDEST SWAP1 POP SWAP2 SWAP1 POP JUMP JUMPDEST PUSH1 0x0 DUP2 SWAP1 POP SWAP2 SWAP1 POP JUMP JUMPDEST PUSH2 0x23D2 DUP4 PUSH2 0x239D JUMP JUMPDEST PUSH2 0x23E6 PUSH2 0x23DE DUP3 PUSH2 0x23BF JUMP JUMPDEST DUP5 DUP5 SLOAD PUSH2 0x2341 JUMP JUMPDEST DUP3 SSTORE POP POP POP POP JUMP JUMPDEST PUSH1 0x0 SWAP1 JUMP JUMPDEST PUSH2 0x23FB PUSH2 0x23EE JUMP JUMPDEST PUSH2 0x2406 DUP2 DUP5 DUP5 PUSH2 0x23C9 JUMP JUMPDEST POP POP POP JUMP JUMPDEST JUMPDEST DUP2 DUP2 LT ISZERO PUSH2 0x242A JUMPI PUSH2 0x241F PUSH1 0x0 DUP3 PUSH2 0x23F3 JUMP JUMPDEST PUSH1 0x1 DUP2 ADD SWAP1 POP PUSH2 0x240C JUMP JUMPDEST POP POP JUMP JUMPDEST PUSH1 0x1F DUP3 GT ISZERO PUSH2 0x246F JUMPI PUSH2 0x2440 DUP2 PUSH2 0x230F JUMP JUMPDEST PUSH2 0x2449 DUP5 PUSH2 0x2324 JUMP JUMPDEST DUP2 ADD PUSH1 0x20 DUP6 LT ISZERO PUSH2 0x2458 JUMPI DUP2 SWAP1 POP JUMPDEST PUSH2 0x246C PUSH2 0x2464 DUP6 PUSH2 0x2324 JUMP JUMPDEST DUP4 ADD DUP3 PUSH2 0x240B JUMP JUMPDEST POP POP JUMPDEST POP POP POP JUMP JUMPDEST PUSH1 0x0 DUP3 DUP3 SHR SWAP1 POP SWAP3 SWAP2 POP POP JUMP JUMPDEST PUSH1 0x0 PUSH2 0x2492 PUSH1 0x0 NOT DUP5 PUSH1 0x8 MUL PUSH2 0x2474 JUMP JUMPDEST NOT DUP1 DUP4 AND SWAP2 POP POP SWAP3 SWAP2 POP POP JUMP JUMPDEST PUSH1 0x0 PUSH2 0x24AB DUP4 DUP4 PUSH2 0x2481 JUMP JUMPDEST SWAP2 POP DUP3 PUSH1 0x2 MUL DUP3 OR SWAP1 POP SWAP3 SWAP2 POP POP JUMP JUMPDEST PUSH2 0x24C4 DUP3 PUSH2 0x1B72 JUMP JUMPDEST PUSH8 0xFFFFFFFFFFFFFFFF DUP2 GT ISZERO PUSH2 0x24DD JUMPI PUSH2 0x24DC PUSH2 0x1940 JUMP JUMPDEST JUMPDEST PUSH2 0x24E7 DUP3 SLOAD PUSH2 0x1FE8 JUMP JUMPDEST PUSH2 0x24F2 DUP3 DUP3 DUP6 PUSH2 0x242E JUMP JUMPDEST PUSH1 0x0 PUSH1 0x20 SWAP1 POP PUSH1 0x1F DUP4 GT PUSH1 0x1 DUP2 EQ PUSH2 0x2525 JUMPI PUSH1 0x0 DUP5 ISZERO PUSH2 0x2513 JUMPI DUP3 DUP8 ADD MLOAD SWAP1 POP JUMPDEST PUSH2 0x251D DUP6 DUP3 PUSH2 0x249F JUMP JUMPDEST DUP7 SSTORE POP PUSH2 0x2585 JUMP JUMPDEST PUSH1 0x1F NOT DUP5 AND PUSH2 0x2533 DUP7 PUSH2 0x230F JUMP JUMPDEST PUSH1 0x0 JUMPDEST DUP3 DUP2 LT ISZERO PUSH2 0x255B JUMPI DUP5 DUP10 ADD MLOAD DUP3 SSTORE PUSH1 0x1 DUP3 ADD SWAP2 POP PUSH1 0x20 DUP6 ADD SWAP5 POP PUSH1 0x20 DUP2 ADD SWAP1 POP PUSH2 0x2536 JUMP JUMPDEST DUP7 DUP4 LT ISZERO PUSH2 0x2578 JUMPI DUP5 DUP10 ADD MLOAD PUSH2 0x2574 PUSH1 0x1F DUP10 AND DUP3 PUSH2 0x2481 JUMP JUMPDEST DUP4 SSTORE POP JUMPDEST PUSH1 0x1 PUSH1 0x2 DUP9 MUL ADD DUP9 SSTORE POP POP POP JUMPDEST POP POP POP POP POP POP JUMP JUMPDEST PUSH32 0x53C3B67A6C65C59F6D652062756C756E616D6164C4B100000000000000000000 PUSH1 0x0 DUP3 ADD MSTORE POP JUMP JUMPDEST PUSH1 0x0 PUSH2 0x25C3 PUSH1 0x16 DUP4 PUSH2 0x1D92 JUMP JUMPDEST SWAP2 POP PUSH2 0x25CE DUP3 PUSH2 0x258D JUMP JUMPDEST PUSH1 0x20 DUP3 ADD SWAP1 POP SWAP2 SWAP1 POP JUMP JUMPDEST PUSH1 0x0 PUSH1 0x20 DUP3 ADD SWAP1 POP DUP2 DUP2 SUB PUSH1 0x0 DUP4 ADD MSTORE PUSH2 0x25F2 DUP2 PUSH2 0x25B6 JUMP JUMPDEST SWAP1 POP SWAP2 SWAP1 POP JUMP JUMPDEST PUSH32 0x4B6972616CC4B16B207965722062756C756E616D6164C4B10000000000000000 PUSH1 0x0 DUP3 ADD MSTORE POP JUMP JUMPDEST PUSH1 0x0 PUSH2 0x262F PUSH1 0x18 DUP4 PUSH2 0x1D92 JUMP JUMPDEST SWAP2 POP PUSH2 0x263A DUP3 PUSH2 0x25F9 JUMP JUMPDEST PUSH1 0x20 DUP3 ADD SWAP1 POP SWAP2 SWAP1 POP JUMP JUMPDEST PUSH1 0x0 PUSH1 0x20 DUP3 ADD SWAP1 POP DUP2 DUP2 SUB PUSH1 0x0 DUP4 ADD MSTORE PUSH2 0x265E DUP2 PUSH2 0x2622 JUMP JUMPDEST SWAP1 POP SWAP2 SWAP1 POP JUMP INVALID LOG2 PUSH5 0x6970667358 0x22 SLT KECCAK256 GAS SWAP8 SHR 0xDA SWAP2 SELFDESTRUCT STATICCALL 0xDC SWAP15 DUP2 DUP13 SLOAD 0x2B PUSH24 0xD73BD1C59B780B39A8C6B0D0F2D8D61E840064736F6C6343 STOP ADDMOD SLT STOP CALLER "
				},
				"gasEstimates": {
					"creation": {
						"codeDepositCost": "1976600",
						"executionCost": "2091",
						"totalCost": "1978691"
					},
					"external": {
						"AddOwner(uint256,string,string)": "infinite",
						"cancelContract(uint256)": "infinite",
						"createRentalContract(address,uint256,uint256,uint256)": "infinite",
						"getRentalContract(uint256)": "infinite",
						"ownerRentalCount()": "4732",
						"ownerRentals()": "infinite"
					}
				},
				"methodIdentifiers": {
					"AddOwner(uint256,string,string)": "2a1eb941",
					"cancelContract(uint256)": "28047450",
					"createRentalContract(address,uint256,uint256,uint256)": "f23b3a2c",
					"getRentalContract(uint256)": "bee68d43",
					"ownerRentalCount()": "104b7a0a",
					"ownerRentals()": "4a479823"
				}
			},
			"storageLayout": {
				"storage": [
					{
						"astId": 32,
						"contract": "contracts/RentalContract.sol:RentalContract",
						"label": "contractInfos",
						"offset": 0,
						"slot": "0",
						"type": "t_mapping(t_address,t_array(t_struct(ContractInformation)26_storage)dyn_storage)"
					},
					{
						"astId": 38,
						"contract": "contracts/RentalContract.sol:RentalContract",
						"label": "owners",
						"offset": 0,
						"slot": "1",
						"type": "t_mapping(t_address,t_array(t_struct(Rental)14_storage)dyn_storage)"
					}
				],
				"types": {
					"t_address": {
						"encoding": "inplace",
						"label": "address",
						"numberOfBytes": "20"
					},
					"t_array(t_struct(ContractInformation)26_storage)dyn_storage": {
						"base": "t_struct(ContractInformation)26_storage",
						"encoding": "dynamic_array",
						"label": "struct RentalContract.ContractInformation[]",
						"numberOfBytes": "32"
					},
					"t_array(t_struct(Rental)14_storage)dyn_storage": {
						"base": "t_struct(Rental)14_storage",
						"encoding": "dynamic_array",
						"label": "struct RentalContract.Rental[]",
						"numberOfBytes": "32"
					},
					"t_bool": {
						"encoding": "inplace",
						"label": "bool",
						"numberOfBytes": "1"
					},
					"t_enum(PropertyType)4": {
						"encoding": "inplace",
						"label": "enum RentalContract.PropertyType",
						"numberOfBytes": "1"
					},
					"t_mapping(t_address,t_array(t_struct(ContractInformation)26_storage)dyn_storage)": {
						"encoding": "mapping",
						"key": "t_address",
						"label": "mapping(address => struct RentalContract.ContractInformation[])",
						"numberOfBytes": "32",
						"value": "t_array(t_struct(ContractInformation)26_storage)dyn_storage"
					},
					"t_mapping(t_address,t_array(t_struct(Rental)14_storage)dyn_storage)": {
						"encoding": "mapping",
						"key": "t_address",
						"label": "mapping(address => struct RentalContract.Rental[])",
						"numberOfBytes": "32",
						"value": "t_array(t_struct(Rental)14_storage)dyn_storage"
					},
					"t_string_storage": {
						"encoding": "bytes",
						"label": "string",
						"numberOfBytes": "32"
					},
					"t_struct(ContractInformation)26_storage": {
						"encoding": "inplace",
						"label": "struct RentalContract.ContractInformation",
						"members": [
							{
								"astId": 17,
								"contract": "contracts/RentalContract.sol:RentalContract",
								"label": "base",
								"offset": 0,
								"slot": "0",
								"type": "t_struct(Rental)14_storage"
							},
							{
								"astId": 19,
								"contract": "contracts/RentalContract.sol:RentalContract",
								"label": "tenantAddress",
								"offset": 0,
								"slot": "4",
								"type": "t_address"
							},
							{
								"astId": 21,
								"contract": "contracts/RentalContract.sol:RentalContract",
								"label": "startYear",
								"offset": 0,
								"slot": "5",
								"type": "t_uint256"
							},
							{
								"astId": 23,
								"contract": "contracts/RentalContract.sol:RentalContract",
								"label": "endYear",
								"offset": 0,
								"slot": "6",
								"type": "t_uint256"
							},
							{
								"astId": 25,
								"contract": "contracts/RentalContract.sol:RentalContract",
								"label": "isActive",
								"offset": 0,
								"slot": "7",
								"type": "t_bool"
							}
						],
						"numberOfBytes": "256"
					},
					"t_struct(Rental)14_storage": {
						"encoding": "inplace",
						"label": "struct RentalContract.Rental",
						"members": [
							{
								"astId": 6,
								"contract": "contracts/RentalContract.sol:RentalContract",
								"label": "rentalId",
								"offset": 0,
								"slot": "0",
								"type": "t_uint256"
							},
							{
								"astId": 8,
								"contract": "contracts/RentalContract.sol:RentalContract",
								"label": "owner",
								"offset": 0,
								"slot": "1",
								"type": "t_address"
							},
							{
								"astId": 10,
								"contract": "contracts/RentalContract.sol:RentalContract",
								"label": "rentalAddress",
								"offset": 0,
								"slot": "2",
								"type": "t_string_storage"
							},
							{
								"astId": 13,
								"contract": "contracts/RentalContract.sol:RentalContract",
								"label": "propertyType",
								"offset": 0,
								"slot": "3",
								"type": "t_enum(PropertyType)4"
							}
						],
						"numberOfBytes": "128"
					},
					"t_uint256": {
						"encoding": "inplace",
						"label": "uint256",
						"numberOfBytes": "32"
					}
				}
			},
			"userdoc": {
				"kind": "user",
				"methods": {},
				"version": 1
			}
		}
	}
}